{
	"data": {
		"bytecode": {
			"linkReferences": {},
			"object": "608060405234801561001057600080fd5b506040518060400160405280600681526020017f50756c6b697400000000000000000000000000000000000000000000000000008152506000908161005591906102b3565b506015600181905550610385565b600081519050919050565b7f4e487b7100000000000000000000000000000000000000000000000000000000600052604160045260246000fd5b7f4e487b7100000000000000000000000000000000000000000000000000000000600052602260045260246000fd5b600060028204905060018216806100e457607f821691505b6020821081036100f7576100f661009d565b5b50919050565b60008190508160005260206000209050919050565b60006020601f8301049050919050565b600082821b905092915050565b60006008830261015f7fffffffffffffffffffffffffffffffffffffffffffffffffffffffffffffffff82610122565b6101698683610122565b95508019841693508086168417925050509392505050565b6000819050919050565b6000819050919050565b60006101b06101ab6101a684610181565b61018b565b610181565b9050919050565b6000819050919050565b6101ca83610195565b6101de6101d6826101b7565b84845461012f565b825550505050565b600090565b6101f36101e6565b6101fe8184846101c1565b505050565b5b81811015610222576102176000826101eb565b600181019050610204565b5050565b601f82111561026757610238816100fd565b61024184610112565b81016020851015610250578190505b61026461025c85610112565b830182610203565b50505b505050565b600082821c905092915050565b600061028a6000198460080261026c565b1980831691505092915050565b60006102a38383610279565b9150826002028217905092915050565b6102bc82610063565b67ffffffffffffffff8111156102d5576102d461006e565b5b6102df82546100cc565b6102ea828285610226565b600060209050601f83116001811461031d576000841561030b578287015190505b6103158582610297565b86555061037d565b601f19841661032b866100fd565b60005b828110156103535784890151825560018201915060208501945060208101905061032e565b86831015610370578489015161036c601f891682610279565b8355505b6001600288020188555050505b505050505050565b61031d806103946000396000f3fe608060405234801561001057600080fd5b50600436106100415760003560e01c806317d7de7c146100465780632bf0f81c14610064578063967e6e651461006e575b600080fd5b61004e61008c565b60405161005b91906101ce565b60405180910390f35b61006c61011e565b005b610076610134565b6040516100839190610209565b60405180910390f35b60606000805461009b90610253565b80601f01602080910402602001604051908101604052809291908181526020018280546100c790610253565b80156101145780601f106100e957610100808354040283529160200191610114565b820191906000526020600020905b8154815290600101906020018083116100f757829003601f168201915b5050505050905090565b6001805461012c91906102b3565b600181905550565b6000600154905090565b600081519050919050565b600082825260208201905092915050565b60005b8381101561017857808201518184015260208101905061015d565b60008484015250505050565b6000601f19601f8301169050919050565b60006101a08261013e565b6101aa8185610149565b93506101ba81856020860161015a565b6101c381610184565b840191505092915050565b600060208201905081810360008301526101e88184610195565b905092915050565b6000819050919050565b610203816101f0565b82525050565b600060208201905061021e60008301846101fa565b92915050565b7f4e487b7100000000000000000000000000000000000000000000000000000000600052602260045260246000fd5b6000600282049050600182168061026b57607f821691505b60208210810361027e5761027d610224565b5b50919050565b7f4e487b7100000000000000000000000000000000000000000000000000000000600052601160045260246000fd5b60006102be826101f0565b91506102c9836101f0565b92508282019050808211156102e1576102e0610284565b5b9291505056fea26469706673582212203f6731dc0b237d4847951bcc63a03604a370b8181fd9f00a2487b374e95c751464736f6c63430008120033",
			"opcodes": "PUSH1 0x80 PUSH1 0x40 MSTORE CALLVALUE DUP1 ISZERO PUSH2 0x10 JUMPI PUSH1 0x0 DUP1 REVERT JUMPDEST POP PUSH1 0x40 MLOAD DUP1 PUSH1 0x40 ADD PUSH1 0x40 MSTORE DUP1 PUSH1 0x6 DUP2 MSTORE PUSH1 0x20 ADD PUSH32 0x50756C6B69740000000000000000000000000000000000000000000000000000 DUP2 MSTORE POP PUSH1 0x0 SWAP1 DUP2 PUSH2 0x55 SWAP2 SWAP1 PUSH2 0x2B3 JUMP JUMPDEST POP PUSH1 0x15 PUSH1 0x1 DUP2 SWAP1 SSTORE POP PUSH2 0x385 JUMP JUMPDEST PUSH1 0x0 DUP2 MLOAD SWAP1 POP SWAP2 SWAP1 POP JUMP JUMPDEST PUSH32 0x4E487B7100000000000000000000000000000000000000000000000000000000 PUSH1 0x0 MSTORE PUSH1 0x41 PUSH1 0x4 MSTORE PUSH1 0x24 PUSH1 0x0 REVERT JUMPDEST PUSH32 0x4E487B7100000000000000000000000000000000000000000000000000000000 PUSH1 0x0 MSTORE PUSH1 0x22 PUSH1 0x4 MSTORE PUSH1 0x24 PUSH1 0x0 REVERT JUMPDEST PUSH1 0x0 PUSH1 0x2 DUP3 DIV SWAP1 POP PUSH1 0x1 DUP3 AND DUP1 PUSH2 0xE4 JUMPI PUSH1 0x7F DUP3 AND SWAP2 POP JUMPDEST PUSH1 0x20 DUP3 LT DUP2 SUB PUSH2 0xF7 JUMPI PUSH2 0xF6 PUSH2 0x9D JUMP JUMPDEST JUMPDEST POP SWAP2 SWAP1 POP JUMP JUMPDEST PUSH1 0x0 DUP2 SWAP1 POP DUP2 PUSH1 0x0 MSTORE PUSH1 0x20 PUSH1 0x0 KECCAK256 SWAP1 POP SWAP2 SWAP1 POP JUMP JUMPDEST PUSH1 0x0 PUSH1 0x20 PUSH1 0x1F DUP4 ADD DIV SWAP1 POP SWAP2 SWAP1 POP JUMP JUMPDEST PUSH1 0x0 DUP3 DUP3 SHL SWAP1 POP SWAP3 SWAP2 POP POP JUMP JUMPDEST PUSH1 0x0 PUSH1 0x8 DUP4 MUL PUSH2 0x15F PUSH32 0xFFFFFFFFFFFFFFFFFFFFFFFFFFFFFFFFFFFFFFFFFFFFFFFFFFFFFFFFFFFFFFFF DUP3 PUSH2 0x122 JUMP JUMPDEST PUSH2 0x169 DUP7 DUP4 PUSH2 0x122 JUMP JUMPDEST SWAP6 POP DUP1 NOT DUP5 AND SWAP4 POP DUP1 DUP7 AND DUP5 OR SWAP3 POP POP POP SWAP4 SWAP3 POP POP POP JUMP JUMPDEST PUSH1 0x0 DUP2 SWAP1 POP SWAP2 SWAP1 POP JUMP JUMPDEST PUSH1 0x0 DUP2 SWAP1 POP SWAP2 SWAP1 POP JUMP JUMPDEST PUSH1 0x0 PUSH2 0x1B0 PUSH2 0x1AB PUSH2 0x1A6 DUP5 PUSH2 0x181 JUMP JUMPDEST PUSH2 0x18B JUMP JUMPDEST PUSH2 0x181 JUMP JUMPDEST SWAP1 POP SWAP2 SWAP1 POP JUMP JUMPDEST PUSH1 0x0 DUP2 SWAP1 POP SWAP2 SWAP1 POP JUMP JUMPDEST PUSH2 0x1CA DUP4 PUSH2 0x195 JUMP JUMPDEST PUSH2 0x1DE PUSH2 0x1D6 DUP3 PUSH2 0x1B7 JUMP JUMPDEST DUP5 DUP5 SLOAD PUSH2 0x12F JUMP JUMPDEST DUP3 SSTORE POP POP POP POP JUMP JUMPDEST PUSH1 0x0 SWAP1 JUMP JUMPDEST PUSH2 0x1F3 PUSH2 0x1E6 JUMP JUMPDEST PUSH2 0x1FE DUP2 DUP5 DUP5 PUSH2 0x1C1 JUMP JUMPDEST POP POP POP JUMP JUMPDEST JUMPDEST DUP2 DUP2 LT ISZERO PUSH2 0x222 JUMPI PUSH2 0x217 PUSH1 0x0 DUP3 PUSH2 0x1EB JUMP JUMPDEST PUSH1 0x1 DUP2 ADD SWAP1 POP PUSH2 0x204 JUMP JUMPDEST POP POP JUMP JUMPDEST PUSH1 0x1F DUP3 GT ISZERO PUSH2 0x267 JUMPI PUSH2 0x238 DUP2 PUSH2 0xFD JUMP JUMPDEST PUSH2 0x241 DUP5 PUSH2 0x112 JUMP JUMPDEST DUP2 ADD PUSH1 0x20 DUP6 LT ISZERO PUSH2 0x250 JUMPI DUP2 SWAP1 POP JUMPDEST PUSH2 0x264 PUSH2 0x25C DUP6 PUSH2 0x112 JUMP JUMPDEST DUP4 ADD DUP3 PUSH2 0x203 JUMP JUMPDEST POP POP JUMPDEST POP POP POP JUMP JUMPDEST PUSH1 0x0 DUP3 DUP3 SHR SWAP1 POP SWAP3 SWAP2 POP POP JUMP JUMPDEST PUSH1 0x0 PUSH2 0x28A PUSH1 0x0 NOT DUP5 PUSH1 0x8 MUL PUSH2 0x26C JUMP JUMPDEST NOT DUP1 DUP4 AND SWAP2 POP POP SWAP3 SWAP2 POP POP JUMP JUMPDEST PUSH1 0x0 PUSH2 0x2A3 DUP4 DUP4 PUSH2 0x279 JUMP JUMPDEST SWAP2 POP DUP3 PUSH1 0x2 MUL DUP3 OR SWAP1 POP SWAP3 SWAP2 POP POP JUMP JUMPDEST PUSH2 0x2BC DUP3 PUSH2 0x63 JUMP JUMPDEST PUSH8 0xFFFFFFFFFFFFFFFF DUP2 GT ISZERO PUSH2 0x2D5 JUMPI PUSH2 0x2D4 PUSH2 0x6E JUMP JUMPDEST JUMPDEST PUSH2 0x2DF DUP3 SLOAD PUSH2 0xCC JUMP JUMPDEST PUSH2 0x2EA DUP3 DUP3 DUP6 PUSH2 0x226 JUMP JUMPDEST PUSH1 0x0 PUSH1 0x20 SWAP1 POP PUSH1 0x1F DUP4 GT PUSH1 0x1 DUP2 EQ PUSH2 0x31D JUMPI PUSH1 0x0 DUP5 ISZERO PUSH2 0x30B JUMPI DUP3 DUP8 ADD MLOAD SWAP1 POP JUMPDEST PUSH2 0x315 DUP6 DUP3 PUSH2 0x297 JUMP JUMPDEST DUP7 SSTORE POP PUSH2 0x37D JUMP JUMPDEST PUSH1 0x1F NOT DUP5 AND PUSH2 0x32B DUP7 PUSH2 0xFD JUMP JUMPDEST PUSH1 0x0 JUMPDEST DUP3 DUP2 LT ISZERO PUSH2 0x353 JUMPI DUP5 DUP10 ADD MLOAD DUP3 SSTORE PUSH1 0x1 DUP3 ADD SWAP2 POP PUSH1 0x20 DUP6 ADD SWAP5 POP PUSH1 0x20 DUP2 ADD SWAP1 POP PUSH2 0x32E JUMP JUMPDEST DUP7 DUP4 LT ISZERO PUSH2 0x370 JUMPI DUP5 DUP10 ADD MLOAD PUSH2 0x36C PUSH1 0x1F DUP10 AND DUP3 PUSH2 0x279 JUMP JUMPDEST DUP4 SSTORE POP JUMPDEST PUSH1 0x1 PUSH1 0x2 DUP9 MUL ADD DUP9 SSTORE POP POP POP JUMPDEST POP POP POP POP POP POP JUMP JUMPDEST PUSH2 0x31D DUP1 PUSH2 0x394 PUSH1 0x0 CODECOPY PUSH1 0x0 RETURN INVALID PUSH1 0x80 PUSH1 0x40 MSTORE CALLVALUE DUP1 ISZERO PUSH2 0x10 JUMPI PUSH1 0x0 DUP1 REVERT JUMPDEST POP PUSH1 0x4 CALLDATASIZE LT PUSH2 0x41 JUMPI PUSH1 0x0 CALLDATALOAD PUSH1 0xE0 SHR DUP1 PUSH4 0x17D7DE7C EQ PUSH2 0x46 JUMPI DUP1 PUSH4 0x2BF0F81C EQ PUSH2 0x64 JUMPI DUP1 PUSH4 0x967E6E65 EQ PUSH2 0x6E JUMPI JUMPDEST PUSH1 0x0 DUP1 REVERT JUMPDEST PUSH2 0x4E PUSH2 0x8C JUMP JUMPDEST PUSH1 0x40 MLOAD PUSH2 0x5B SWAP2 SWAP1 PUSH2 0x1CE JUMP JUMPDEST PUSH1 0x40 MLOAD DUP1 SWAP2 SUB SWAP1 RETURN JUMPDEST PUSH2 0x6C PUSH2 0x11E JUMP JUMPDEST STOP JUMPDEST PUSH2 0x76 PUSH2 0x134 JUMP JUMPDEST PUSH1 0x40 MLOAD PUSH2 0x83 SWAP2 SWAP1 PUSH2 0x209 JUMP JUMPDEST PUSH1 0x40 MLOAD DUP1 SWAP2 SUB SWAP1 RETURN JUMPDEST PUSH1 0x60 PUSH1 0x0 DUP1 SLOAD PUSH2 0x9B SWAP1 PUSH2 0x253 JUMP JUMPDEST DUP1 PUSH1 0x1F ADD PUSH1 0x20 DUP1 SWAP2 DIV MUL PUSH1 0x20 ADD PUSH1 0x40 MLOAD SWAP1 DUP2 ADD PUSH1 0x40 MSTORE DUP1 SWAP3 SWAP2 SWAP1 DUP2 DUP2 MSTORE PUSH1 0x20 ADD DUP3 DUP1 SLOAD PUSH2 0xC7 SWAP1 PUSH2 0x253 JUMP JUMPDEST DUP1 ISZERO PUSH2 0x114 JUMPI DUP1 PUSH1 0x1F LT PUSH2 0xE9 JUMPI PUSH2 0x100 DUP1 DUP4 SLOAD DIV MUL DUP4 MSTORE SWAP2 PUSH1 0x20 ADD SWAP2 PUSH2 0x114 JUMP JUMPDEST DUP3 ADD SWAP2 SWAP1 PUSH1 0x0 MSTORE PUSH1 0x20 PUSH1 0x0 KECCAK256 SWAP1 JUMPDEST DUP2 SLOAD DUP2 MSTORE SWAP1 PUSH1 0x1 ADD SWAP1 PUSH1 0x20 ADD DUP1 DUP4 GT PUSH2 0xF7 JUMPI DUP3 SWAP1 SUB PUSH1 0x1F AND DUP3 ADD SWAP2 JUMPDEST POP POP POP POP POP SWAP1 POP SWAP1 JUMP JUMPDEST PUSH1 0x1 DUP1 SLOAD PUSH2 0x12C SWAP2 SWAP1 PUSH2 0x2B3 JUMP JUMPDEST PUSH1 0x1 DUP2 SWAP1 SSTORE POP JUMP JUMPDEST PUSH1 0x0 PUSH1 0x1 SLOAD SWAP1 POP SWAP1 JUMP JUMPDEST PUSH1 0x0 DUP2 MLOAD SWAP1 POP SWAP2 SWAP1 POP JUMP JUMPDEST PUSH1 0x0 DUP3 DUP3 MSTORE PUSH1 0x20 DUP3 ADD SWAP1 POP SWAP3 SWAP2 POP POP JUMP JUMPDEST PUSH1 0x0 JUMPDEST DUP4 DUP2 LT ISZERO PUSH2 0x178 JUMPI DUP1 DUP3 ADD MLOAD DUP2 DUP5 ADD MSTORE PUSH1 0x20 DUP2 ADD SWAP1 POP PUSH2 0x15D JUMP JUMPDEST PUSH1 0x0 DUP5 DUP5 ADD MSTORE POP POP POP POP JUMP JUMPDEST PUSH1 0x0 PUSH1 0x1F NOT PUSH1 0x1F DUP4 ADD AND SWAP1 POP SWAP2 SWAP1 POP JUMP JUMPDEST PUSH1 0x0 PUSH2 0x1A0 DUP3 PUSH2 0x13E JUMP JUMPDEST PUSH2 0x1AA DUP2 DUP6 PUSH2 0x149 JUMP JUMPDEST SWAP4 POP PUSH2 0x1BA DUP2 DUP6 PUSH1 0x20 DUP7 ADD PUSH2 0x15A JUMP JUMPDEST PUSH2 0x1C3 DUP2 PUSH2 0x184 JUMP JUMPDEST DUP5 ADD SWAP2 POP POP SWAP3 SWAP2 POP POP JUMP JUMPDEST PUSH1 0x0 PUSH1 0x20 DUP3 ADD SWAP1 POP DUP2 DUP2 SUB PUSH1 0x0 DUP4 ADD MSTORE PUSH2 0x1E8 DUP2 DUP5 PUSH2 0x195 JUMP JUMPDEST SWAP1 POP SWAP3 SWAP2 POP POP JUMP JUMPDEST PUSH1 0x0 DUP2 SWAP1 POP SWAP2 SWAP1 POP JUMP JUMPDEST PUSH2 0x203 DUP2 PUSH2 0x1F0 JUMP JUMPDEST DUP3 MSTORE POP POP JUMP JUMPDEST PUSH1 0x0 PUSH1 0x20 DUP3 ADD SWAP1 POP PUSH2 0x21E PUSH1 0x0 DUP4 ADD DUP5 PUSH2 0x1FA JUMP JUMPDEST SWAP3 SWAP2 POP POP JUMP JUMPDEST PUSH32 0x4E487B7100000000000000000000000000000000000000000000000000000000 PUSH1 0x0 MSTORE PUSH1 0x22 PUSH1 0x4 MSTORE PUSH1 0x24 PUSH1 0x0 REVERT JUMPDEST PUSH1 0x0 PUSH1 0x2 DUP3 DIV SWAP1 POP PUSH1 0x1 DUP3 AND DUP1 PUSH2 0x26B JUMPI PUSH1 0x7F DUP3 AND SWAP2 POP JUMPDEST PUSH1 0x20 DUP3 LT DUP2 SUB PUSH2 0x27E JUMPI PUSH2 0x27D PUSH2 0x224 JUMP JUMPDEST JUMPDEST POP SWAP2 SWAP1 POP JUMP JUMPDEST PUSH32 0x4E487B7100000000000000000000000000000000000000000000000000000000 PUSH1 0x0 MSTORE PUSH1 0x11 PUSH1 0x4 MSTORE PUSH1 0x24 PUSH1 0x0 REVERT JUMPDEST PUSH1 0x0 PUSH2 0x2BE DUP3 PUSH2 0x1F0 JUMP JUMPDEST SWAP2 POP PUSH2 0x2C9 DUP4 PUSH2 0x1F0 JUMP JUMPDEST SWAP3 POP DUP3 DUP3 ADD SWAP1 POP DUP1 DUP3 GT ISZERO PUSH2 0x2E1 JUMPI PUSH2 0x2E0 PUSH2 0x284 JUMP JUMPDEST JUMPDEST SWAP3 SWAP2 POP POP JUMP INVALID LOG2 PUSH5 0x6970667358 0x22 SLT KECCAK256 EXTCODEHASH PUSH8 0x31DC0B237D484795 SHL 0xCC PUSH4 0xA03604A3 PUSH17 0xB8181FD9F00A2487B374E95C751464736F PUSH13 0x63430008120033000000000000 "
		},
		"gasEstimates": {
			"creation": {
				"codeDepositCost": "159400",
				"executionCost": "infinite",
				"totalCost": "infinite"
			},
			"external": {
				"getAge()": "2459",
				"getName()": "infinite",
				"setName()": "infinite"
			}
		},
		"methodIdentifiers": {
			"getAge()": "967e6e65",
			"getName()": "17d7de7c",
			"setName()": "2bf0f81c"
		}
	},
	"abi": [
		{
			"inputs": [],
			"stateMutability": "nonpayable",
			"type": "constructor"
		},
		{
			"inputs": [],
			"name": "getAge",
			"outputs": [
				{
					"internalType": "uint256",
					"name": "",
					"type": "uint256"
				}
			],
			"stateMutability": "view",
			"type": "function"
		},
		{
			"inputs": [],
			"name": "getName",
			"outputs": [
				{
					"internalType": "string",
					"name": "",
					"type": "string"
				}
			],
			"stateMutability": "view",
			"type": "function"
		},
		{
			"inputs": [],
			"name": "setName",
			"outputs": [],
			"stateMutability": "nonpayable",
			"type": "function"
		}
	]
}