{
	"Basics of Solidity/StoragevsMemory.sol": {
		"Mappings": {
			"abi": [
				{
					"inputs": [],
					"name": "setter",
					"outputs": [],
					"stateMutability": "view",
					"type": "function"
				},
				{
					"inputs": [],
					"name": "store",
					"outputs": [],
					"stateMutability": "nonpayable",
					"type": "function"
				},
				{
					"inputs": [
						{
							"internalType": "uint256",
							"name": "",
							"type": "uint256"
						}
					],
					"name": "students",
					"outputs": [
						{
							"internalType": "string",
							"name": "",
							"type": "string"
						}
					],
					"stateMutability": "view",
					"type": "function"
				}
			],
			"devdoc": {
				"kind": "dev",
				"methods": {},
				"version": 1
			},
			"evm": {
				"assembly": "    /* \"Basics of Solidity/StoragevsMemory.sol\":61:468  contract Mappings{... */\n  mstore(0x40, 0x80)\n    /* \"Basics of Solidity/StoragevsMemory.sol\":91:147  string[] public students = ['Pulkit' , 'Milli' , 'Anil'] */\n  mload(0x40)\n  dup1\n  0x60\n  add\n  0x40\n  mstore\n  dup1\n  mload(0x40)\n  dup1\n  0x40\n  add\n  0x40\n  mstore\n  dup1\n  0x06\n  dup2\n  mstore\n  0x20\n  add\n  0x50756c6b69740000000000000000000000000000000000000000000000000000\n  dup2\n  mstore\n  pop\n  dup2\n  mstore\n  0x20\n  add\n  mload(0x40)\n  dup1\n  0x40\n  add\n  0x40\n  mstore\n  dup1\n  0x05\n  dup2\n  mstore\n  0x20\n  add\n  0x4d696c6c69000000000000000000000000000000000000000000000000000000\n  dup2\n  mstore\n  pop\n  dup2\n  mstore\n  0x20\n  add\n  mload(0x40)\n  dup1\n  0x40\n  add\n  0x40\n  mstore\n  dup1\n  0x04\n  dup2\n  mstore\n  0x20\n  add\n  0x416e696c00000000000000000000000000000000000000000000000000000000\n  dup2\n  mstore\n  pop\n  dup2\n  mstore\n  pop\n  0x00\n  swap1\n  0x03\n  tag_1\n  swap3\n  swap2\n  swap1\n  tag_2\n  jump\t// in\ntag_1:\n  pop\n    /* \"Basics of Solidity/StoragevsMemory.sol\":61:468  contract Mappings{... */\n  callvalue\n  dup1\n  iszero\n  tag_3\n  jumpi\n  0x00\n  dup1\n  revert\ntag_3:\n  pop\n  jump(tag_4)\ntag_2:\n  dup3\n  dup1\n  sload\n  dup3\n  dup3\n  sstore\n  swap1\n  0x00\n  mstore\n  keccak256(0x00, 0x20)\n  swap1\n  dup2\n  add\n  swap3\n  dup3\n  iszero\n  tag_5\n  jumpi\n  swap2\n  0x20\n  mul\n  dup3\n  add\ntag_6:\n  dup3\n  dup2\n  gt\n  iszero\n  tag_7\n  jumpi\n  dup3\n  mload\n  dup3\n  swap1\n  dup2\n  tag_8\n  swap2\n  swap1\n  tag_9\n  jump\t// in\ntag_8:\n  pop\n  swap2\n  0x20\n  add\n  swap2\n  swap1\n  0x01\n  add\n  swap1\n  jump(tag_6)\ntag_7:\ntag_5:\n  pop\n  swap1\n  pop\n  tag_10\n  swap2\n  swap1\n  tag_11\n  jump\t// in\ntag_10:\n  pop\n  swap1\n  jump\t// out\ntag_11:\ntag_12:\n  dup1\n  dup3\n  gt\n  iszero\n  tag_13\n  jumpi\n  0x00\n  dup2\n  dup2\n  tag_14\n  swap2\n  swap1\n  tag_15\n  jump\t// in\ntag_14:\n  pop\n  0x01\n  add\n  jump(tag_12)\ntag_13:\n  pop\n  swap1\n  jump\t// out\ntag_15:\n  pop\n  dup1\n  sload\n  tag_16\n  swap1\n  tag_17\n  jump\t// in\ntag_16:\n  0x00\n  dup3\n  sstore\n  dup1\n  0x1f\n  lt\n  tag_19\n  jumpi\n  pop\n  jump(tag_18)\ntag_19:\n  0x1f\n  add\n  0x20\n  swap1\n  div\n  swap1\n  0x00\n  mstore\n  keccak256(0x00, 0x20)\n  swap1\n  dup2\n  add\n  swap1\n  tag_20\n  swap2\n  swap1\n  tag_21\n  jump\t// in\ntag_20:\ntag_18:\n  pop\n  jump\t// out\ntag_21:\ntag_22:\n  dup1\n  dup3\n  gt\n  iszero\n  tag_23\n  jumpi\n  0x00\n  dup2\n  0x00\n  swap1\n  sstore\n  pop\n  0x01\n  add\n  jump(tag_22)\ntag_23:\n  pop\n  swap1\n  jump\t// out\n    /* \"#utility.yul\":7:106   */\ntag_24:\n    /* \"#utility.yul\":59:65   */\n  0x00\n    /* \"#utility.yul\":93:98   */\n  dup2\n    /* \"#utility.yul\":87:99   */\n  mload\n    /* \"#utility.yul\":77:99   */\n  swap1\n  pop\n    /* \"#utility.yul\":7:106   */\n  swap2\n  swap1\n  pop\n  jump\t// out\n    /* \"#utility.yul\":112:292   */\ntag_25:\n    /* \"#utility.yul\":160:237   */\n  0x4e487b7100000000000000000000000000000000000000000000000000000000\n    /* \"#utility.yul\":157:158   */\n  0x00\n    /* \"#utility.yul\":150:238   */\n  mstore\n    /* \"#utility.yul\":257:261   */\n  0x41\n    /* \"#utility.yul\":254:255   */\n  0x04\n    /* \"#utility.yul\":247:262   */\n  mstore\n    /* \"#utility.yul\":281:285   */\n  0x24\n    /* \"#utility.yul\":278:279   */\n  0x00\n    /* \"#utility.yul\":271:286   */\n  revert\n    /* \"#utility.yul\":298:478   */\ntag_26:\n    /* \"#utility.yul\":346:423   */\n  0x4e487b7100000000000000000000000000000000000000000000000000000000\n    /* \"#utility.yul\":343:344   */\n  0x00\n    /* \"#utility.yul\":336:424   */\n  mstore\n    /* \"#utility.yul\":443:447   */\n  0x22\n    /* \"#utility.yul\":440:441   */\n  0x04\n    /* \"#utility.yul\":433:448   */\n  mstore\n    /* \"#utility.yul\":467:471   */\n  0x24\n    /* \"#utility.yul\":464:465   */\n  0x00\n    /* \"#utility.yul\":457:472   */\n  revert\n    /* \"#utility.yul\":484:804   */\ntag_17:\n    /* \"#utility.yul\":528:534   */\n  0x00\n    /* \"#utility.yul\":565:566   */\n  0x02\n    /* \"#utility.yul\":559:563   */\n  dup3\n    /* \"#utility.yul\":555:567   */\n  div\n    /* \"#utility.yul\":545:567   */\n  swap1\n  pop\n    /* \"#utility.yul\":612:613   */\n  0x01\n    /* \"#utility.yul\":606:610   */\n  dup3\n    /* \"#utility.yul\":602:614   */\n  and\n    /* \"#utility.yul\":633:651   */\n  dup1\n    /* \"#utility.yul\":623:704   */\n  tag_48\n  jumpi\n    /* \"#utility.yul\":689:693   */\n  0x7f\n    /* \"#utility.yul\":681:687   */\n  dup3\n    /* \"#utility.yul\":677:694   */\n  and\n    /* \"#utility.yul\":667:694   */\n  swap2\n  pop\n    /* \"#utility.yul\":623:704   */\ntag_48:\n    /* \"#utility.yul\":751:753   */\n  0x20\n    /* \"#utility.yul\":743:749   */\n  dup3\n    /* \"#utility.yul\":740:754   */\n  lt\n    /* \"#utility.yul\":720:738   */\n  dup2\n    /* \"#utility.yul\":717:755   */\n  sub\n    /* \"#utility.yul\":714:798   */\n  tag_49\n  jumpi\n    /* \"#utility.yul\":770:788   */\n  tag_50\n  tag_26\n  jump\t// in\ntag_50:\n    /* \"#utility.yul\":714:798   */\ntag_49:\n    /* \"#utility.yul\":535:804   */\n  pop\n    /* \"#utility.yul\":484:804   */\n  swap2\n  swap1\n  pop\n  jump\t// out\n    /* \"#utility.yul\":810:951   */\ntag_27:\n    /* \"#utility.yul\":859:863   */\n  0x00\n    /* \"#utility.yul\":882:885   */\n  dup2\n    /* \"#utility.yul\":874:885   */\n  swap1\n  pop\n    /* \"#utility.yul\":905:908   */\n  dup2\n    /* \"#utility.yul\":902:903   */\n  0x00\n    /* \"#utility.yul\":895:909   */\n  mstore\n    /* \"#utility.yul\":939:943   */\n  0x20\n    /* \"#utility.yul\":936:937   */\n  0x00\n    /* \"#utility.yul\":926:944   */\n  keccak256\n    /* \"#utility.yul\":918:944   */\n  swap1\n  pop\n    /* \"#utility.yul\":810:951   */\n  swap2\n  swap1\n  pop\n  jump\t// out\n    /* \"#utility.yul\":957:1050   */\ntag_28:\n    /* \"#utility.yul\":994:1000   */\n  0x00\n    /* \"#utility.yul\":1041:1043   */\n  0x20\n    /* \"#utility.yul\":1036:1038   */\n  0x1f\n    /* \"#utility.yul\":1029:1034   */\n  dup4\n    /* \"#utility.yul\":1025:1039   */\n  add\n    /* \"#utility.yul\":1021:1044   */\n  div\n    /* \"#utility.yul\":1011:1044   */\n  swap1\n  pop\n    /* \"#utility.yul\":957:1050   */\n  swap2\n  swap1\n  pop\n  jump\t// out\n    /* \"#utility.yul\":1056:1163   */\ntag_29:\n    /* \"#utility.yul\":1100:1108   */\n  0x00\n    /* \"#utility.yul\":1150:1155   */\n  dup3\n    /* \"#utility.yul\":1144:1148   */\n  dup3\n    /* \"#utility.yul\":1140:1156   */\n  shl\n    /* \"#utility.yul\":1119:1156   */\n  swap1\n  pop\n    /* \"#utility.yul\":1056:1163   */\n  swap3\n  swap2\n  pop\n  pop\n  jump\t// out\n    /* \"#utility.yul\":1169:1562   */\ntag_30:\n    /* \"#utility.yul\":1238:1244   */\n  0x00\n    /* \"#utility.yul\":1288:1289   */\n  0x08\n    /* \"#utility.yul\":1276:1286   */\n  dup4\n    /* \"#utility.yul\":1272:1290   */\n  mul\n    /* \"#utility.yul\":1311:1408   */\n  tag_55\n    /* \"#utility.yul\":1341:1407   */\n  0xffffffffffffffffffffffffffffffffffffffffffffffffffffffffffffffff\n    /* \"#utility.yul\":1330:1339   */\n  dup3\n    /* \"#utility.yul\":1311:1408   */\n  tag_29\n  jump\t// in\ntag_55:\n    /* \"#utility.yul\":1429:1468   */\n  tag_56\n    /* \"#utility.yul\":1459:1467   */\n  dup7\n    /* \"#utility.yul\":1448:1457   */\n  dup4\n    /* \"#utility.yul\":1429:1468   */\n  tag_29\n  jump\t// in\ntag_56:\n    /* \"#utility.yul\":1417:1468   */\n  swap6\n  pop\n    /* \"#utility.yul\":1501:1505   */\n  dup1\n    /* \"#utility.yul\":1497:1506   */\n  not\n    /* \"#utility.yul\":1490:1495   */\n  dup5\n    /* \"#utility.yul\":1486:1507   */\n  and\n    /* \"#utility.yul\":1477:1507   */\n  swap4\n  pop\n    /* \"#utility.yul\":1550:1554   */\n  dup1\n    /* \"#utility.yul\":1540:1548   */\n  dup7\n    /* \"#utility.yul\":1536:1555   */\n  and\n    /* \"#utility.yul\":1529:1534   */\n  dup5\n    /* \"#utility.yul\":1526:1556   */\n  or\n    /* \"#utility.yul\":1516:1556   */\n  swap3\n  pop\n    /* \"#utility.yul\":1245:1562   */\n  pop\n  pop\n    /* \"#utility.yul\":1169:1562   */\n  swap4\n  swap3\n  pop\n  pop\n  pop\n  jump\t// out\n    /* \"#utility.yul\":1568:1645   */\ntag_31:\n    /* \"#utility.yul\":1605:1612   */\n  0x00\n    /* \"#utility.yul\":1634:1639   */\n  dup2\n    /* \"#utility.yul\":1623:1639   */\n  swap1\n  pop\n    /* \"#utility.yul\":1568:1645   */\n  swap2\n  swap1\n  pop\n  jump\t// out\n    /* \"#utility.yul\":1651:1711   */\ntag_32:\n    /* \"#utility.yul\":1679:1682   */\n  0x00\n    /* \"#utility.yul\":1700:1705   */\n  dup2\n    /* \"#utility.yul\":1693:1705   */\n  swap1\n  pop\n    /* \"#utility.yul\":1651:1711   */\n  swap2\n  swap1\n  pop\n  jump\t// out\n    /* \"#utility.yul\":1717:1859   */\ntag_33:\n    /* \"#utility.yul\":1767:1776   */\n  0x00\n    /* \"#utility.yul\":1800:1853   */\n  tag_60\n    /* \"#utility.yul\":1818:1852   */\n  tag_61\n    /* \"#utility.yul\":1827:1851   */\n  tag_62\n    /* \"#utility.yul\":1845:1850   */\n  dup5\n    /* \"#utility.yul\":1827:1851   */\n  tag_31\n  jump\t// in\ntag_62:\n    /* \"#utility.yul\":1818:1852   */\n  tag_32\n  jump\t// in\ntag_61:\n    /* \"#utility.yul\":1800:1853   */\n  tag_31\n  jump\t// in\ntag_60:\n    /* \"#utility.yul\":1787:1853   */\n  swap1\n  pop\n    /* \"#utility.yul\":1717:1859   */\n  swap2\n  swap1\n  pop\n  jump\t// out\n    /* \"#utility.yul\":1865:1940   */\ntag_34:\n    /* \"#utility.yul\":1908:1911   */\n  0x00\n    /* \"#utility.yul\":1929:1934   */\n  dup2\n    /* \"#utility.yul\":1922:1934   */\n  swap1\n  pop\n    /* \"#utility.yul\":1865:1940   */\n  swap2\n  swap1\n  pop\n  jump\t// out\n    /* \"#utility.yul\":1946:2215   */\ntag_35:\n    /* \"#utility.yul\":2056:2095   */\n  tag_65\n    /* \"#utility.yul\":2087:2094   */\n  dup4\n    /* \"#utility.yul\":2056:2095   */\n  tag_33\n  jump\t// in\ntag_65:\n    /* \"#utility.yul\":2117:2208   */\n  tag_66\n    /* \"#utility.yul\":2166:2207   */\n  tag_67\n    /* \"#utility.yul\":2190:2206   */\n  dup3\n    /* \"#utility.yul\":2166:2207   */\n  tag_34\n  jump\t// in\ntag_67:\n    /* \"#utility.yul\":2158:2164   */\n  dup5\n    /* \"#utility.yul\":2151:2155   */\n  dup5\n    /* \"#utility.yul\":2145:2156   */\n  sload\n    /* \"#utility.yul\":2117:2208   */\n  tag_30\n  jump\t// in\ntag_66:\n    /* \"#utility.yul\":2111:2115   */\n  dup3\n    /* \"#utility.yul\":2104:2209   */\n  sstore\n    /* \"#utility.yul\":2022:2215   */\n  pop\n    /* \"#utility.yul\":1946:2215   */\n  pop\n  pop\n  pop\n  jump\t// out\n    /* \"#utility.yul\":2221:2294   */\ntag_36:\n    /* \"#utility.yul\":2266:2269   */\n  0x00\n    /* \"#utility.yul\":2221:2294   */\n  swap1\n  jump\t// out\n    /* \"#utility.yul\":2300:2489   */\ntag_37:\n    /* \"#utility.yul\":2377:2409   */\n  tag_70\n  tag_36\n  jump\t// in\ntag_70:\n    /* \"#utility.yul\":2418:2483   */\n  tag_71\n    /* \"#utility.yul\":2476:2482   */\n  dup2\n    /* \"#utility.yul\":2468:2474   */\n  dup5\n    /* \"#utility.yul\":2462:2466   */\n  dup5\n    /* \"#utility.yul\":2418:2483   */\n  tag_35\n  jump\t// in\ntag_71:\n    /* \"#utility.yul\":2353:2489   */\n  pop\n    /* \"#utility.yul\":2300:2489   */\n  pop\n  pop\n  jump\t// out\n    /* \"#utility.yul\":2495:2681   */\ntag_38:\n    /* \"#utility.yul\":2555:2675   */\ntag_73:\n    /* \"#utility.yul\":2572:2575   */\n  dup2\n    /* \"#utility.yul\":2565:2570   */\n  dup2\n    /* \"#utility.yul\":2562:2576   */\n  lt\n    /* \"#utility.yul\":2555:2675   */\n  iszero\n  tag_75\n  jumpi\n    /* \"#utility.yul\":2626:2665   */\n  tag_76\n    /* \"#utility.yul\":2663:2664   */\n  0x00\n    /* \"#utility.yul\":2656:2661   */\n  dup3\n    /* \"#utility.yul\":2626:2665   */\n  tag_37\n  jump\t// in\ntag_76:\n    /* \"#utility.yul\":2599:2600   */\n  0x01\n    /* \"#utility.yul\":2592:2597   */\n  dup2\n    /* \"#utility.yul\":2588:2601   */\n  add\n    /* \"#utility.yul\":2579:2601   */\n  swap1\n  pop\n    /* \"#utility.yul\":2555:2675   */\n  jump(tag_73)\ntag_75:\n    /* \"#utility.yul\":2495:2681   */\n  pop\n  pop\n  jump\t// out\n    /* \"#utility.yul\":2687:3230   */\ntag_39:\n    /* \"#utility.yul\":2788:2790   */\n  0x1f\n    /* \"#utility.yul\":2783:2786   */\n  dup3\n    /* \"#utility.yul\":2780:2791   */\n  gt\n    /* \"#utility.yul\":2777:3223   */\n  iszero\n  tag_78\n  jumpi\n    /* \"#utility.yul\":2822:2860   */\n  tag_79\n    /* \"#utility.yul\":2854:2859   */\n  dup2\n    /* \"#utility.yul\":2822:2860   */\n  tag_27\n  jump\t// in\ntag_79:\n    /* \"#utility.yul\":2906:2935   */\n  tag_80\n    /* \"#utility.yul\":2924:2934   */\n  dup5\n    /* \"#utility.yul\":2906:2935   */\n  tag_28\n  jump\t// in\ntag_80:\n    /* \"#utility.yul\":2896:2904   */\n  dup2\n    /* \"#utility.yul\":2892:2936   */\n  add\n    /* \"#utility.yul\":3089:3091   */\n  0x20\n    /* \"#utility.yul\":3077:3087   */\n  dup6\n    /* \"#utility.yul\":3074:3092   */\n  lt\n    /* \"#utility.yul\":3071:3120   */\n  iszero\n  tag_81\n  jumpi\n    /* \"#utility.yul\":3110:3118   */\n  dup2\n    /* \"#utility.yul\":3095:3118   */\n  swap1\n  pop\n    /* \"#utility.yul\":3071:3120   */\ntag_81:\n    /* \"#utility.yul\":3133:3213   */\n  tag_82\n    /* \"#utility.yul\":3189:3211   */\n  tag_83\n    /* \"#utility.yul\":3207:3210   */\n  dup6\n    /* \"#utility.yul\":3189:3211   */\n  tag_28\n  jump\t// in\ntag_83:\n    /* \"#utility.yul\":3179:3187   */\n  dup4\n    /* \"#utility.yul\":3175:3212   */\n  add\n    /* \"#utility.yul\":3162:3173   */\n  dup3\n    /* \"#utility.yul\":3133:3213   */\n  tag_38\n  jump\t// in\ntag_82:\n    /* \"#utility.yul\":2792:3223   */\n  pop\n  pop\n    /* \"#utility.yul\":2777:3223   */\ntag_78:\n    /* \"#utility.yul\":2687:3230   */\n  pop\n  pop\n  pop\n  jump\t// out\n    /* \"#utility.yul\":3236:3353   */\ntag_40:\n    /* \"#utility.yul\":3290:3298   */\n  0x00\n    /* \"#utility.yul\":3340:3345   */\n  dup3\n    /* \"#utility.yul\":3334:3338   */\n  dup3\n    /* \"#utility.yul\":3330:3346   */\n  shr\n    /* \"#utility.yul\":3309:3346   */\n  swap1\n  pop\n    /* \"#utility.yul\":3236:3353   */\n  swap3\n  swap2\n  pop\n  pop\n  jump\t// out\n    /* \"#utility.yul\":3359:3528   */\ntag_41:\n    /* \"#utility.yul\":3403:3409   */\n  0x00\n    /* \"#utility.yul\":3436:3487   */\n  tag_86\n    /* \"#utility.yul\":3484:3485   */\n  0x00\n    /* \"#utility.yul\":3480:3486   */\n  not\n    /* \"#utility.yul\":3472:3477   */\n  dup5\n    /* \"#utility.yul\":3469:3470   */\n  0x08\n    /* \"#utility.yul\":3465:3478   */\n  mul\n    /* \"#utility.yul\":3436:3487   */\n  tag_40\n  jump\t// in\ntag_86:\n    /* \"#utility.yul\":3432:3488   */\n  not\n    /* \"#utility.yul\":3517:3521   */\n  dup1\n    /* \"#utility.yul\":3511:3515   */\n  dup4\n    /* \"#utility.yul\":3507:3522   */\n  and\n    /* \"#utility.yul\":3497:3522   */\n  swap2\n  pop\n    /* \"#utility.yul\":3410:3528   */\n  pop\n    /* \"#utility.yul\":3359:3528   */\n  swap3\n  swap2\n  pop\n  pop\n  jump\t// out\n    /* \"#utility.yul\":3533:3828   */\ntag_42:\n    /* \"#utility.yul\":3609:3613   */\n  0x00\n    /* \"#utility.yul\":3755:3784   */\n  tag_88\n    /* \"#utility.yul\":3780:3783   */\n  dup4\n    /* \"#utility.yul\":3774:3778   */\n  dup4\n    /* \"#utility.yul\":3755:3784   */\n  tag_41\n  jump\t// in\ntag_88:\n    /* \"#utility.yul\":3747:3784   */\n  swap2\n  pop\n    /* \"#utility.yul\":3817:3820   */\n  dup3\n    /* \"#utility.yul\":3814:3815   */\n  0x02\n    /* \"#utility.yul\":3810:3821   */\n  mul\n    /* \"#utility.yul\":3804:3808   */\n  dup3\n    /* \"#utility.yul\":3801:3822   */\n  or\n    /* \"#utility.yul\":3793:3822   */\n  swap1\n  pop\n    /* \"#utility.yul\":3533:3828   */\n  swap3\n  swap2\n  pop\n  pop\n  jump\t// out\n    /* \"#utility.yul\":3833:5228   */\ntag_9:\n    /* \"#utility.yul\":3950:3987   */\n  tag_90\n    /* \"#utility.yul\":3983:3986   */\n  dup3\n    /* \"#utility.yul\":3950:3987   */\n  tag_24\n  jump\t// in\ntag_90:\n    /* \"#utility.yul\":4052:4070   */\n  0xffffffffffffffff\n    /* \"#utility.yul\":4044:4050   */\n  dup2\n    /* \"#utility.yul\":4041:4071   */\n  gt\n    /* \"#utility.yul\":4038:4094   */\n  iszero\n  tag_91\n  jumpi\n    /* \"#utility.yul\":4074:4092   */\n  tag_92\n  tag_25\n  jump\t// in\ntag_92:\n    /* \"#utility.yul\":4038:4094   */\ntag_91:\n    /* \"#utility.yul\":4118:4156   */\n  tag_93\n    /* \"#utility.yul\":4150:4154   */\n  dup3\n    /* \"#utility.yul\":4144:4155   */\n  sload\n    /* \"#utility.yul\":4118:4156   */\n  tag_17\n  jump\t// in\ntag_93:\n    /* \"#utility.yul\":4203:4270   */\n  tag_94\n    /* \"#utility.yul\":4263:4269   */\n  dup3\n    /* \"#utility.yul\":4255:4261   */\n  dup3\n    /* \"#utility.yul\":4249:4253   */\n  dup6\n    /* \"#utility.yul\":4203:4270   */\n  tag_39\n  jump\t// in\ntag_94:\n    /* \"#utility.yul\":4297:4298   */\n  0x00\n    /* \"#utility.yul\":4321:4325   */\n  0x20\n    /* \"#utility.yul\":4308:4325   */\n  swap1\n  pop\n    /* \"#utility.yul\":4353:4355   */\n  0x1f\n    /* \"#utility.yul\":4345:4351   */\n  dup4\n    /* \"#utility.yul\":4342:4356   */\n  gt\n    /* \"#utility.yul\":4370:4371   */\n  0x01\n    /* \"#utility.yul\":4365:4983   */\n  dup2\n  eq\n  tag_96\n  jumpi\n    /* \"#utility.yul\":5027:5028   */\n  0x00\n    /* \"#utility.yul\":5044:5050   */\n  dup5\n    /* \"#utility.yul\":5041:5118   */\n  iszero\n  tag_97\n  jumpi\n    /* \"#utility.yul\":5093:5102   */\n  dup3\n    /* \"#utility.yul\":5088:5091   */\n  dup8\n    /* \"#utility.yul\":5084:5103   */\n  add\n    /* \"#utility.yul\":5078:5104   */\n  mload\n    /* \"#utility.yul\":5069:5104   */\n  swap1\n  pop\n    /* \"#utility.yul\":5041:5118   */\ntag_97:\n    /* \"#utility.yul\":5144:5211   */\n  tag_98\n    /* \"#utility.yul\":5204:5210   */\n  dup6\n    /* \"#utility.yul\":5197:5202   */\n  dup3\n    /* \"#utility.yul\":5144:5211   */\n  tag_42\n  jump\t// in\ntag_98:\n    /* \"#utility.yul\":5138:5142   */\n  dup7\n    /* \"#utility.yul\":5131:5212   */\n  sstore\n    /* \"#utility.yul\":5000:5222   */\n  pop\n    /* \"#utility.yul\":4335:5222   */\n  jump(tag_95)\n    /* \"#utility.yul\":4365:4983   */\ntag_96:\n    /* \"#utility.yul\":4417:4421   */\n  0x1f\n    /* \"#utility.yul\":4413:4422   */\n  not\n    /* \"#utility.yul\":4405:4411   */\n  dup5\n    /* \"#utility.yul\":4401:4423   */\n  and\n    /* \"#utility.yul\":4451:4488   */\n  tag_99\n    /* \"#utility.yul\":4483:4487   */\n  dup7\n    /* \"#utility.yul\":4451:4488   */\n  tag_27\n  jump\t// in\ntag_99:\n    /* \"#utility.yul\":4510:4511   */\n  0x00\n    /* \"#utility.yul\":4524:4732   */\ntag_100:\n    /* \"#utility.yul\":4538:4545   */\n  dup3\n    /* \"#utility.yul\":4535:4536   */\n  dup2\n    /* \"#utility.yul\":4532:4546   */\n  lt\n    /* \"#utility.yul\":4524:4732   */\n  iszero\n  tag_102\n  jumpi\n    /* \"#utility.yul\":4617:4626   */\n  dup5\n    /* \"#utility.yul\":4612:4615   */\n  dup10\n    /* \"#utility.yul\":4608:4627   */\n  add\n    /* \"#utility.yul\":4602:4628   */\n  mload\n    /* \"#utility.yul\":4594:4600   */\n  dup3\n    /* \"#utility.yul\":4587:4629   */\n  sstore\n    /* \"#utility.yul\":4668:4669   */\n  0x01\n    /* \"#utility.yul\":4660:4666   */\n  dup3\n    /* \"#utility.yul\":4656:4670   */\n  add\n    /* \"#utility.yul\":4646:4670   */\n  swap2\n  pop\n    /* \"#utility.yul\":4715:4717   */\n  0x20\n    /* \"#utility.yul\":4704:4713   */\n  dup6\n    /* \"#utility.yul\":4700:4718   */\n  add\n    /* \"#utility.yul\":4687:4718   */\n  swap5\n  pop\n    /* \"#utility.yul\":4561:4565   */\n  0x20\n    /* \"#utility.yul\":4558:4559   */\n  dup2\n    /* \"#utility.yul\":4554:4566   */\n  add\n    /* \"#utility.yul\":4549:4566   */\n  swap1\n  pop\n    /* \"#utility.yul\":4524:4732   */\n  jump(tag_100)\ntag_102:\n    /* \"#utility.yul\":4760:4766   */\n  dup7\n    /* \"#utility.yul\":4751:4758   */\n  dup4\n    /* \"#utility.yul\":4748:4767   */\n  lt\n    /* \"#utility.yul\":4745:4924   */\n  iszero\n  tag_103\n  jumpi\n    /* \"#utility.yul\":4818:4827   */\n  dup5\n    /* \"#utility.yul\":4813:4816   */\n  dup10\n    /* \"#utility.yul\":4809:4828   */\n  add\n    /* \"#utility.yul\":4803:4829   */\n  mload\n    /* \"#utility.yul\":4861:4909   */\n  tag_104\n    /* \"#utility.yul\":4903:4907   */\n  0x1f\n    /* \"#utility.yul\":4895:4901   */\n  dup10\n    /* \"#utility.yul\":4891:4908   */\n  and\n    /* \"#utility.yul\":4880:4889   */\n  dup3\n    /* \"#utility.yul\":4861:4909   */\n  tag_41\n  jump\t// in\ntag_104:\n    /* \"#utility.yul\":4853:4859   */\n  dup4\n    /* \"#utility.yul\":4846:4910   */\n  sstore\n    /* \"#utility.yul\":4768:4924   */\n  pop\n    /* \"#utility.yul\":4745:4924   */\ntag_103:\n    /* \"#utility.yul\":4970:4971   */\n  0x01\n    /* \"#utility.yul\":4966:4967   */\n  0x02\n    /* \"#utility.yul\":4958:4964   */\n  dup9\n    /* \"#utility.yul\":4954:4968   */\n  mul\n    /* \"#utility.yul\":4950:4972   */\n  add\n    /* \"#utility.yul\":4944:4948   */\n  dup9\n    /* \"#utility.yul\":4937:4973   */\n  sstore\n    /* \"#utility.yul\":4372:4983   */\n  pop\n  pop\n  pop\n    /* \"#utility.yul\":4335:5222   */\ntag_95:\n  pop\n    /* \"#utility.yul\":3925:5228   */\n  pop\n  pop\n  pop\n    /* \"#utility.yul\":3833:5228   */\n  pop\n  pop\n  jump\t// out\n    /* \"Basics of Solidity/StoragevsMemory.sol\":61:468  contract Mappings{... */\ntag_4:\n  dataSize(sub_0)\n  dup1\n  dataOffset(sub_0)\n  0x00\n  codecopy\n  0x00\n  return\nstop\n\nsub_0: assembly {\n        /* \"Basics of Solidity/StoragevsMemory.sol\":61:468  contract Mappings{... */\n      mstore(0x40, 0x80)\n      callvalue\n      dup1\n      iszero\n      tag_1\n      jumpi\n      0x00\n      dup1\n      revert\n    tag_1:\n      pop\n      jumpi(tag_2, lt(calldatasize, 0x04))\n      shr(0xe0, calldataload(0x00))\n      dup1\n      0x06ead22e\n      eq\n      tag_3\n      jumpi\n      dup1\n      0x3f3108f7\n      eq\n      tag_4\n      jumpi\n      dup1\n      0x975057e7\n      eq\n      tag_5\n      jumpi\n    tag_2:\n      0x00\n      dup1\n      revert\n        /* \"Basics of Solidity/StoragevsMemory.sol\":91:147  string[] public students = ['Pulkit' , 'Milli' , 'Anil'] */\n    tag_3:\n      tag_6\n      0x04\n      dup1\n      calldatasize\n      sub\n      dup2\n      add\n      swap1\n      tag_7\n      swap2\n      swap1\n      tag_8\n      jump\t// in\n    tag_7:\n      tag_9\n      jump\t// in\n    tag_6:\n      mload(0x40)\n      tag_10\n      swap2\n      swap1\n      tag_11\n      jump\t// in\n    tag_10:\n      mload(0x40)\n      dup1\n      swap2\n      sub\n      swap1\n      return\n        /* \"Basics of Solidity/StoragevsMemory.sol\":191:294  function setter() public view{... */\n    tag_4:\n      tag_12\n      tag_13\n      jump\t// in\n    tag_12:\n      stop\n        /* \"Basics of Solidity/StoragevsMemory.sol\":361:459  function store() public{... */\n    tag_5:\n      tag_14\n      tag_15\n      jump\t// in\n    tag_14:\n      stop\n        /* \"Basics of Solidity/StoragevsMemory.sol\":91:147  string[] public students = ['Pulkit' , 'Milli' , 'Anil'] */\n    tag_9:\n      0x00\n      dup2\n      dup2\n      sload\n      dup2\n      lt\n      tag_16\n      jumpi\n      0x00\n      dup1\n      revert\n    tag_16:\n      swap1\n      0x00\n      mstore\n      keccak256(0x00, 0x20)\n      add\n      0x00\n      swap2\n      pop\n      swap1\n      pop\n      dup1\n      sload\n      tag_18\n      swap1\n      tag_19\n      jump\t// in\n    tag_18:\n      dup1\n      0x1f\n      add\n      0x20\n      dup1\n      swap2\n      div\n      mul\n      0x20\n      add\n      mload(0x40)\n      swap1\n      dup2\n      add\n      0x40\n      mstore\n      dup1\n      swap3\n      swap2\n      swap1\n      dup2\n      dup2\n      mstore\n      0x20\n      add\n      dup3\n      dup1\n      sload\n      tag_20\n      swap1\n      tag_19\n      jump\t// in\n    tag_20:\n      dup1\n      iszero\n      tag_21\n      jumpi\n      dup1\n      0x1f\n      lt\n      tag_22\n      jumpi\n      0x0100\n      dup1\n      dup4\n      sload\n      div\n      mul\n      dup4\n      mstore\n      swap2\n      0x20\n      add\n      swap2\n      jump(tag_21)\n    tag_22:\n      dup3\n      add\n      swap2\n      swap1\n      0x00\n      mstore\n      keccak256(0x00, 0x20)\n      swap1\n    tag_23:\n      dup2\n      sload\n      dup2\n      mstore\n      swap1\n      0x01\n      add\n      swap1\n      0x20\n      add\n      dup1\n      dup4\n      gt\n      tag_23\n      jumpi\n      dup3\n      swap1\n      sub\n      0x1f\n      and\n      dup3\n      add\n      swap2\n    tag_21:\n      pop\n      pop\n      pop\n      pop\n      pop\n      dup2\n      jump\t// out\n        /* \"Basics of Solidity/StoragevsMemory.sol\":191:294  function setter() public view{... */\n    tag_13:\n        /* \"Basics of Solidity/StoragevsMemory.sol\":231:249  string[] memory s1 */\n      0x00\n        /* \"Basics of Solidity/StoragevsMemory.sol\":252:260  students */\n      dup1\n        /* \"Basics of Solidity/StoragevsMemory.sol\":231:260  string[] memory s1 = students */\n      dup1\n      sload\n      dup1\n      0x20\n      mul\n      0x20\n      add\n      mload(0x40)\n      swap1\n      dup2\n      add\n      0x40\n      mstore\n      dup1\n      swap3\n      swap2\n      swap1\n      dup2\n      dup2\n      mstore\n      0x20\n      add\n      0x00\n      swap1\n    tag_25:\n      dup3\n      dup3\n      lt\n      iszero\n      tag_26\n      jumpi\n      dup4\n      dup3\n      swap1\n      0x00\n      mstore\n      keccak256(0x00, 0x20)\n      add\n      dup1\n      sload\n      tag_28\n      swap1\n      tag_19\n      jump\t// in\n    tag_28:\n      dup1\n      0x1f\n      add\n      0x20\n      dup1\n      swap2\n      div\n      mul\n      0x20\n      add\n      mload(0x40)\n      swap1\n      dup2\n      add\n      0x40\n      mstore\n      dup1\n      swap3\n      swap2\n      swap1\n      dup2\n      dup2\n      mstore\n      0x20\n      add\n      dup3\n      dup1\n      sload\n      tag_29\n      swap1\n      tag_19\n      jump\t// in\n    tag_29:\n      dup1\n      iszero\n      tag_30\n      jumpi\n      dup1\n      0x1f\n      lt\n      tag_31\n      jumpi\n      0x0100\n      dup1\n      dup4\n      sload\n      div\n      mul\n      dup4\n      mstore\n      swap2\n      0x20\n      add\n      swap2\n      jump(tag_30)\n    tag_31:\n      dup3\n      add\n      swap2\n      swap1\n      0x00\n      mstore\n      keccak256(0x00, 0x20)\n      swap1\n    tag_32:\n      dup2\n      sload\n      dup2\n      mstore\n      swap1\n      0x01\n      add\n      swap1\n      0x20\n      add\n      dup1\n      dup4\n      gt\n      tag_32\n      jumpi\n      dup3\n      swap1\n      sub\n      0x1f\n      and\n      dup3\n      add\n      swap2\n    tag_30:\n      pop\n      pop\n      pop\n      pop\n      pop\n      dup2\n      mstore\n      0x20\n      add\n      swap1\n      0x01\n      add\n      swap1\n      jump(tag_25)\n    tag_26:\n      pop\n      pop\n      pop\n      pop\n      swap1\n      pop\n        /* \"Basics of Solidity/StoragevsMemory.sol\":271:286  s1[0] = 'Seema' */\n      mload(0x40)\n      dup1\n      0x40\n      add\n      0x40\n      mstore\n      dup1\n      0x05\n      dup2\n      mstore\n      0x20\n      add\n      0x5365656d61000000000000000000000000000000000000000000000000000000\n      dup2\n      mstore\n      pop\n        /* \"Basics of Solidity/StoragevsMemory.sol\":271:273  s1 */\n      dup2\n        /* \"Basics of Solidity/StoragevsMemory.sol\":274:275  0 */\n      0x00\n        /* \"Basics of Solidity/StoragevsMemory.sol\":271:276  s1[0] */\n      dup2\n      mload\n      dup2\n      lt\n      tag_33\n      jumpi\n      tag_34\n      tag_35\n      jump\t// in\n    tag_34:\n    tag_33:\n      0x20\n      mul\n      0x20\n      add\n      add\n        /* \"Basics of Solidity/StoragevsMemory.sol\":271:286  s1[0] = 'Seema' */\n      dup2\n      swap1\n      mstore\n      pop\n        /* \"Basics of Solidity/StoragevsMemory.sol\":220:294  {... */\n      pop\n        /* \"Basics of Solidity/StoragevsMemory.sol\":191:294  function setter() public view{... */\n      jump\t// out\n        /* \"Basics of Solidity/StoragevsMemory.sol\":361:459  function store() public{... */\n    tag_15:\n        /* \"Basics of Solidity/StoragevsMemory.sol\":395:414  string[] storage s1 */\n      0x00\n        /* \"Basics of Solidity/StoragevsMemory.sol\":436:451  s1[0] = 'Seema' */\n      mload(0x40)\n      dup1\n      0x40\n      add\n      0x40\n      mstore\n      dup1\n      0x05\n      dup2\n      mstore\n      0x20\n      add\n      0x5365656d61000000000000000000000000000000000000000000000000000000\n      dup2\n      mstore\n      pop\n        /* \"Basics of Solidity/StoragevsMemory.sol\":436:438  s1 */\n      dup2\n        /* \"Basics of Solidity/StoragevsMemory.sol\":439:440  0 */\n      0x00\n        /* \"Basics of Solidity/StoragevsMemory.sol\":436:441  s1[0] */\n      dup2\n      sload\n      dup2\n      lt\n      tag_37\n      jumpi\n      tag_38\n      tag_35\n      jump\t// in\n    tag_38:\n    tag_37:\n      swap1\n      0x00\n      mstore\n      keccak256(0x00, 0x20)\n      add\n        /* \"Basics of Solidity/StoragevsMemory.sol\":436:451  s1[0] = 'Seema' */\n      swap1\n      dup2\n      tag_40\n      swap2\n      swap1\n      tag_41\n      jump\t// in\n    tag_40:\n      pop\n        /* \"Basics of Solidity/StoragevsMemory.sol\":384:459  {... */\n      pop\n        /* \"Basics of Solidity/StoragevsMemory.sol\":361:459  function store() public{... */\n      jump\t// out\n        /* \"#utility.yul\":88:205   */\n    tag_43:\n        /* \"#utility.yul\":197:198   */\n      0x00\n        /* \"#utility.yul\":194:195   */\n      dup1\n        /* \"#utility.yul\":187:199   */\n      revert\n        /* \"#utility.yul\":334:411   */\n    tag_45:\n        /* \"#utility.yul\":371:378   */\n      0x00\n        /* \"#utility.yul\":400:405   */\n      dup2\n        /* \"#utility.yul\":389:405   */\n      swap1\n      pop\n        /* \"#utility.yul\":334:411   */\n      swap2\n      swap1\n      pop\n      jump\t// out\n        /* \"#utility.yul\":417:539   */\n    tag_46:\n        /* \"#utility.yul\":490:514   */\n      tag_76\n        /* \"#utility.yul\":508:513   */\n      dup2\n        /* \"#utility.yul\":490:514   */\n      tag_45\n      jump\t// in\n    tag_76:\n        /* \"#utility.yul\":483:488   */\n      dup2\n        /* \"#utility.yul\":480:515   */\n      eq\n        /* \"#utility.yul\":470:533   */\n      tag_77\n      jumpi\n        /* \"#utility.yul\":529:530   */\n      0x00\n        /* \"#utility.yul\":526:527   */\n      dup1\n        /* \"#utility.yul\":519:531   */\n      revert\n        /* \"#utility.yul\":470:533   */\n    tag_77:\n        /* \"#utility.yul\":417:539   */\n      pop\n      jump\t// out\n        /* \"#utility.yul\":545:684   */\n    tag_47:\n        /* \"#utility.yul\":591:596   */\n      0x00\n        /* \"#utility.yul\":629:635   */\n      dup2\n        /* \"#utility.yul\":616:636   */\n      calldataload\n        /* \"#utility.yul\":607:636   */\n      swap1\n      pop\n        /* \"#utility.yul\":645:678   */\n      tag_79\n        /* \"#utility.yul\":672:677   */\n      dup2\n        /* \"#utility.yul\":645:678   */\n      tag_46\n      jump\t// in\n    tag_79:\n        /* \"#utility.yul\":545:684   */\n      swap3\n      swap2\n      pop\n      pop\n      jump\t// out\n        /* \"#utility.yul\":690:1019   */\n    tag_8:\n        /* \"#utility.yul\":749:755   */\n      0x00\n        /* \"#utility.yul\":798:800   */\n      0x20\n        /* \"#utility.yul\":786:795   */\n      dup3\n        /* \"#utility.yul\":777:784   */\n      dup5\n        /* \"#utility.yul\":773:796   */\n      sub\n        /* \"#utility.yul\":769:801   */\n      slt\n        /* \"#utility.yul\":766:885   */\n      iszero\n      tag_81\n      jumpi\n        /* \"#utility.yul\":804:883   */\n      tag_82\n      tag_43\n      jump\t// in\n    tag_82:\n        /* \"#utility.yul\":766:885   */\n    tag_81:\n        /* \"#utility.yul\":924:925   */\n      0x00\n        /* \"#utility.yul\":949:1002   */\n      tag_83\n        /* \"#utility.yul\":994:1001   */\n      dup5\n        /* \"#utility.yul\":985:991   */\n      dup3\n        /* \"#utility.yul\":974:983   */\n      dup6\n        /* \"#utility.yul\":970:992   */\n      add\n        /* \"#utility.yul\":949:1002   */\n      tag_47\n      jump\t// in\n    tag_83:\n        /* \"#utility.yul\":939:1002   */\n      swap2\n      pop\n        /* \"#utility.yul\":895:1012   */\n      pop\n        /* \"#utility.yul\":690:1019   */\n      swap3\n      swap2\n      pop\n      pop\n      jump\t// out\n        /* \"#utility.yul\":1025:1124   */\n    tag_48:\n        /* \"#utility.yul\":1077:1083   */\n      0x00\n        /* \"#utility.yul\":1111:1116   */\n      dup2\n        /* \"#utility.yul\":1105:1117   */\n      mload\n        /* \"#utility.yul\":1095:1117   */\n      swap1\n      pop\n        /* \"#utility.yul\":1025:1124   */\n      swap2\n      swap1\n      pop\n      jump\t// out\n        /* \"#utility.yul\":1130:1299   */\n    tag_49:\n        /* \"#utility.yul\":1214:1225   */\n      0x00\n        /* \"#utility.yul\":1248:1254   */\n      dup3\n        /* \"#utility.yul\":1243:1246   */\n      dup3\n        /* \"#utility.yul\":1236:1255   */\n      mstore\n        /* \"#utility.yul\":1288:1292   */\n      0x20\n        /* \"#utility.yul\":1283:1286   */\n      dup3\n        /* \"#utility.yul\":1279:1293   */\n      add\n        /* \"#utility.yul\":1264:1293   */\n      swap1\n      pop\n        /* \"#utility.yul\":1130:1299   */\n      swap3\n      swap2\n      pop\n      pop\n      jump\t// out\n        /* \"#utility.yul\":1305:1551   */\n    tag_50:\n        /* \"#utility.yul\":1386:1387   */\n      0x00\n        /* \"#utility.yul\":1396:1509   */\n    tag_87:\n        /* \"#utility.yul\":1410:1416   */\n      dup4\n        /* \"#utility.yul\":1407:1408   */\n      dup2\n        /* \"#utility.yul\":1404:1417   */\n      lt\n        /* \"#utility.yul\":1396:1509   */\n      iszero\n      tag_89\n      jumpi\n        /* \"#utility.yul\":1495:1496   */\n      dup1\n        /* \"#utility.yul\":1490:1493   */\n      dup3\n        /* \"#utility.yul\":1486:1497   */\n      add\n        /* \"#utility.yul\":1480:1498   */\n      mload\n        /* \"#utility.yul\":1476:1477   */\n      dup2\n        /* \"#utility.yul\":1471:1474   */\n      dup5\n        /* \"#utility.yul\":1467:1478   */\n      add\n        /* \"#utility.yul\":1460:1499   */\n      mstore\n        /* \"#utility.yul\":1432:1434   */\n      0x20\n        /* \"#utility.yul\":1429:1430   */\n      dup2\n        /* \"#utility.yul\":1425:1435   */\n      add\n        /* \"#utility.yul\":1420:1435   */\n      swap1\n      pop\n        /* \"#utility.yul\":1396:1509   */\n      jump(tag_87)\n    tag_89:\n        /* \"#utility.yul\":1543:1544   */\n      0x00\n        /* \"#utility.yul\":1534:1540   */\n      dup5\n        /* \"#utility.yul\":1529:1532   */\n      dup5\n        /* \"#utility.yul\":1525:1541   */\n      add\n        /* \"#utility.yul\":1518:1545   */\n      mstore\n        /* \"#utility.yul\":1367:1551   */\n      pop\n        /* \"#utility.yul\":1305:1551   */\n      pop\n      pop\n      pop\n      jump\t// out\n        /* \"#utility.yul\":1557:1659   */\n    tag_51:\n        /* \"#utility.yul\":1598:1604   */\n      0x00\n        /* \"#utility.yul\":1649:1651   */\n      0x1f\n        /* \"#utility.yul\":1645:1652   */\n      not\n        /* \"#utility.yul\":1640:1642   */\n      0x1f\n        /* \"#utility.yul\":1633:1638   */\n      dup4\n        /* \"#utility.yul\":1629:1643   */\n      add\n        /* \"#utility.yul\":1625:1653   */\n      and\n        /* \"#utility.yul\":1615:1653   */\n      swap1\n      pop\n        /* \"#utility.yul\":1557:1659   */\n      swap2\n      swap1\n      pop\n      jump\t// out\n        /* \"#utility.yul\":1665:2042   */\n    tag_52:\n        /* \"#utility.yul\":1753:1756   */\n      0x00\n        /* \"#utility.yul\":1781:1820   */\n      tag_92\n        /* \"#utility.yul\":1814:1819   */\n      dup3\n        /* \"#utility.yul\":1781:1820   */\n      tag_48\n      jump\t// in\n    tag_92:\n        /* \"#utility.yul\":1836:1907   */\n      tag_93\n        /* \"#utility.yul\":1900:1906   */\n      dup2\n        /* \"#utility.yul\":1895:1898   */\n      dup6\n        /* \"#utility.yul\":1836:1907   */\n      tag_49\n      jump\t// in\n    tag_93:\n        /* \"#utility.yul\":1829:1907   */\n      swap4\n      pop\n        /* \"#utility.yul\":1916:1981   */\n      tag_94\n        /* \"#utility.yul\":1974:1980   */\n      dup2\n        /* \"#utility.yul\":1969:1972   */\n      dup6\n        /* \"#utility.yul\":1962:1966   */\n      0x20\n        /* \"#utility.yul\":1955:1960   */\n      dup7\n        /* \"#utility.yul\":1951:1967   */\n      add\n        /* \"#utility.yul\":1916:1981   */\n      tag_50\n      jump\t// in\n    tag_94:\n        /* \"#utility.yul\":2006:2035   */\n      tag_95\n        /* \"#utility.yul\":2028:2034   */\n      dup2\n        /* \"#utility.yul\":2006:2035   */\n      tag_51\n      jump\t// in\n    tag_95:\n        /* \"#utility.yul\":2001:2004   */\n      dup5\n        /* \"#utility.yul\":1997:2036   */\n      add\n        /* \"#utility.yul\":1990:2036   */\n      swap2\n      pop\n        /* \"#utility.yul\":1757:2042   */\n      pop\n        /* \"#utility.yul\":1665:2042   */\n      swap3\n      swap2\n      pop\n      pop\n      jump\t// out\n        /* \"#utility.yul\":2048:2361   */\n    tag_11:\n        /* \"#utility.yul\":2161:2165   */\n      0x00\n        /* \"#utility.yul\":2199:2201   */\n      0x20\n        /* \"#utility.yul\":2188:2197   */\n      dup3\n        /* \"#utility.yul\":2184:2202   */\n      add\n        /* \"#utility.yul\":2176:2202   */\n      swap1\n      pop\n        /* \"#utility.yul\":2248:2257   */\n      dup2\n        /* \"#utility.yul\":2242:2246   */\n      dup2\n        /* \"#utility.yul\":2238:2258   */\n      sub\n        /* \"#utility.yul\":2234:2235   */\n      0x00\n        /* \"#utility.yul\":2223:2232   */\n      dup4\n        /* \"#utility.yul\":2219:2236   */\n      add\n        /* \"#utility.yul\":2212:2259   */\n      mstore\n        /* \"#utility.yul\":2276:2354   */\n      tag_97\n        /* \"#utility.yul\":2349:2353   */\n      dup2\n        /* \"#utility.yul\":2340:2346   */\n      dup5\n        /* \"#utility.yul\":2276:2354   */\n      tag_52\n      jump\t// in\n    tag_97:\n        /* \"#utility.yul\":2268:2354   */\n      swap1\n      pop\n        /* \"#utility.yul\":2048:2361   */\n      swap3\n      swap2\n      pop\n      pop\n      jump\t// out\n        /* \"#utility.yul\":2367:2547   */\n    tag_53:\n        /* \"#utility.yul\":2415:2492   */\n      0x4e487b7100000000000000000000000000000000000000000000000000000000\n        /* \"#utility.yul\":2412:2413   */\n      0x00\n        /* \"#utility.yul\":2405:2493   */\n      mstore\n        /* \"#utility.yul\":2512:2516   */\n      0x22\n        /* \"#utility.yul\":2509:2510   */\n      0x04\n        /* \"#utility.yul\":2502:2517   */\n      mstore\n        /* \"#utility.yul\":2536:2540   */\n      0x24\n        /* \"#utility.yul\":2533:2534   */\n      0x00\n        /* \"#utility.yul\":2526:2541   */\n      revert\n        /* \"#utility.yul\":2553:2873   */\n    tag_19:\n        /* \"#utility.yul\":2597:2603   */\n      0x00\n        /* \"#utility.yul\":2634:2635   */\n      0x02\n        /* \"#utility.yul\":2628:2632   */\n      dup3\n        /* \"#utility.yul\":2624:2636   */\n      div\n        /* \"#utility.yul\":2614:2636   */\n      swap1\n      pop\n        /* \"#utility.yul\":2681:2682   */\n      0x01\n        /* \"#utility.yul\":2675:2679   */\n      dup3\n        /* \"#utility.yul\":2671:2683   */\n      and\n        /* \"#utility.yul\":2702:2720   */\n      dup1\n        /* \"#utility.yul\":2692:2773   */\n      tag_100\n      jumpi\n        /* \"#utility.yul\":2758:2762   */\n      0x7f\n        /* \"#utility.yul\":2750:2756   */\n      dup3\n        /* \"#utility.yul\":2746:2763   */\n      and\n        /* \"#utility.yul\":2736:2763   */\n      swap2\n      pop\n        /* \"#utility.yul\":2692:2773   */\n    tag_100:\n        /* \"#utility.yul\":2820:2822   */\n      0x20\n        /* \"#utility.yul\":2812:2818   */\n      dup3\n        /* \"#utility.yul\":2809:2823   */\n      lt\n        /* \"#utility.yul\":2789:2807   */\n      dup2\n        /* \"#utility.yul\":2786:2824   */\n      sub\n        /* \"#utility.yul\":2783:2867   */\n      tag_101\n      jumpi\n        /* \"#utility.yul\":2839:2857   */\n      tag_102\n      tag_53\n      jump\t// in\n    tag_102:\n        /* \"#utility.yul\":2783:2867   */\n    tag_101:\n        /* \"#utility.yul\":2604:2873   */\n      pop\n        /* \"#utility.yul\":2553:2873   */\n      swap2\n      swap1\n      pop\n      jump\t// out\n        /* \"#utility.yul\":2879:3059   */\n    tag_35:\n        /* \"#utility.yul\":2927:3004   */\n      0x4e487b7100000000000000000000000000000000000000000000000000000000\n        /* \"#utility.yul\":2924:2925   */\n      0x00\n        /* \"#utility.yul\":2917:3005   */\n      mstore\n        /* \"#utility.yul\":3024:3028   */\n      0x32\n        /* \"#utility.yul\":3021:3022   */\n      0x04\n        /* \"#utility.yul\":3014:3029   */\n      mstore\n        /* \"#utility.yul\":3048:3052   */\n      0x24\n        /* \"#utility.yul\":3045:3046   */\n      0x00\n        /* \"#utility.yul\":3038:3053   */\n      revert\n        /* \"#utility.yul\":3065:3245   */\n    tag_54:\n        /* \"#utility.yul\":3113:3190   */\n      0x4e487b7100000000000000000000000000000000000000000000000000000000\n        /* \"#utility.yul\":3110:3111   */\n      0x00\n        /* \"#utility.yul\":3103:3191   */\n      mstore\n        /* \"#utility.yul\":3210:3214   */\n      0x41\n        /* \"#utility.yul\":3207:3208   */\n      0x04\n        /* \"#utility.yul\":3200:3215   */\n      mstore\n        /* \"#utility.yul\":3234:3238   */\n      0x24\n        /* \"#utility.yul\":3231:3232   */\n      0x00\n        /* \"#utility.yul\":3224:3239   */\n      revert\n        /* \"#utility.yul\":3251:3392   */\n    tag_55:\n        /* \"#utility.yul\":3300:3304   */\n      0x00\n        /* \"#utility.yul\":3323:3326   */\n      dup2\n        /* \"#utility.yul\":3315:3326   */\n      swap1\n      pop\n        /* \"#utility.yul\":3346:3349   */\n      dup2\n        /* \"#utility.yul\":3343:3344   */\n      0x00\n        /* \"#utility.yul\":3336:3350   */\n      mstore\n        /* \"#utility.yul\":3380:3384   */\n      0x20\n        /* \"#utility.yul\":3377:3378   */\n      0x00\n        /* \"#utility.yul\":3367:3385   */\n      keccak256\n        /* \"#utility.yul\":3359:3385   */\n      swap1\n      pop\n        /* \"#utility.yul\":3251:3392   */\n      swap2\n      swap1\n      pop\n      jump\t// out\n        /* \"#utility.yul\":3398:3491   */\n    tag_56:\n        /* \"#utility.yul\":3435:3441   */\n      0x00\n        /* \"#utility.yul\":3482:3484   */\n      0x20\n        /* \"#utility.yul\":3477:3479   */\n      0x1f\n        /* \"#utility.yul\":3470:3475   */\n      dup4\n        /* \"#utility.yul\":3466:3480   */\n      add\n        /* \"#utility.yul\":3462:3485   */\n      div\n        /* \"#utility.yul\":3452:3485   */\n      swap1\n      pop\n        /* \"#utility.yul\":3398:3491   */\n      swap2\n      swap1\n      pop\n      jump\t// out\n        /* \"#utility.yul\":3497:3604   */\n    tag_57:\n        /* \"#utility.yul\":3541:3549   */\n      0x00\n        /* \"#utility.yul\":3591:3596   */\n      dup3\n        /* \"#utility.yul\":3585:3589   */\n      dup3\n        /* \"#utility.yul\":3581:3597   */\n      shl\n        /* \"#utility.yul\":3560:3597   */\n      swap1\n      pop\n        /* \"#utility.yul\":3497:3604   */\n      swap3\n      swap2\n      pop\n      pop\n      jump\t// out\n        /* \"#utility.yul\":3610:4003   */\n    tag_58:\n        /* \"#utility.yul\":3679:3685   */\n      0x00\n        /* \"#utility.yul\":3729:3730   */\n      0x08\n        /* \"#utility.yul\":3717:3727   */\n      dup4\n        /* \"#utility.yul\":3713:3731   */\n      mul\n        /* \"#utility.yul\":3752:3849   */\n      tag_109\n        /* \"#utility.yul\":3782:3848   */\n      0xffffffffffffffffffffffffffffffffffffffffffffffffffffffffffffffff\n        /* \"#utility.yul\":3771:3780   */\n      dup3\n        /* \"#utility.yul\":3752:3849   */\n      tag_57\n      jump\t// in\n    tag_109:\n        /* \"#utility.yul\":3870:3909   */\n      tag_110\n        /* \"#utility.yul\":3900:3908   */\n      dup7\n        /* \"#utility.yul\":3889:3898   */\n      dup4\n        /* \"#utility.yul\":3870:3909   */\n      tag_57\n      jump\t// in\n    tag_110:\n        /* \"#utility.yul\":3858:3909   */\n      swap6\n      pop\n        /* \"#utility.yul\":3942:3946   */\n      dup1\n        /* \"#utility.yul\":3938:3947   */\n      not\n        /* \"#utility.yul\":3931:3936   */\n      dup5\n        /* \"#utility.yul\":3927:3948   */\n      and\n        /* \"#utility.yul\":3918:3948   */\n      swap4\n      pop\n        /* \"#utility.yul\":3991:3995   */\n      dup1\n        /* \"#utility.yul\":3981:3989   */\n      dup7\n        /* \"#utility.yul\":3977:3996   */\n      and\n        /* \"#utility.yul\":3970:3975   */\n      dup5\n        /* \"#utility.yul\":3967:3997   */\n      or\n        /* \"#utility.yul\":3957:3997   */\n      swap3\n      pop\n        /* \"#utility.yul\":3686:4003   */\n      pop\n      pop\n        /* \"#utility.yul\":3610:4003   */\n      swap4\n      swap3\n      pop\n      pop\n      pop\n      jump\t// out\n        /* \"#utility.yul\":4009:4069   */\n    tag_59:\n        /* \"#utility.yul\":4037:4040   */\n      0x00\n        /* \"#utility.yul\":4058:4063   */\n      dup2\n        /* \"#utility.yul\":4051:4063   */\n      swap1\n      pop\n        /* \"#utility.yul\":4009:4069   */\n      swap2\n      swap1\n      pop\n      jump\t// out\n        /* \"#utility.yul\":4075:4217   */\n    tag_60:\n        /* \"#utility.yul\":4125:4134   */\n      0x00\n        /* \"#utility.yul\":4158:4211   */\n      tag_113\n        /* \"#utility.yul\":4176:4210   */\n      tag_114\n        /* \"#utility.yul\":4185:4209   */\n      tag_115\n        /* \"#utility.yul\":4203:4208   */\n      dup5\n        /* \"#utility.yul\":4185:4209   */\n      tag_45\n      jump\t// in\n    tag_115:\n        /* \"#utility.yul\":4176:4210   */\n      tag_59\n      jump\t// in\n    tag_114:\n        /* \"#utility.yul\":4158:4211   */\n      tag_45\n      jump\t// in\n    tag_113:\n        /* \"#utility.yul\":4145:4211   */\n      swap1\n      pop\n        /* \"#utility.yul\":4075:4217   */\n      swap2\n      swap1\n      pop\n      jump\t// out\n        /* \"#utility.yul\":4223:4298   */\n    tag_61:\n        /* \"#utility.yul\":4266:4269   */\n      0x00\n        /* \"#utility.yul\":4287:4292   */\n      dup2\n        /* \"#utility.yul\":4280:4292   */\n      swap1\n      pop\n        /* \"#utility.yul\":4223:4298   */\n      swap2\n      swap1\n      pop\n      jump\t// out\n        /* \"#utility.yul\":4304:4573   */\n    tag_62:\n        /* \"#utility.yul\":4414:4453   */\n      tag_118\n        /* \"#utility.yul\":4445:4452   */\n      dup4\n        /* \"#utility.yul\":4414:4453   */\n      tag_60\n      jump\t// in\n    tag_118:\n        /* \"#utility.yul\":4475:4566   */\n      tag_119\n        /* \"#utility.yul\":4524:4565   */\n      tag_120\n        /* \"#utility.yul\":4548:4564   */\n      dup3\n        /* \"#utility.yul\":4524:4565   */\n      tag_61\n      jump\t// in\n    tag_120:\n        /* \"#utility.yul\":4516:4522   */\n      dup5\n        /* \"#utility.yul\":4509:4513   */\n      dup5\n        /* \"#utility.yul\":4503:4514   */\n      sload\n        /* \"#utility.yul\":4475:4566   */\n      tag_58\n      jump\t// in\n    tag_119:\n        /* \"#utility.yul\":4469:4473   */\n      dup3\n        /* \"#utility.yul\":4462:4567   */\n      sstore\n        /* \"#utility.yul\":4380:4573   */\n      pop\n        /* \"#utility.yul\":4304:4573   */\n      pop\n      pop\n      pop\n      jump\t// out\n        /* \"#utility.yul\":4579:4652   */\n    tag_63:\n        /* \"#utility.yul\":4624:4627   */\n      0x00\n        /* \"#utility.yul\":4579:4652   */\n      swap1\n      jump\t// out\n        /* \"#utility.yul\":4658:4847   */\n    tag_64:\n        /* \"#utility.yul\":4735:4767   */\n      tag_123\n      tag_63\n      jump\t// in\n    tag_123:\n        /* \"#utility.yul\":4776:4841   */\n      tag_124\n        /* \"#utility.yul\":4834:4840   */\n      dup2\n        /* \"#utility.yul\":4826:4832   */\n      dup5\n        /* \"#utility.yul\":4820:4824   */\n      dup5\n        /* \"#utility.yul\":4776:4841   */\n      tag_62\n      jump\t// in\n    tag_124:\n        /* \"#utility.yul\":4711:4847   */\n      pop\n        /* \"#utility.yul\":4658:4847   */\n      pop\n      pop\n      jump\t// out\n        /* \"#utility.yul\":4853:5039   */\n    tag_65:\n        /* \"#utility.yul\":4913:5033   */\n    tag_126:\n        /* \"#utility.yul\":4930:4933   */\n      dup2\n        /* \"#utility.yul\":4923:4928   */\n      dup2\n        /* \"#utility.yul\":4920:4934   */\n      lt\n        /* \"#utility.yul\":4913:5033   */\n      iszero\n      tag_128\n      jumpi\n        /* \"#utility.yul\":4984:5023   */\n      tag_129\n        /* \"#utility.yul\":5021:5022   */\n      0x00\n        /* \"#utility.yul\":5014:5019   */\n      dup3\n        /* \"#utility.yul\":4984:5023   */\n      tag_64\n      jump\t// in\n    tag_129:\n        /* \"#utility.yul\":4957:4958   */\n      0x01\n        /* \"#utility.yul\":4950:4955   */\n      dup2\n        /* \"#utility.yul\":4946:4959   */\n      add\n        /* \"#utility.yul\":4937:4959   */\n      swap1\n      pop\n        /* \"#utility.yul\":4913:5033   */\n      jump(tag_126)\n    tag_128:\n        /* \"#utility.yul\":4853:5039   */\n      pop\n      pop\n      jump\t// out\n        /* \"#utility.yul\":5045:5588   */\n    tag_66:\n        /* \"#utility.yul\":5146:5148   */\n      0x1f\n        /* \"#utility.yul\":5141:5144   */\n      dup3\n        /* \"#utility.yul\":5138:5149   */\n      gt\n        /* \"#utility.yul\":5135:5581   */\n      iszero\n      tag_131\n      jumpi\n        /* \"#utility.yul\":5180:5218   */\n      tag_132\n        /* \"#utility.yul\":5212:5217   */\n      dup2\n        /* \"#utility.yul\":5180:5218   */\n      tag_55\n      jump\t// in\n    tag_132:\n        /* \"#utility.yul\":5264:5293   */\n      tag_133\n        /* \"#utility.yul\":5282:5292   */\n      dup5\n        /* \"#utility.yul\":5264:5293   */\n      tag_56\n      jump\t// in\n    tag_133:\n        /* \"#utility.yul\":5254:5262   */\n      dup2\n        /* \"#utility.yul\":5250:5294   */\n      add\n        /* \"#utility.yul\":5447:5449   */\n      0x20\n        /* \"#utility.yul\":5435:5445   */\n      dup6\n        /* \"#utility.yul\":5432:5450   */\n      lt\n        /* \"#utility.yul\":5429:5478   */\n      iszero\n      tag_134\n      jumpi\n        /* \"#utility.yul\":5468:5476   */\n      dup2\n        /* \"#utility.yul\":5453:5476   */\n      swap1\n      pop\n        /* \"#utility.yul\":5429:5478   */\n    tag_134:\n        /* \"#utility.yul\":5491:5571   */\n      tag_135\n        /* \"#utility.yul\":5547:5569   */\n      tag_136\n        /* \"#utility.yul\":5565:5568   */\n      dup6\n        /* \"#utility.yul\":5547:5569   */\n      tag_56\n      jump\t// in\n    tag_136:\n        /* \"#utility.yul\":5537:5545   */\n      dup4\n        /* \"#utility.yul\":5533:5570   */\n      add\n        /* \"#utility.yul\":5520:5531   */\n      dup3\n        /* \"#utility.yul\":5491:5571   */\n      tag_65\n      jump\t// in\n    tag_135:\n        /* \"#utility.yul\":5150:5581   */\n      pop\n      pop\n        /* \"#utility.yul\":5135:5581   */\n    tag_131:\n        /* \"#utility.yul\":5045:5588   */\n      pop\n      pop\n      pop\n      jump\t// out\n        /* \"#utility.yul\":5594:5711   */\n    tag_67:\n        /* \"#utility.yul\":5648:5656   */\n      0x00\n        /* \"#utility.yul\":5698:5703   */\n      dup3\n        /* \"#utility.yul\":5692:5696   */\n      dup3\n        /* \"#utility.yul\":5688:5704   */\n      shr\n        /* \"#utility.yul\":5667:5704   */\n      swap1\n      pop\n        /* \"#utility.yul\":5594:5711   */\n      swap3\n      swap2\n      pop\n      pop\n      jump\t// out\n        /* \"#utility.yul\":5717:5886   */\n    tag_68:\n        /* \"#utility.yul\":5761:5767   */\n      0x00\n        /* \"#utility.yul\":5794:5845   */\n      tag_139\n        /* \"#utility.yul\":5842:5843   */\n      0x00\n        /* \"#utility.yul\":5838:5844   */\n      not\n        /* \"#utility.yul\":5830:5835   */\n      dup5\n        /* \"#utility.yul\":5827:5828   */\n      0x08\n        /* \"#utility.yul\":5823:5836   */\n      mul\n        /* \"#utility.yul\":5794:5845   */\n      tag_67\n      jump\t// in\n    tag_139:\n        /* \"#utility.yul\":5790:5846   */\n      not\n        /* \"#utility.yul\":5875:5879   */\n      dup1\n        /* \"#utility.yul\":5869:5873   */\n      dup4\n        /* \"#utility.yul\":5865:5880   */\n      and\n        /* \"#utility.yul\":5855:5880   */\n      swap2\n      pop\n        /* \"#utility.yul\":5768:5886   */\n      pop\n        /* \"#utility.yul\":5717:5886   */\n      swap3\n      swap2\n      pop\n      pop\n      jump\t// out\n        /* \"#utility.yul\":5891:6186   */\n    tag_69:\n        /* \"#utility.yul\":5967:5971   */\n      0x00\n        /* \"#utility.yul\":6113:6142   */\n      tag_141\n        /* \"#utility.yul\":6138:6141   */\n      dup4\n        /* \"#utility.yul\":6132:6136   */\n      dup4\n        /* \"#utility.yul\":6113:6142   */\n      tag_68\n      jump\t// in\n    tag_141:\n        /* \"#utility.yul\":6105:6142   */\n      swap2\n      pop\n        /* \"#utility.yul\":6175:6178   */\n      dup3\n        /* \"#utility.yul\":6172:6173   */\n      0x02\n        /* \"#utility.yul\":6168:6179   */\n      mul\n        /* \"#utility.yul\":6162:6166   */\n      dup3\n        /* \"#utility.yul\":6159:6180   */\n      or\n        /* \"#utility.yul\":6151:6180   */\n      swap1\n      pop\n        /* \"#utility.yul\":5891:6186   */\n      swap3\n      swap2\n      pop\n      pop\n      jump\t// out\n        /* \"#utility.yul\":6191:7586   */\n    tag_41:\n        /* \"#utility.yul\":6308:6345   */\n      tag_143\n        /* \"#utility.yul\":6341:6344   */\n      dup3\n        /* \"#utility.yul\":6308:6345   */\n      tag_48\n      jump\t// in\n    tag_143:\n        /* \"#utility.yul\":6410:6428   */\n      0xffffffffffffffff\n        /* \"#utility.yul\":6402:6408   */\n      dup2\n        /* \"#utility.yul\":6399:6429   */\n      gt\n        /* \"#utility.yul\":6396:6452   */\n      iszero\n      tag_144\n      jumpi\n        /* \"#utility.yul\":6432:6450   */\n      tag_145\n      tag_54\n      jump\t// in\n    tag_145:\n        /* \"#utility.yul\":6396:6452   */\n    tag_144:\n        /* \"#utility.yul\":6476:6514   */\n      tag_146\n        /* \"#utility.yul\":6508:6512   */\n      dup3\n        /* \"#utility.yul\":6502:6513   */\n      sload\n        /* \"#utility.yul\":6476:6514   */\n      tag_19\n      jump\t// in\n    tag_146:\n        /* \"#utility.yul\":6561:6628   */\n      tag_147\n        /* \"#utility.yul\":6621:6627   */\n      dup3\n        /* \"#utility.yul\":6613:6619   */\n      dup3\n        /* \"#utility.yul\":6607:6611   */\n      dup6\n        /* \"#utility.yul\":6561:6628   */\n      tag_66\n      jump\t// in\n    tag_147:\n        /* \"#utility.yul\":6655:6656   */\n      0x00\n        /* \"#utility.yul\":6679:6683   */\n      0x20\n        /* \"#utility.yul\":6666:6683   */\n      swap1\n      pop\n        /* \"#utility.yul\":6711:6713   */\n      0x1f\n        /* \"#utility.yul\":6703:6709   */\n      dup4\n        /* \"#utility.yul\":6700:6714   */\n      gt\n        /* \"#utility.yul\":6728:6729   */\n      0x01\n        /* \"#utility.yul\":6723:7341   */\n      dup2\n      eq\n      tag_149\n      jumpi\n        /* \"#utility.yul\":7385:7386   */\n      0x00\n        /* \"#utility.yul\":7402:7408   */\n      dup5\n        /* \"#utility.yul\":7399:7476   */\n      iszero\n      tag_150\n      jumpi\n        /* \"#utility.yul\":7451:7460   */\n      dup3\n        /* \"#utility.yul\":7446:7449   */\n      dup8\n        /* \"#utility.yul\":7442:7461   */\n      add\n        /* \"#utility.yul\":7436:7462   */\n      mload\n        /* \"#utility.yul\":7427:7462   */\n      swap1\n      pop\n        /* \"#utility.yul\":7399:7476   */\n    tag_150:\n        /* \"#utility.yul\":7502:7569   */\n      tag_151\n        /* \"#utility.yul\":7562:7568   */\n      dup6\n        /* \"#utility.yul\":7555:7560   */\n      dup3\n        /* \"#utility.yul\":7502:7569   */\n      tag_69\n      jump\t// in\n    tag_151:\n        /* \"#utility.yul\":7496:7500   */\n      dup7\n        /* \"#utility.yul\":7489:7570   */\n      sstore\n        /* \"#utility.yul\":7358:7580   */\n      pop\n        /* \"#utility.yul\":6693:7580   */\n      jump(tag_148)\n        /* \"#utility.yul\":6723:7341   */\n    tag_149:\n        /* \"#utility.yul\":6775:6779   */\n      0x1f\n        /* \"#utility.yul\":6771:6780   */\n      not\n        /* \"#utility.yul\":6763:6769   */\n      dup5\n        /* \"#utility.yul\":6759:6781   */\n      and\n        /* \"#utility.yul\":6809:6846   */\n      tag_152\n        /* \"#utility.yul\":6841:6845   */\n      dup7\n        /* \"#utility.yul\":6809:6846   */\n      tag_55\n      jump\t// in\n    tag_152:\n        /* \"#utility.yul\":6868:6869   */\n      0x00\n        /* \"#utility.yul\":6882:7090   */\n    tag_153:\n        /* \"#utility.yul\":6896:6903   */\n      dup3\n        /* \"#utility.yul\":6893:6894   */\n      dup2\n        /* \"#utility.yul\":6890:6904   */\n      lt\n        /* \"#utility.yul\":6882:7090   */\n      iszero\n      tag_155\n      jumpi\n        /* \"#utility.yul\":6975:6984   */\n      dup5\n        /* \"#utility.yul\":6970:6973   */\n      dup10\n        /* \"#utility.yul\":6966:6985   */\n      add\n        /* \"#utility.yul\":6960:6986   */\n      mload\n        /* \"#utility.yul\":6952:6958   */\n      dup3\n        /* \"#utility.yul\":6945:6987   */\n      sstore\n        /* \"#utility.yul\":7026:7027   */\n      0x01\n        /* \"#utility.yul\":7018:7024   */\n      dup3\n        /* \"#utility.yul\":7014:7028   */\n      add\n        /* \"#utility.yul\":7004:7028   */\n      swap2\n      pop\n        /* \"#utility.yul\":7073:7075   */\n      0x20\n        /* \"#utility.yul\":7062:7071   */\n      dup6\n        /* \"#utility.yul\":7058:7076   */\n      add\n        /* \"#utility.yul\":7045:7076   */\n      swap5\n      pop\n        /* \"#utility.yul\":6919:6923   */\n      0x20\n        /* \"#utility.yul\":6916:6917   */\n      dup2\n        /* \"#utility.yul\":6912:6924   */\n      add\n        /* \"#utility.yul\":6907:6924   */\n      swap1\n      pop\n        /* \"#utility.yul\":6882:7090   */\n      jump(tag_153)\n    tag_155:\n        /* \"#utility.yul\":7118:7124   */\n      dup7\n        /* \"#utility.yul\":7109:7116   */\n      dup4\n        /* \"#utility.yul\":7106:7125   */\n      lt\n        /* \"#utility.yul\":7103:7282   */\n      iszero\n      tag_156\n      jumpi\n        /* \"#utility.yul\":7176:7185   */\n      dup5\n        /* \"#utility.yul\":7171:7174   */\n      dup10\n        /* \"#utility.yul\":7167:7186   */\n      add\n        /* \"#utility.yul\":7161:7187   */\n      mload\n        /* \"#utility.yul\":7219:7267   */\n      tag_157\n        /* \"#utility.yul\":7261:7265   */\n      0x1f\n        /* \"#utility.yul\":7253:7259   */\n      dup10\n        /* \"#utility.yul\":7249:7266   */\n      and\n        /* \"#utility.yul\":7238:7247   */\n      dup3\n        /* \"#utility.yul\":7219:7267   */\n      tag_68\n      jump\t// in\n    tag_157:\n        /* \"#utility.yul\":7211:7217   */\n      dup4\n        /* \"#utility.yul\":7204:7268   */\n      sstore\n        /* \"#utility.yul\":7126:7282   */\n      pop\n        /* \"#utility.yul\":7103:7282   */\n    tag_156:\n        /* \"#utility.yul\":7328:7329   */\n      0x01\n        /* \"#utility.yul\":7324:7325   */\n      0x02\n        /* \"#utility.yul\":7316:7322   */\n      dup9\n        /* \"#utility.yul\":7312:7326   */\n      mul\n        /* \"#utility.yul\":7308:7330   */\n      add\n        /* \"#utility.yul\":7302:7306   */\n      dup9\n        /* \"#utility.yul\":7295:7331   */\n      sstore\n        /* \"#utility.yul\":6730:7341   */\n      pop\n      pop\n      pop\n        /* \"#utility.yul\":6693:7580   */\n    tag_148:\n      pop\n        /* \"#utility.yul\":6283:7586   */\n      pop\n      pop\n      pop\n        /* \"#utility.yul\":6191:7586   */\n      pop\n      pop\n      jump\t// out\n\n    auxdata: 0xa26469706673582212208017b96ccb7a995dd3cf7ceba8049abf616421280619c881f154ba2446fce86864736f6c63430008120033\n}\n",
				"bytecode": {
					"linkReferences": {},
					"object": "608060405260405180606001604052806040518060400160405280600681526020017f50756c6b6974000000000000000000000000000000000000000000000000000081525081526020016040518060400160405280600581526020017f4d696c6c6900000000000000000000000000000000000000000000000000000081525081526020016040518060400160405280600481526020017f416e696c000000000000000000000000000000000000000000000000000000008152508152506000906003620000d0929190620000e5565b50348015620000de57600080fd5b5062000533565b82805482825590600052602060002090810192821562000132579160200282015b82811115620001315782518290816200012091906200044c565b509160200191906001019062000106565b5b50905062000141919062000145565b5090565b5b808211156200016957600081816200015f91906200016d565b5060010162000146565b5090565b5080546200017b906200023b565b6000825580601f106200018f5750620001b0565b601f016020900490600052602060002090810190620001af9190620001b3565b5b50565b5b80821115620001ce576000816000905550600101620001b4565b5090565b600081519050919050565b7f4e487b7100000000000000000000000000000000000000000000000000000000600052604160045260246000fd5b7f4e487b7100000000000000000000000000000000000000000000000000000000600052602260045260246000fd5b600060028204905060018216806200025457607f821691505b6020821081036200026a57620002696200020c565b5b50919050565b60008190508160005260206000209050919050565b60006020601f8301049050919050565b600082821b905092915050565b600060088302620002d47fffffffffffffffffffffffffffffffffffffffffffffffffffffffffffffffff8262000295565b620002e0868362000295565b95508019841693508086168417925050509392505050565b6000819050919050565b6000819050919050565b60006200032d620003276200032184620002f8565b62000302565b620002f8565b9050919050565b6000819050919050565b62000349836200030c565b62000361620003588262000334565b848454620002a2565b825550505050565b600090565b6200037862000369565b620003858184846200033e565b505050565b5b81811015620003ad57620003a16000826200036e565b6001810190506200038b565b5050565b601f821115620003fc57620003c68162000270565b620003d18462000285565b81016020851015620003e1578190505b620003f9620003f08562000285565b8301826200038a565b50505b505050565b600082821c905092915050565b6000620004216000198460080262000401565b1980831691505092915050565b60006200043c83836200040e565b9150826002028217905092915050565b6200045782620001d2565b67ffffffffffffffff811115620004735762000472620001dd565b5b6200047f82546200023b565b6200048c828285620003b1565b600060209050601f831160018114620004c45760008415620004af578287015190505b620004bb85826200042e565b8655506200052b565b601f198416620004d48662000270565b60005b82811015620004fe57848901518255600182019150602085019450602081019050620004d7565b868310156200051e57848901516200051a601f8916826200040e565b8355505b6001600288020188555050505b505050505050565b61075580620005436000396000f3fe608060405234801561001057600080fd5b50600436106100415760003560e01c806306ead22e146100465780633f3108f714610076578063975057e714610080575b600080fd5b610060600480360381019061005b9190610304565b61008a565b60405161006d91906103c1565b60405180910390f35b61007e610136565b005b610088610263565b005b6000818154811061009a57600080fd5b9060005260206000200160009150905080546100b590610412565b80601f01602080910402602001604051908101604052809291908181526020018280546100e190610412565b801561012e5780601f106101035761010080835404028352916020019161012e565b820191906000526020600020905b81548152906001019060200180831161011157829003601f168201915b505050505081565b600080805480602002602001604051908101604052809291908181526020016000905b8282101561020557838290600052602060002001805461017890610412565b80601f01602080910402602001604051908101604052809291908181526020018280546101a490610412565b80156101f15780601f106101c6576101008083540402835291602001916101f1565b820191906000526020600020905b8154815290600101906020018083116101d457829003601f168201915b505050505081526020019060010190610159565b5050505090506040518060400160405280600581526020017f5365656d610000000000000000000000000000000000000000000000000000008152508160008151811061025557610254610443565b5b602002602001018190525050565b60006040518060400160405280600581526020017f5365656d61000000000000000000000000000000000000000000000000000000815250816000815481106102af576102ae610443565b5b9060005260206000200190816102c5919061064d565b5050565b600080fd5b6000819050919050565b6102e1816102ce565b81146102ec57600080fd5b50565b6000813590506102fe816102d8565b92915050565b60006020828403121561031a576103196102c9565b5b6000610328848285016102ef565b91505092915050565b600081519050919050565b600082825260208201905092915050565b60005b8381101561036b578082015181840152602081019050610350565b60008484015250505050565b6000601f19601f8301169050919050565b600061039382610331565b61039d818561033c565b93506103ad81856020860161034d565b6103b681610377565b840191505092915050565b600060208201905081810360008301526103db8184610388565b905092915050565b7f4e487b7100000000000000000000000000000000000000000000000000000000600052602260045260246000fd5b6000600282049050600182168061042a57607f821691505b60208210810361043d5761043c6103e3565b5b50919050565b7f4e487b7100000000000000000000000000000000000000000000000000000000600052603260045260246000fd5b7f4e487b7100000000000000000000000000000000000000000000000000000000600052604160045260246000fd5b60008190508160005260206000209050919050565b60006020601f8301049050919050565b600082821b905092915050565b6000600883026105037fffffffffffffffffffffffffffffffffffffffffffffffffffffffffffffffff826104c6565b61050d86836104c6565b95508019841693508086168417925050509392505050565b6000819050919050565b600061054a610545610540846102ce565b610525565b6102ce565b9050919050565b6000819050919050565b6105648361052f565b61057861057082610551565b8484546104d3565b825550505050565b600090565b61058d610580565b61059881848461055b565b505050565b5b818110156105bc576105b1600082610585565b60018101905061059e565b5050565b601f821115610601576105d2816104a1565b6105db846104b6565b810160208510156105ea578190505b6105fe6105f6856104b6565b83018261059d565b50505b505050565b600082821c905092915050565b600061062460001984600802610606565b1980831691505092915050565b600061063d8383610613565b9150826002028217905092915050565b61065682610331565b67ffffffffffffffff81111561066f5761066e610472565b5b6106798254610412565b6106848282856105c0565b600060209050601f8311600181146106b757600084156106a5578287015190505b6106af8582610631565b865550610717565b601f1984166106c5866104a1565b60005b828110156106ed578489015182556001820191506020850194506020810190506106c8565b8683101561070a5784890151610706601f891682610613565b8355505b6001600288020188555050505b50505050505056fea26469706673582212208017b96ccb7a995dd3cf7ceba8049abf616421280619c881f154ba2446fce86864736f6c63430008120033",
					"opcodes": "PUSH1 0x80 PUSH1 0x40 MSTORE PUSH1 0x40 MLOAD DUP1 PUSH1 0x60 ADD PUSH1 0x40 MSTORE DUP1 PUSH1 0x40 MLOAD DUP1 PUSH1 0x40 ADD PUSH1 0x40 MSTORE DUP1 PUSH1 0x6 DUP2 MSTORE PUSH1 0x20 ADD PUSH32 0x50756C6B69740000000000000000000000000000000000000000000000000000 DUP2 MSTORE POP DUP2 MSTORE PUSH1 0x20 ADD PUSH1 0x40 MLOAD DUP1 PUSH1 0x40 ADD PUSH1 0x40 MSTORE DUP1 PUSH1 0x5 DUP2 MSTORE PUSH1 0x20 ADD PUSH32 0x4D696C6C69000000000000000000000000000000000000000000000000000000 DUP2 MSTORE POP DUP2 MSTORE PUSH1 0x20 ADD PUSH1 0x40 MLOAD DUP1 PUSH1 0x40 ADD PUSH1 0x40 MSTORE DUP1 PUSH1 0x4 DUP2 MSTORE PUSH1 0x20 ADD PUSH32 0x416E696C00000000000000000000000000000000000000000000000000000000 DUP2 MSTORE POP DUP2 MSTORE POP PUSH1 0x0 SWAP1 PUSH1 0x3 PUSH3 0xD0 SWAP3 SWAP2 SWAP1 PUSH3 0xE5 JUMP JUMPDEST POP CALLVALUE DUP1 ISZERO PUSH3 0xDE JUMPI PUSH1 0x0 DUP1 REVERT JUMPDEST POP PUSH3 0x533 JUMP JUMPDEST DUP3 DUP1 SLOAD DUP3 DUP3 SSTORE SWAP1 PUSH1 0x0 MSTORE PUSH1 0x20 PUSH1 0x0 KECCAK256 SWAP1 DUP2 ADD SWAP3 DUP3 ISZERO PUSH3 0x132 JUMPI SWAP2 PUSH1 0x20 MUL DUP3 ADD JUMPDEST DUP3 DUP2 GT ISZERO PUSH3 0x131 JUMPI DUP3 MLOAD DUP3 SWAP1 DUP2 PUSH3 0x120 SWAP2 SWAP1 PUSH3 0x44C JUMP JUMPDEST POP SWAP2 PUSH1 0x20 ADD SWAP2 SWAP1 PUSH1 0x1 ADD SWAP1 PUSH3 0x106 JUMP JUMPDEST JUMPDEST POP SWAP1 POP PUSH3 0x141 SWAP2 SWAP1 PUSH3 0x145 JUMP JUMPDEST POP SWAP1 JUMP JUMPDEST JUMPDEST DUP1 DUP3 GT ISZERO PUSH3 0x169 JUMPI PUSH1 0x0 DUP2 DUP2 PUSH3 0x15F SWAP2 SWAP1 PUSH3 0x16D JUMP JUMPDEST POP PUSH1 0x1 ADD PUSH3 0x146 JUMP JUMPDEST POP SWAP1 JUMP JUMPDEST POP DUP1 SLOAD PUSH3 0x17B SWAP1 PUSH3 0x23B JUMP JUMPDEST PUSH1 0x0 DUP3 SSTORE DUP1 PUSH1 0x1F LT PUSH3 0x18F JUMPI POP PUSH3 0x1B0 JUMP JUMPDEST PUSH1 0x1F ADD PUSH1 0x20 SWAP1 DIV SWAP1 PUSH1 0x0 MSTORE PUSH1 0x20 PUSH1 0x0 KECCAK256 SWAP1 DUP2 ADD SWAP1 PUSH3 0x1AF SWAP2 SWAP1 PUSH3 0x1B3 JUMP JUMPDEST JUMPDEST POP JUMP JUMPDEST JUMPDEST DUP1 DUP3 GT ISZERO PUSH3 0x1CE JUMPI PUSH1 0x0 DUP2 PUSH1 0x0 SWAP1 SSTORE POP PUSH1 0x1 ADD PUSH3 0x1B4 JUMP JUMPDEST POP SWAP1 JUMP JUMPDEST PUSH1 0x0 DUP2 MLOAD SWAP1 POP SWAP2 SWAP1 POP JUMP JUMPDEST PUSH32 0x4E487B7100000000000000000000000000000000000000000000000000000000 PUSH1 0x0 MSTORE PUSH1 0x41 PUSH1 0x4 MSTORE PUSH1 0x24 PUSH1 0x0 REVERT JUMPDEST PUSH32 0x4E487B7100000000000000000000000000000000000000000000000000000000 PUSH1 0x0 MSTORE PUSH1 0x22 PUSH1 0x4 MSTORE PUSH1 0x24 PUSH1 0x0 REVERT JUMPDEST PUSH1 0x0 PUSH1 0x2 DUP3 DIV SWAP1 POP PUSH1 0x1 DUP3 AND DUP1 PUSH3 0x254 JUMPI PUSH1 0x7F DUP3 AND SWAP2 POP JUMPDEST PUSH1 0x20 DUP3 LT DUP2 SUB PUSH3 0x26A JUMPI PUSH3 0x269 PUSH3 0x20C JUMP JUMPDEST JUMPDEST POP SWAP2 SWAP1 POP JUMP JUMPDEST PUSH1 0x0 DUP2 SWAP1 POP DUP2 PUSH1 0x0 MSTORE PUSH1 0x20 PUSH1 0x0 KECCAK256 SWAP1 POP SWAP2 SWAP1 POP JUMP JUMPDEST PUSH1 0x0 PUSH1 0x20 PUSH1 0x1F DUP4 ADD DIV SWAP1 POP SWAP2 SWAP1 POP JUMP JUMPDEST PUSH1 0x0 DUP3 DUP3 SHL SWAP1 POP SWAP3 SWAP2 POP POP JUMP JUMPDEST PUSH1 0x0 PUSH1 0x8 DUP4 MUL PUSH3 0x2D4 PUSH32 0xFFFFFFFFFFFFFFFFFFFFFFFFFFFFFFFFFFFFFFFFFFFFFFFFFFFFFFFFFFFFFFFF DUP3 PUSH3 0x295 JUMP JUMPDEST PUSH3 0x2E0 DUP7 DUP4 PUSH3 0x295 JUMP JUMPDEST SWAP6 POP DUP1 NOT DUP5 AND SWAP4 POP DUP1 DUP7 AND DUP5 OR SWAP3 POP POP POP SWAP4 SWAP3 POP POP POP JUMP JUMPDEST PUSH1 0x0 DUP2 SWAP1 POP SWAP2 SWAP1 POP JUMP JUMPDEST PUSH1 0x0 DUP2 SWAP1 POP SWAP2 SWAP1 POP JUMP JUMPDEST PUSH1 0x0 PUSH3 0x32D PUSH3 0x327 PUSH3 0x321 DUP5 PUSH3 0x2F8 JUMP JUMPDEST PUSH3 0x302 JUMP JUMPDEST PUSH3 0x2F8 JUMP JUMPDEST SWAP1 POP SWAP2 SWAP1 POP JUMP JUMPDEST PUSH1 0x0 DUP2 SWAP1 POP SWAP2 SWAP1 POP JUMP JUMPDEST PUSH3 0x349 DUP4 PUSH3 0x30C JUMP JUMPDEST PUSH3 0x361 PUSH3 0x358 DUP3 PUSH3 0x334 JUMP JUMPDEST DUP5 DUP5 SLOAD PUSH3 0x2A2 JUMP JUMPDEST DUP3 SSTORE POP POP POP POP JUMP JUMPDEST PUSH1 0x0 SWAP1 JUMP JUMPDEST PUSH3 0x378 PUSH3 0x369 JUMP JUMPDEST PUSH3 0x385 DUP2 DUP5 DUP5 PUSH3 0x33E JUMP JUMPDEST POP POP POP JUMP JUMPDEST JUMPDEST DUP2 DUP2 LT ISZERO PUSH3 0x3AD JUMPI PUSH3 0x3A1 PUSH1 0x0 DUP3 PUSH3 0x36E JUMP JUMPDEST PUSH1 0x1 DUP2 ADD SWAP1 POP PUSH3 0x38B JUMP JUMPDEST POP POP JUMP JUMPDEST PUSH1 0x1F DUP3 GT ISZERO PUSH3 0x3FC JUMPI PUSH3 0x3C6 DUP2 PUSH3 0x270 JUMP JUMPDEST PUSH3 0x3D1 DUP5 PUSH3 0x285 JUMP JUMPDEST DUP2 ADD PUSH1 0x20 DUP6 LT ISZERO PUSH3 0x3E1 JUMPI DUP2 SWAP1 POP JUMPDEST PUSH3 0x3F9 PUSH3 0x3F0 DUP6 PUSH3 0x285 JUMP JUMPDEST DUP4 ADD DUP3 PUSH3 0x38A JUMP JUMPDEST POP POP JUMPDEST POP POP POP JUMP JUMPDEST PUSH1 0x0 DUP3 DUP3 SHR SWAP1 POP SWAP3 SWAP2 POP POP JUMP JUMPDEST PUSH1 0x0 PUSH3 0x421 PUSH1 0x0 NOT DUP5 PUSH1 0x8 MUL PUSH3 0x401 JUMP JUMPDEST NOT DUP1 DUP4 AND SWAP2 POP POP SWAP3 SWAP2 POP POP JUMP JUMPDEST PUSH1 0x0 PUSH3 0x43C DUP4 DUP4 PUSH3 0x40E JUMP JUMPDEST SWAP2 POP DUP3 PUSH1 0x2 MUL DUP3 OR SWAP1 POP SWAP3 SWAP2 POP POP JUMP JUMPDEST PUSH3 0x457 DUP3 PUSH3 0x1D2 JUMP JUMPDEST PUSH8 0xFFFFFFFFFFFFFFFF DUP2 GT ISZERO PUSH3 0x473 JUMPI PUSH3 0x472 PUSH3 0x1DD JUMP JUMPDEST JUMPDEST PUSH3 0x47F DUP3 SLOAD PUSH3 0x23B JUMP JUMPDEST PUSH3 0x48C DUP3 DUP3 DUP6 PUSH3 0x3B1 JUMP JUMPDEST PUSH1 0x0 PUSH1 0x20 SWAP1 POP PUSH1 0x1F DUP4 GT PUSH1 0x1 DUP2 EQ PUSH3 0x4C4 JUMPI PUSH1 0x0 DUP5 ISZERO PUSH3 0x4AF JUMPI DUP3 DUP8 ADD MLOAD SWAP1 POP JUMPDEST PUSH3 0x4BB DUP6 DUP3 PUSH3 0x42E JUMP JUMPDEST DUP7 SSTORE POP PUSH3 0x52B JUMP JUMPDEST PUSH1 0x1F NOT DUP5 AND PUSH3 0x4D4 DUP7 PUSH3 0x270 JUMP JUMPDEST PUSH1 0x0 JUMPDEST DUP3 DUP2 LT ISZERO PUSH3 0x4FE JUMPI DUP5 DUP10 ADD MLOAD DUP3 SSTORE PUSH1 0x1 DUP3 ADD SWAP2 POP PUSH1 0x20 DUP6 ADD SWAP5 POP PUSH1 0x20 DUP2 ADD SWAP1 POP PUSH3 0x4D7 JUMP JUMPDEST DUP7 DUP4 LT ISZERO PUSH3 0x51E JUMPI DUP5 DUP10 ADD MLOAD PUSH3 0x51A PUSH1 0x1F DUP10 AND DUP3 PUSH3 0x40E JUMP JUMPDEST DUP4 SSTORE POP JUMPDEST PUSH1 0x1 PUSH1 0x2 DUP9 MUL ADD DUP9 SSTORE POP POP POP JUMPDEST POP POP POP POP POP POP JUMP JUMPDEST PUSH2 0x755 DUP1 PUSH3 0x543 PUSH1 0x0 CODECOPY PUSH1 0x0 RETURN INVALID PUSH1 0x80 PUSH1 0x40 MSTORE CALLVALUE DUP1 ISZERO PUSH2 0x10 JUMPI PUSH1 0x0 DUP1 REVERT JUMPDEST POP PUSH1 0x4 CALLDATASIZE LT PUSH2 0x41 JUMPI PUSH1 0x0 CALLDATALOAD PUSH1 0xE0 SHR DUP1 PUSH4 0x6EAD22E EQ PUSH2 0x46 JUMPI DUP1 PUSH4 0x3F3108F7 EQ PUSH2 0x76 JUMPI DUP1 PUSH4 0x975057E7 EQ PUSH2 0x80 JUMPI JUMPDEST PUSH1 0x0 DUP1 REVERT JUMPDEST PUSH2 0x60 PUSH1 0x4 DUP1 CALLDATASIZE SUB DUP2 ADD SWAP1 PUSH2 0x5B SWAP2 SWAP1 PUSH2 0x304 JUMP JUMPDEST PUSH2 0x8A JUMP JUMPDEST PUSH1 0x40 MLOAD PUSH2 0x6D SWAP2 SWAP1 PUSH2 0x3C1 JUMP JUMPDEST PUSH1 0x40 MLOAD DUP1 SWAP2 SUB SWAP1 RETURN JUMPDEST PUSH2 0x7E PUSH2 0x136 JUMP JUMPDEST STOP JUMPDEST PUSH2 0x88 PUSH2 0x263 JUMP JUMPDEST STOP JUMPDEST PUSH1 0x0 DUP2 DUP2 SLOAD DUP2 LT PUSH2 0x9A JUMPI PUSH1 0x0 DUP1 REVERT JUMPDEST SWAP1 PUSH1 0x0 MSTORE PUSH1 0x20 PUSH1 0x0 KECCAK256 ADD PUSH1 0x0 SWAP2 POP SWAP1 POP DUP1 SLOAD PUSH2 0xB5 SWAP1 PUSH2 0x412 JUMP JUMPDEST DUP1 PUSH1 0x1F ADD PUSH1 0x20 DUP1 SWAP2 DIV MUL PUSH1 0x20 ADD PUSH1 0x40 MLOAD SWAP1 DUP2 ADD PUSH1 0x40 MSTORE DUP1 SWAP3 SWAP2 SWAP1 DUP2 DUP2 MSTORE PUSH1 0x20 ADD DUP3 DUP1 SLOAD PUSH2 0xE1 SWAP1 PUSH2 0x412 JUMP JUMPDEST DUP1 ISZERO PUSH2 0x12E JUMPI DUP1 PUSH1 0x1F LT PUSH2 0x103 JUMPI PUSH2 0x100 DUP1 DUP4 SLOAD DIV MUL DUP4 MSTORE SWAP2 PUSH1 0x20 ADD SWAP2 PUSH2 0x12E JUMP JUMPDEST DUP3 ADD SWAP2 SWAP1 PUSH1 0x0 MSTORE PUSH1 0x20 PUSH1 0x0 KECCAK256 SWAP1 JUMPDEST DUP2 SLOAD DUP2 MSTORE SWAP1 PUSH1 0x1 ADD SWAP1 PUSH1 0x20 ADD DUP1 DUP4 GT PUSH2 0x111 JUMPI DUP3 SWAP1 SUB PUSH1 0x1F AND DUP3 ADD SWAP2 JUMPDEST POP POP POP POP POP DUP2 JUMP JUMPDEST PUSH1 0x0 DUP1 DUP1 SLOAD DUP1 PUSH1 0x20 MUL PUSH1 0x20 ADD PUSH1 0x40 MLOAD SWAP1 DUP2 ADD PUSH1 0x40 MSTORE DUP1 SWAP3 SWAP2 SWAP1 DUP2 DUP2 MSTORE PUSH1 0x20 ADD PUSH1 0x0 SWAP1 JUMPDEST DUP3 DUP3 LT ISZERO PUSH2 0x205 JUMPI DUP4 DUP3 SWAP1 PUSH1 0x0 MSTORE PUSH1 0x20 PUSH1 0x0 KECCAK256 ADD DUP1 SLOAD PUSH2 0x178 SWAP1 PUSH2 0x412 JUMP JUMPDEST DUP1 PUSH1 0x1F ADD PUSH1 0x20 DUP1 SWAP2 DIV MUL PUSH1 0x20 ADD PUSH1 0x40 MLOAD SWAP1 DUP2 ADD PUSH1 0x40 MSTORE DUP1 SWAP3 SWAP2 SWAP1 DUP2 DUP2 MSTORE PUSH1 0x20 ADD DUP3 DUP1 SLOAD PUSH2 0x1A4 SWAP1 PUSH2 0x412 JUMP JUMPDEST DUP1 ISZERO PUSH2 0x1F1 JUMPI DUP1 PUSH1 0x1F LT PUSH2 0x1C6 JUMPI PUSH2 0x100 DUP1 DUP4 SLOAD DIV MUL DUP4 MSTORE SWAP2 PUSH1 0x20 ADD SWAP2 PUSH2 0x1F1 JUMP JUMPDEST DUP3 ADD SWAP2 SWAP1 PUSH1 0x0 MSTORE PUSH1 0x20 PUSH1 0x0 KECCAK256 SWAP1 JUMPDEST DUP2 SLOAD DUP2 MSTORE SWAP1 PUSH1 0x1 ADD SWAP1 PUSH1 0x20 ADD DUP1 DUP4 GT PUSH2 0x1D4 JUMPI DUP3 SWAP1 SUB PUSH1 0x1F AND DUP3 ADD SWAP2 JUMPDEST POP POP POP POP POP DUP2 MSTORE PUSH1 0x20 ADD SWAP1 PUSH1 0x1 ADD SWAP1 PUSH2 0x159 JUMP JUMPDEST POP POP POP POP SWAP1 POP PUSH1 0x40 MLOAD DUP1 PUSH1 0x40 ADD PUSH1 0x40 MSTORE DUP1 PUSH1 0x5 DUP2 MSTORE PUSH1 0x20 ADD PUSH32 0x5365656D61000000000000000000000000000000000000000000000000000000 DUP2 MSTORE POP DUP2 PUSH1 0x0 DUP2 MLOAD DUP2 LT PUSH2 0x255 JUMPI PUSH2 0x254 PUSH2 0x443 JUMP JUMPDEST JUMPDEST PUSH1 0x20 MUL PUSH1 0x20 ADD ADD DUP2 SWAP1 MSTORE POP POP JUMP JUMPDEST PUSH1 0x0 PUSH1 0x40 MLOAD DUP1 PUSH1 0x40 ADD PUSH1 0x40 MSTORE DUP1 PUSH1 0x5 DUP2 MSTORE PUSH1 0x20 ADD PUSH32 0x5365656D61000000000000000000000000000000000000000000000000000000 DUP2 MSTORE POP DUP2 PUSH1 0x0 DUP2 SLOAD DUP2 LT PUSH2 0x2AF JUMPI PUSH2 0x2AE PUSH2 0x443 JUMP JUMPDEST JUMPDEST SWAP1 PUSH1 0x0 MSTORE PUSH1 0x20 PUSH1 0x0 KECCAK256 ADD SWAP1 DUP2 PUSH2 0x2C5 SWAP2 SWAP1 PUSH2 0x64D JUMP JUMPDEST POP POP JUMP JUMPDEST PUSH1 0x0 DUP1 REVERT JUMPDEST PUSH1 0x0 DUP2 SWAP1 POP SWAP2 SWAP1 POP JUMP JUMPDEST PUSH2 0x2E1 DUP2 PUSH2 0x2CE JUMP JUMPDEST DUP2 EQ PUSH2 0x2EC JUMPI PUSH1 0x0 DUP1 REVERT JUMPDEST POP JUMP JUMPDEST PUSH1 0x0 DUP2 CALLDATALOAD SWAP1 POP PUSH2 0x2FE DUP2 PUSH2 0x2D8 JUMP JUMPDEST SWAP3 SWAP2 POP POP JUMP JUMPDEST PUSH1 0x0 PUSH1 0x20 DUP3 DUP5 SUB SLT ISZERO PUSH2 0x31A JUMPI PUSH2 0x319 PUSH2 0x2C9 JUMP JUMPDEST JUMPDEST PUSH1 0x0 PUSH2 0x328 DUP5 DUP3 DUP6 ADD PUSH2 0x2EF JUMP JUMPDEST SWAP2 POP POP SWAP3 SWAP2 POP POP JUMP JUMPDEST PUSH1 0x0 DUP2 MLOAD SWAP1 POP SWAP2 SWAP1 POP JUMP JUMPDEST PUSH1 0x0 DUP3 DUP3 MSTORE PUSH1 0x20 DUP3 ADD SWAP1 POP SWAP3 SWAP2 POP POP JUMP JUMPDEST PUSH1 0x0 JUMPDEST DUP4 DUP2 LT ISZERO PUSH2 0x36B JUMPI DUP1 DUP3 ADD MLOAD DUP2 DUP5 ADD MSTORE PUSH1 0x20 DUP2 ADD SWAP1 POP PUSH2 0x350 JUMP JUMPDEST PUSH1 0x0 DUP5 DUP5 ADD MSTORE POP POP POP POP JUMP JUMPDEST PUSH1 0x0 PUSH1 0x1F NOT PUSH1 0x1F DUP4 ADD AND SWAP1 POP SWAP2 SWAP1 POP JUMP JUMPDEST PUSH1 0x0 PUSH2 0x393 DUP3 PUSH2 0x331 JUMP JUMPDEST PUSH2 0x39D DUP2 DUP6 PUSH2 0x33C JUMP JUMPDEST SWAP4 POP PUSH2 0x3AD DUP2 DUP6 PUSH1 0x20 DUP7 ADD PUSH2 0x34D JUMP JUMPDEST PUSH2 0x3B6 DUP2 PUSH2 0x377 JUMP JUMPDEST DUP5 ADD SWAP2 POP POP SWAP3 SWAP2 POP POP JUMP JUMPDEST PUSH1 0x0 PUSH1 0x20 DUP3 ADD SWAP1 POP DUP2 DUP2 SUB PUSH1 0x0 DUP4 ADD MSTORE PUSH2 0x3DB DUP2 DUP5 PUSH2 0x388 JUMP JUMPDEST SWAP1 POP SWAP3 SWAP2 POP POP JUMP JUMPDEST PUSH32 0x4E487B7100000000000000000000000000000000000000000000000000000000 PUSH1 0x0 MSTORE PUSH1 0x22 PUSH1 0x4 MSTORE PUSH1 0x24 PUSH1 0x0 REVERT JUMPDEST PUSH1 0x0 PUSH1 0x2 DUP3 DIV SWAP1 POP PUSH1 0x1 DUP3 AND DUP1 PUSH2 0x42A JUMPI PUSH1 0x7F DUP3 AND SWAP2 POP JUMPDEST PUSH1 0x20 DUP3 LT DUP2 SUB PUSH2 0x43D JUMPI PUSH2 0x43C PUSH2 0x3E3 JUMP JUMPDEST JUMPDEST POP SWAP2 SWAP1 POP JUMP JUMPDEST PUSH32 0x4E487B7100000000000000000000000000000000000000000000000000000000 PUSH1 0x0 MSTORE PUSH1 0x32 PUSH1 0x4 MSTORE PUSH1 0x24 PUSH1 0x0 REVERT JUMPDEST PUSH32 0x4E487B7100000000000000000000000000000000000000000000000000000000 PUSH1 0x0 MSTORE PUSH1 0x41 PUSH1 0x4 MSTORE PUSH1 0x24 PUSH1 0x0 REVERT JUMPDEST PUSH1 0x0 DUP2 SWAP1 POP DUP2 PUSH1 0x0 MSTORE PUSH1 0x20 PUSH1 0x0 KECCAK256 SWAP1 POP SWAP2 SWAP1 POP JUMP JUMPDEST PUSH1 0x0 PUSH1 0x20 PUSH1 0x1F DUP4 ADD DIV SWAP1 POP SWAP2 SWAP1 POP JUMP JUMPDEST PUSH1 0x0 DUP3 DUP3 SHL SWAP1 POP SWAP3 SWAP2 POP POP JUMP JUMPDEST PUSH1 0x0 PUSH1 0x8 DUP4 MUL PUSH2 0x503 PUSH32 0xFFFFFFFFFFFFFFFFFFFFFFFFFFFFFFFFFFFFFFFFFFFFFFFFFFFFFFFFFFFFFFFF DUP3 PUSH2 0x4C6 JUMP JUMPDEST PUSH2 0x50D DUP7 DUP4 PUSH2 0x4C6 JUMP JUMPDEST SWAP6 POP DUP1 NOT DUP5 AND SWAP4 POP DUP1 DUP7 AND DUP5 OR SWAP3 POP POP POP SWAP4 SWAP3 POP POP POP JUMP JUMPDEST PUSH1 0x0 DUP2 SWAP1 POP SWAP2 SWAP1 POP JUMP JUMPDEST PUSH1 0x0 PUSH2 0x54A PUSH2 0x545 PUSH2 0x540 DUP5 PUSH2 0x2CE JUMP JUMPDEST PUSH2 0x525 JUMP JUMPDEST PUSH2 0x2CE JUMP JUMPDEST SWAP1 POP SWAP2 SWAP1 POP JUMP JUMPDEST PUSH1 0x0 DUP2 SWAP1 POP SWAP2 SWAP1 POP JUMP JUMPDEST PUSH2 0x564 DUP4 PUSH2 0x52F JUMP JUMPDEST PUSH2 0x578 PUSH2 0x570 DUP3 PUSH2 0x551 JUMP JUMPDEST DUP5 DUP5 SLOAD PUSH2 0x4D3 JUMP JUMPDEST DUP3 SSTORE POP POP POP POP JUMP JUMPDEST PUSH1 0x0 SWAP1 JUMP JUMPDEST PUSH2 0x58D PUSH2 0x580 JUMP JUMPDEST PUSH2 0x598 DUP2 DUP5 DUP5 PUSH2 0x55B JUMP JUMPDEST POP POP POP JUMP JUMPDEST JUMPDEST DUP2 DUP2 LT ISZERO PUSH2 0x5BC JUMPI PUSH2 0x5B1 PUSH1 0x0 DUP3 PUSH2 0x585 JUMP JUMPDEST PUSH1 0x1 DUP2 ADD SWAP1 POP PUSH2 0x59E JUMP JUMPDEST POP POP JUMP JUMPDEST PUSH1 0x1F DUP3 GT ISZERO PUSH2 0x601 JUMPI PUSH2 0x5D2 DUP2 PUSH2 0x4A1 JUMP JUMPDEST PUSH2 0x5DB DUP5 PUSH2 0x4B6 JUMP JUMPDEST DUP2 ADD PUSH1 0x20 DUP6 LT ISZERO PUSH2 0x5EA JUMPI DUP2 SWAP1 POP JUMPDEST PUSH2 0x5FE PUSH2 0x5F6 DUP6 PUSH2 0x4B6 JUMP JUMPDEST DUP4 ADD DUP3 PUSH2 0x59D JUMP JUMPDEST POP POP JUMPDEST POP POP POP JUMP JUMPDEST PUSH1 0x0 DUP3 DUP3 SHR SWAP1 POP SWAP3 SWAP2 POP POP JUMP JUMPDEST PUSH1 0x0 PUSH2 0x624 PUSH1 0x0 NOT DUP5 PUSH1 0x8 MUL PUSH2 0x606 JUMP JUMPDEST NOT DUP1 DUP4 AND SWAP2 POP POP SWAP3 SWAP2 POP POP JUMP JUMPDEST PUSH1 0x0 PUSH2 0x63D DUP4 DUP4 PUSH2 0x613 JUMP JUMPDEST SWAP2 POP DUP3 PUSH1 0x2 MUL DUP3 OR SWAP1 POP SWAP3 SWAP2 POP POP JUMP JUMPDEST PUSH2 0x656 DUP3 PUSH2 0x331 JUMP JUMPDEST PUSH8 0xFFFFFFFFFFFFFFFF DUP2 GT ISZERO PUSH2 0x66F JUMPI PUSH2 0x66E PUSH2 0x472 JUMP JUMPDEST JUMPDEST PUSH2 0x679 DUP3 SLOAD PUSH2 0x412 JUMP JUMPDEST PUSH2 0x684 DUP3 DUP3 DUP6 PUSH2 0x5C0 JUMP JUMPDEST PUSH1 0x0 PUSH1 0x20 SWAP1 POP PUSH1 0x1F DUP4 GT PUSH1 0x1 DUP2 EQ PUSH2 0x6B7 JUMPI PUSH1 0x0 DUP5 ISZERO PUSH2 0x6A5 JUMPI DUP3 DUP8 ADD MLOAD SWAP1 POP JUMPDEST PUSH2 0x6AF DUP6 DUP3 PUSH2 0x631 JUMP JUMPDEST DUP7 SSTORE POP PUSH2 0x717 JUMP JUMPDEST PUSH1 0x1F NOT DUP5 AND PUSH2 0x6C5 DUP7 PUSH2 0x4A1 JUMP JUMPDEST PUSH1 0x0 JUMPDEST DUP3 DUP2 LT ISZERO PUSH2 0x6ED JUMPI DUP5 DUP10 ADD MLOAD DUP3 SSTORE PUSH1 0x1 DUP3 ADD SWAP2 POP PUSH1 0x20 DUP6 ADD SWAP5 POP PUSH1 0x20 DUP2 ADD SWAP1 POP PUSH2 0x6C8 JUMP JUMPDEST DUP7 DUP4 LT ISZERO PUSH2 0x70A JUMPI DUP5 DUP10 ADD MLOAD PUSH2 0x706 PUSH1 0x1F DUP10 AND DUP3 PUSH2 0x613 JUMP JUMPDEST DUP4 SSTORE POP JUMPDEST PUSH1 0x1 PUSH1 0x2 DUP9 MUL ADD DUP9 SSTORE POP POP POP JUMPDEST POP POP POP POP POP POP JUMP INVALID LOG2 PUSH5 0x6970667358 0x22 SLT KECCAK256 DUP1 OR 0xB9 PUSH13 0xCB7A995DD3CF7CEBA8049ABF61 PUSH5 0x21280619C8 DUP2 CALL SLOAD 0xBA 0x24 CHAINID 0xFC 0xE8 PUSH9 0x64736F6C6343000812 STOP CALLER "
				},
				"gasEstimates": {
					"creation": {
						"codeDepositCost": "375400",
						"executionCost": "infinite",
						"totalCost": "infinite"
					},
					"external": {
						"setter()": "infinite",
						"store()": "infinite",
						"students(uint256)": "infinite"
					}
				},
				"methodIdentifiers": {
					"setter()": "3f3108f7",
					"store()": "975057e7",
					"students(uint256)": "06ead22e"
				}
			},
			"storageLayout": {
				"storage": [
					{
						"astId": 8,
						"contract": "Basics of Solidity/StoragevsMemory.sol:Mappings",
						"label": "students",
						"offset": 0,
						"slot": "0",
						"type": "t_array(t_string_storage)dyn_storage"
					}
				],
				"types": {
					"t_array(t_string_storage)dyn_storage": {
						"base": "t_string_storage",
						"encoding": "dynamic_array",
						"label": "string[]",
						"numberOfBytes": "32"
					},
					"t_string_storage": {
						"encoding": "bytes",
						"label": "string",
						"numberOfBytes": "32"
					}
				}
			},
			"userdoc": {
				"kind": "user",
				"methods": {},
				"version": 1
			}
		}
	}
}