{
	"Basics of Solidity/ByteArrays.sol": {
		"ByteArrays": {
			"abi": [
				{
					"inputs": [],
					"name": "b2",
					"outputs": [
						{
							"internalType": "bytes2",
							"name": "",
							"type": "bytes2"
						}
					],
					"stateMutability": "view",
					"type": "function"
				},
				{
					"inputs": [],
					"name": "b3",
					"outputs": [
						{
							"internalType": "bytes3",
							"name": "",
							"type": "bytes3"
						}
					],
					"stateMutability": "view",
					"type": "function"
				},
				{
					"inputs": [],
					"name": "setter",
					"outputs": [],
					"stateMutability": "nonpayable",
					"type": "function"
				}
			],
			"devdoc": {
				"kind": "dev",
				"methods": {},
				"version": 1
			},
			"evm": {
				"assembly": "    /* \"Basics of Solidity/ByteArrays.sol\":72:415  contract ByteArrays{... */\n  mstore(0x40, 0x80)\n  callvalue\n  dup1\n  iszero\n  tag_1\n  jumpi\n  0x00\n  dup1\n  revert\ntag_1:\n  pop\n  dataSize(sub_0)\n  dup1\n  dataOffset(sub_0)\n  0x00\n  codecopy\n  0x00\n  return\nstop\n\nsub_0: assembly {\n        /* \"Basics of Solidity/ByteArrays.sol\":72:415  contract ByteArrays{... */\n      mstore(0x40, 0x80)\n      callvalue\n      dup1\n      iszero\n      tag_1\n      jumpi\n      0x00\n      dup1\n      revert\n    tag_1:\n      pop\n      jumpi(tag_2, lt(calldatasize, 0x04))\n      shr(0xe0, calldataload(0x00))\n      dup1\n      0x0add6ef2\n      eq\n      tag_3\n      jumpi\n      dup1\n      0x3f3108f7\n      eq\n      tag_4\n      jumpi\n      dup1\n      0xe9b61909\n      eq\n      tag_5\n      jumpi\n    tag_2:\n      0x00\n      dup1\n      revert\n        /* \"Basics of Solidity/ByteArrays.sol\":130:146  bytes2 public b2 */\n    tag_3:\n      tag_6\n      tag_7\n      jump\t// in\n    tag_6:\n      mload(0x40)\n      tag_8\n      swap2\n      swap1\n      tag_9\n      jump\t// in\n    tag_8:\n      mload(0x40)\n      dup1\n      swap2\n      sub\n      swap1\n      return\n        /* \"Basics of Solidity/ByteArrays.sol\":155:410  function setter() public{... */\n    tag_4:\n      tag_10\n      tag_11\n      jump\t// in\n    tag_10:\n      stop\n        /* \"Basics of Solidity/ByteArrays.sol\":107:123  bytes3 public b3 */\n    tag_5:\n      tag_12\n      tag_13\n      jump\t// in\n    tag_12:\n      mload(0x40)\n      tag_14\n      swap2\n      swap1\n      tag_15\n      jump\t// in\n    tag_14:\n      mload(0x40)\n      dup1\n      swap2\n      sub\n      swap1\n      return\n        /* \"Basics of Solidity/ByteArrays.sol\":130:146  bytes2 public b2 */\n    tag_7:\n      0x00\n      0x03\n      swap1\n      sload\n      swap1\n      0x0100\n      exp\n      swap1\n      div\n      0xf0\n      shl\n      dup2\n      jump\t// out\n        /* \"Basics of Solidity/ByteArrays.sol\":155:410  function setter() public{... */\n    tag_11:\n        /* \"Basics of Solidity/ByteArrays.sol\":190:200  b3 = 'abc' */\n      0x6162630000000000000000000000000000000000000000000000000000000000\n        /* \"Basics of Solidity/ByteArrays.sol\":190:192  b3 */\n      0x00\n      dup1\n        /* \"Basics of Solidity/ByteArrays.sol\":190:200  b3 = 'abc' */\n      0x0100\n      exp\n      dup2\n      sload\n      dup2\n      0xffffff\n      mul\n      not\n      and\n      swap1\n      dup4\n      0xe8\n      shr\n      mul\n      or\n      swap1\n      sstore\n      pop\n        /* \"Basics of Solidity/ByteArrays.sol\":211:220  b2 = 'ab' */\n      0x6162000000000000000000000000000000000000000000000000000000000000\n        /* \"Basics of Solidity/ByteArrays.sol\":211:213  b2 */\n      0x00\n      0x03\n        /* \"Basics of Solidity/ByteArrays.sol\":211:220  b2 = 'ab' */\n      0x0100\n      exp\n      dup2\n      sload\n      dup2\n      0xffff\n      mul\n      not\n      and\n      swap1\n      dup4\n      0xf0\n      shr\n      mul\n      or\n      swap1\n      sstore\n      pop\n        /* \"Basics of Solidity/ByteArrays.sol\":155:410  function setter() public{... */\n      jump\t// out\n        /* \"Basics of Solidity/ByteArrays.sol\":107:123  bytes3 public b3 */\n    tag_13:\n      0x00\n      dup1\n      sload\n      swap1\n      0x0100\n      exp\n      swap1\n      div\n      0xe8\n      shl\n      dup2\n      jump\t// out\n        /* \"#utility.yul\":7:156   */\n    tag_17:\n        /* \"#utility.yul\":43:50   */\n      0x00\n        /* \"#utility.yul\":83:149   */\n      0xffff000000000000000000000000000000000000000000000000000000000000\n        /* \"#utility.yul\":76:81   */\n      dup3\n        /* \"#utility.yul\":72:150   */\n      and\n        /* \"#utility.yul\":61:150   */\n      swap1\n      pop\n        /* \"#utility.yul\":7:156   */\n      swap2\n      swap1\n      pop\n      jump\t// out\n        /* \"#utility.yul\":162:277   */\n    tag_18:\n        /* \"#utility.yul\":247:270   */\n      tag_24\n        /* \"#utility.yul\":264:269   */\n      dup2\n        /* \"#utility.yul\":247:270   */\n      tag_17\n      jump\t// in\n    tag_24:\n        /* \"#utility.yul\":242:245   */\n      dup3\n        /* \"#utility.yul\":235:271   */\n      mstore\n        /* \"#utility.yul\":162:277   */\n      pop\n      pop\n      jump\t// out\n        /* \"#utility.yul\":283:501   */\n    tag_9:\n        /* \"#utility.yul\":374:378   */\n      0x00\n        /* \"#utility.yul\":412:414   */\n      0x20\n        /* \"#utility.yul\":401:410   */\n      dup3\n        /* \"#utility.yul\":397:415   */\n      add\n        /* \"#utility.yul\":389:415   */\n      swap1\n      pop\n        /* \"#utility.yul\":425:494   */\n      tag_26\n        /* \"#utility.yul\":491:492   */\n      0x00\n        /* \"#utility.yul\":480:489   */\n      dup4\n        /* \"#utility.yul\":476:493   */\n      add\n        /* \"#utility.yul\":467:473   */\n      dup5\n        /* \"#utility.yul\":425:494   */\n      tag_18\n      jump\t// in\n    tag_26:\n        /* \"#utility.yul\":283:501   */\n      swap3\n      swap2\n      pop\n      pop\n      jump\t// out\n        /* \"#utility.yul\":507:656   */\n    tag_19:\n        /* \"#utility.yul\":543:550   */\n      0x00\n        /* \"#utility.yul\":583:649   */\n      0xffffff0000000000000000000000000000000000000000000000000000000000\n        /* \"#utility.yul\":576:581   */\n      dup3\n        /* \"#utility.yul\":572:650   */\n      and\n        /* \"#utility.yul\":561:650   */\n      swap1\n      pop\n        /* \"#utility.yul\":507:656   */\n      swap2\n      swap1\n      pop\n      jump\t// out\n        /* \"#utility.yul\":662:777   */\n    tag_20:\n        /* \"#utility.yul\":747:770   */\n      tag_29\n        /* \"#utility.yul\":764:769   */\n      dup2\n        /* \"#utility.yul\":747:770   */\n      tag_19\n      jump\t// in\n    tag_29:\n        /* \"#utility.yul\":742:745   */\n      dup3\n        /* \"#utility.yul\":735:771   */\n      mstore\n        /* \"#utility.yul\":662:777   */\n      pop\n      pop\n      jump\t// out\n        /* \"#utility.yul\":783:1001   */\n    tag_15:\n        /* \"#utility.yul\":874:878   */\n      0x00\n        /* \"#utility.yul\":912:914   */\n      0x20\n        /* \"#utility.yul\":901:910   */\n      dup3\n        /* \"#utility.yul\":897:915   */\n      add\n        /* \"#utility.yul\":889:915   */\n      swap1\n      pop\n        /* \"#utility.yul\":925:994   */\n      tag_31\n        /* \"#utility.yul\":991:992   */\n      0x00\n        /* \"#utility.yul\":980:989   */\n      dup4\n        /* \"#utility.yul\":976:993   */\n      add\n        /* \"#utility.yul\":967:973   */\n      dup5\n        /* \"#utility.yul\":925:994   */\n      tag_20\n      jump\t// in\n    tag_31:\n        /* \"#utility.yul\":783:1001   */\n      swap3\n      swap2\n      pop\n      pop\n      jump\t// out\n\n    auxdata: 0xa26469706673582212207b89a37c09758e6e53cbde9a845b3283f76f413bfd2eb8cdb8ed45da880b7edf64736f6c63430008140033\n}\n",
				"bytecode": {
					"linkReferences": {},
					"object": "608060405234801561000f575f80fd5b506101ff8061001d5f395ff3fe608060405234801561000f575f80fd5b506004361061003f575f3560e01c80630add6ef2146100435780633f3108f714610061578063e9b619091461006b575b5f80fd5b61004b610089565b604051610058919061015d565b60405180910390f35b61006961009b565b005b610073610113565b60405161008091906101b0565b60405180910390f35b5f60039054906101000a900460f01b81565b7f61626300000000000000000000000000000000000000000000000000000000005f806101000a81548162ffffff021916908360e81c02179055507f61620000000000000000000000000000000000000000000000000000000000005f60036101000a81548161ffff021916908360f01c0217905550565b5f8054906101000a900460e81b81565b5f7fffff00000000000000000000000000000000000000000000000000000000000082169050919050565b61015781610123565b82525050565b5f6020820190506101705f83018461014e565b92915050565b5f7fffffff000000000000000000000000000000000000000000000000000000000082169050919050565b6101aa81610176565b82525050565b5f6020820190506101c35f8301846101a1565b9291505056fea26469706673582212207b89a37c09758e6e53cbde9a845b3283f76f413bfd2eb8cdb8ed45da880b7edf64736f6c63430008140033",
					"opcodes": "PUSH1 0x80 PUSH1 0x40 MSTORE CALLVALUE DUP1 ISZERO PUSH2 0xF JUMPI PUSH0 DUP1 REVERT JUMPDEST POP PUSH2 0x1FF DUP1 PUSH2 0x1D PUSH0 CODECOPY PUSH0 RETURN INVALID PUSH1 0x80 PUSH1 0x40 MSTORE CALLVALUE DUP1 ISZERO PUSH2 0xF JUMPI PUSH0 DUP1 REVERT JUMPDEST POP PUSH1 0x4 CALLDATASIZE LT PUSH2 0x3F JUMPI PUSH0 CALLDATALOAD PUSH1 0xE0 SHR DUP1 PUSH4 0xADD6EF2 EQ PUSH2 0x43 JUMPI DUP1 PUSH4 0x3F3108F7 EQ PUSH2 0x61 JUMPI DUP1 PUSH4 0xE9B61909 EQ PUSH2 0x6B JUMPI JUMPDEST PUSH0 DUP1 REVERT JUMPDEST PUSH2 0x4B PUSH2 0x89 JUMP JUMPDEST PUSH1 0x40 MLOAD PUSH2 0x58 SWAP2 SWAP1 PUSH2 0x15D JUMP JUMPDEST PUSH1 0x40 MLOAD DUP1 SWAP2 SUB SWAP1 RETURN JUMPDEST PUSH2 0x69 PUSH2 0x9B JUMP JUMPDEST STOP JUMPDEST PUSH2 0x73 PUSH2 0x113 JUMP JUMPDEST PUSH1 0x40 MLOAD PUSH2 0x80 SWAP2 SWAP1 PUSH2 0x1B0 JUMP JUMPDEST PUSH1 0x40 MLOAD DUP1 SWAP2 SUB SWAP1 RETURN JUMPDEST PUSH0 PUSH1 0x3 SWAP1 SLOAD SWAP1 PUSH2 0x100 EXP SWAP1 DIV PUSH1 0xF0 SHL DUP2 JUMP JUMPDEST PUSH32 0x6162630000000000000000000000000000000000000000000000000000000000 PUSH0 DUP1 PUSH2 0x100 EXP DUP2 SLOAD DUP2 PUSH3 0xFFFFFF MUL NOT AND SWAP1 DUP4 PUSH1 0xE8 SHR MUL OR SWAP1 SSTORE POP PUSH32 0x6162000000000000000000000000000000000000000000000000000000000000 PUSH0 PUSH1 0x3 PUSH2 0x100 EXP DUP2 SLOAD DUP2 PUSH2 0xFFFF MUL NOT AND SWAP1 DUP4 PUSH1 0xF0 SHR MUL OR SWAP1 SSTORE POP JUMP JUMPDEST PUSH0 DUP1 SLOAD SWAP1 PUSH2 0x100 EXP SWAP1 DIV PUSH1 0xE8 SHL DUP2 JUMP JUMPDEST PUSH0 PUSH32 0xFFFF000000000000000000000000000000000000000000000000000000000000 DUP3 AND SWAP1 POP SWAP2 SWAP1 POP JUMP JUMPDEST PUSH2 0x157 DUP2 PUSH2 0x123 JUMP JUMPDEST DUP3 MSTORE POP POP JUMP JUMPDEST PUSH0 PUSH1 0x20 DUP3 ADD SWAP1 POP PUSH2 0x170 PUSH0 DUP4 ADD DUP5 PUSH2 0x14E JUMP JUMPDEST SWAP3 SWAP2 POP POP JUMP JUMPDEST PUSH0 PUSH32 0xFFFFFF0000000000000000000000000000000000000000000000000000000000 DUP3 AND SWAP1 POP SWAP2 SWAP1 POP JUMP JUMPDEST PUSH2 0x1AA DUP2 PUSH2 0x176 JUMP JUMPDEST DUP3 MSTORE POP POP JUMP JUMPDEST PUSH0 PUSH1 0x20 DUP3 ADD SWAP1 POP PUSH2 0x1C3 PUSH0 DUP4 ADD DUP5 PUSH2 0x1A1 JUMP JUMPDEST SWAP3 SWAP2 POP POP JUMP INVALID LOG2 PUSH5 0x6970667358 0x22 SLT KECCAK256 PUSH28 0x89A37C09758E6E53CBDE9A845B3283F76F413BFD2EB8CDB8ED45DA88 SIGNEXTEND PUSH31 0xDF64736F6C6343000814003300000000000000000000000000000000000000 "
				},
				"gasEstimates": {
					"creation": {
						"codeDepositCost": "102200",
						"executionCost": "145",
						"totalCost": "102345"
					},
					"external": {
						"b2()": "2494",
						"b3()": "2485",
						"setter()": "48725"
					}
				},
				"methodIdentifiers": {
					"b2()": "0add6ef2",
					"b3()": "e9b61909",
					"setter()": "3f3108f7"
				}
			},
			"storageLayout": {
				"storage": [
					{
						"astId": 3,
						"contract": "Basics of Solidity/ByteArrays.sol:ByteArrays",
						"label": "b3",
						"offset": 0,
						"slot": "0",
						"type": "t_bytes3"
					},
					{
						"astId": 5,
						"contract": "Basics of Solidity/ByteArrays.sol:ByteArrays",
						"label": "b2",
						"offset": 3,
						"slot": "0",
						"type": "t_bytes2"
					}
				],
				"types": {
					"t_bytes2": {
						"encoding": "inplace",
						"label": "bytes2",
						"numberOfBytes": "2"
					},
					"t_bytes3": {
						"encoding": "inplace",
						"label": "bytes3",
						"numberOfBytes": "3"
					}
				}
			},
			"userdoc": {
				"kind": "user",
				"methods": {},
				"version": 1
			}
		}
	}
}