{
	"Basics/StateVariables.sol": {
		"State": {
			"abi": [
				{
					"inputs": [],
					"stateMutability": "nonpayable",
					"type": "constructor"
				},
				{
					"inputs": [],
					"name": "age",
					"outputs": [
						{
							"internalType": "uint256",
							"name": "",
							"type": "uint256"
						}
					],
					"stateMutability": "view",
					"type": "function"
				},
				{
					"inputs": [],
					"name": "num",
					"outputs": [
						{
							"internalType": "uint256",
							"name": "",
							"type": "uint256"
						}
					],
					"stateMutability": "view",
					"type": "function"
				},
				{
					"inputs": [],
					"name": "setAge",
					"outputs": [],
					"stateMutability": "nonpayable",
					"type": "function"
				}
			],
			"devdoc": {
				"kind": "dev",
				"methods": {},
				"version": 1
			},
			"evm": {
				"assembly": "    /* \"Basics/StateVariables.sol\":72:434  contract State{... */\n  mstore(0x40, 0x80)\n    /* \"Basics/StateVariables.sol\":330:371  constructor() {... */\n  callvalue\n  dup1\n  iszero\n  tag_1\n  jumpi\n  0x00\n  dup1\n  revert\ntag_1:\n  pop\n    /* \"Basics/StateVariables.sol\":361:363  21 */\n  0x15\n    /* \"Basics/StateVariables.sol\":355:358  age */\n  0x00\n    /* \"Basics/StateVariables.sol\":355:363  age = 21 */\n  dup2\n  swap1\n  sstore\n  pop\n    /* \"Basics/StateVariables.sol\":72:434  contract State{... */\n  dataSize(sub_0)\n  dup1\n  dataOffset(sub_0)\n  0x00\n  codecopy\n  0x00\n  return\nstop\n\nsub_0: assembly {\n        /* \"Basics/StateVariables.sol\":72:434  contract State{... */\n      mstore(0x40, 0x80)\n      callvalue\n      dup1\n      iszero\n      tag_1\n      jumpi\n      0x00\n      dup1\n      revert\n    tag_1:\n      pop\n      jumpi(tag_2, lt(calldatasize, 0x04))\n      shr(0xe0, calldataload(0x00))\n      dup1\n      0x262a9dff\n      eq\n      tag_3\n      jumpi\n      dup1\n      0x457676ee\n      eq\n      tag_4\n      jumpi\n      dup1\n      0x4e70b1dc\n      eq\n      tag_5\n      jumpi\n    tag_2:\n      0x00\n      dup1\n      revert\n        /* \"Basics/StateVariables.sol\":95:110  uint public age */\n    tag_3:\n      tag_6\n      tag_7\n      jump\t// in\n    tag_6:\n      mload(0x40)\n      tag_8\n      swap2\n      swap1\n      tag_9\n      jump\t// in\n    tag_8:\n      mload(0x40)\n      dup1\n      swap2\n      sub\n      swap1\n      return\n        /* \"Basics/StateVariables.sol\":379:431  function setAge() public {... */\n    tag_4:\n      tag_10\n      tag_11\n      jump\t// in\n    tag_10:\n      stop\n        /* \"Basics/StateVariables.sol\":117:132  uint public num */\n    tag_5:\n      tag_12\n      tag_13\n      jump\t// in\n    tag_12:\n      mload(0x40)\n      tag_14\n      swap2\n      swap1\n      tag_9\n      jump\t// in\n    tag_14:\n      mload(0x40)\n      dup1\n      swap2\n      sub\n      swap1\n      return\n        /* \"Basics/StateVariables.sol\":95:110  uint public age */\n    tag_7:\n      sload(0x00)\n      dup2\n      jump\t// out\n        /* \"Basics/StateVariables.sol\":379:431  function setAge() public {... */\n    tag_11:\n        /* \"Basics/StateVariables.sol\":421:423  21 */\n      0x15\n        /* \"Basics/StateVariables.sol\":415:418  age */\n      0x00\n        /* \"Basics/StateVariables.sol\":415:423  age = 21 */\n      dup2\n      swap1\n      sstore\n      pop\n        /* \"Basics/StateVariables.sol\":379:431  function setAge() public {... */\n      jump\t// out\n        /* \"Basics/StateVariables.sol\":117:132  uint public num */\n    tag_13:\n      sload(0x01)\n      dup2\n      jump\t// out\n        /* \"#utility.yul\":7:84   */\n    tag_16:\n        /* \"#utility.yul\":44:51   */\n      0x00\n        /* \"#utility.yul\":73:78   */\n      dup2\n        /* \"#utility.yul\":62:78   */\n      swap1\n      pop\n        /* \"#utility.yul\":7:84   */\n      swap2\n      swap1\n      pop\n      jump\t// out\n        /* \"#utility.yul\":90:208   */\n    tag_17:\n        /* \"#utility.yul\":177:201   */\n      tag_21\n        /* \"#utility.yul\":195:200   */\n      dup2\n        /* \"#utility.yul\":177:201   */\n      tag_16\n      jump\t// in\n    tag_21:\n        /* \"#utility.yul\":172:175   */\n      dup3\n        /* \"#utility.yul\":165:202   */\n      mstore\n        /* \"#utility.yul\":90:208   */\n      pop\n      pop\n      jump\t// out\n        /* \"#utility.yul\":214:436   */\n    tag_9:\n        /* \"#utility.yul\":307:311   */\n      0x00\n        /* \"#utility.yul\":345:347   */\n      0x20\n        /* \"#utility.yul\":334:343   */\n      dup3\n        /* \"#utility.yul\":330:348   */\n      add\n        /* \"#utility.yul\":322:348   */\n      swap1\n      pop\n        /* \"#utility.yul\":358:429   */\n      tag_23\n        /* \"#utility.yul\":426:427   */\n      0x00\n        /* \"#utility.yul\":415:424   */\n      dup4\n        /* \"#utility.yul\":411:428   */\n      add\n        /* \"#utility.yul\":402:408   */\n      dup5\n        /* \"#utility.yul\":358:429   */\n      tag_17\n      jump\t// in\n    tag_23:\n        /* \"#utility.yul\":214:436   */\n      swap3\n      swap2\n      pop\n      pop\n      jump\t// out\n\n    auxdata: 0xa2646970667358221220efd6e62d0745ce53290cdecafc6f62392d26806358b4c2684d3997a19e31494664736f6c63430008120033\n}\n",
				"bytecode": {
					"linkReferences": {},
					"object": "608060405234801561001057600080fd5b50601560008190555060f9806100276000396000f3fe6080604052348015600f57600080fd5b5060043610603c5760003560e01c8063262a9dff146041578063457676ee14605b5780634e70b1dc146063575b600080fd5b6047607d565b6040516052919060aa565b60405180910390f35b60616083565b005b6069608d565b6040516074919060aa565b60405180910390f35b60005481565b6015600081905550565b60015481565b6000819050919050565b60a4816093565b82525050565b600060208201905060bd6000830184609d565b9291505056fea2646970667358221220efd6e62d0745ce53290cdecafc6f62392d26806358b4c2684d3997a19e31494664736f6c63430008120033",
					"opcodes": "PUSH1 0x80 PUSH1 0x40 MSTORE CALLVALUE DUP1 ISZERO PUSH2 0x10 JUMPI PUSH1 0x0 DUP1 REVERT JUMPDEST POP PUSH1 0x15 PUSH1 0x0 DUP2 SWAP1 SSTORE POP PUSH1 0xF9 DUP1 PUSH2 0x27 PUSH1 0x0 CODECOPY PUSH1 0x0 RETURN INVALID PUSH1 0x80 PUSH1 0x40 MSTORE CALLVALUE DUP1 ISZERO PUSH1 0xF JUMPI PUSH1 0x0 DUP1 REVERT JUMPDEST POP PUSH1 0x4 CALLDATASIZE LT PUSH1 0x3C JUMPI PUSH1 0x0 CALLDATALOAD PUSH1 0xE0 SHR DUP1 PUSH4 0x262A9DFF EQ PUSH1 0x41 JUMPI DUP1 PUSH4 0x457676EE EQ PUSH1 0x5B JUMPI DUP1 PUSH4 0x4E70B1DC EQ PUSH1 0x63 JUMPI JUMPDEST PUSH1 0x0 DUP1 REVERT JUMPDEST PUSH1 0x47 PUSH1 0x7D JUMP JUMPDEST PUSH1 0x40 MLOAD PUSH1 0x52 SWAP2 SWAP1 PUSH1 0xAA JUMP JUMPDEST PUSH1 0x40 MLOAD DUP1 SWAP2 SUB SWAP1 RETURN JUMPDEST PUSH1 0x61 PUSH1 0x83 JUMP JUMPDEST STOP JUMPDEST PUSH1 0x69 PUSH1 0x8D JUMP JUMPDEST PUSH1 0x40 MLOAD PUSH1 0x74 SWAP2 SWAP1 PUSH1 0xAA JUMP JUMPDEST PUSH1 0x40 MLOAD DUP1 SWAP2 SUB SWAP1 RETURN JUMPDEST PUSH1 0x0 SLOAD DUP2 JUMP JUMPDEST PUSH1 0x15 PUSH1 0x0 DUP2 SWAP1 SSTORE POP JUMP JUMPDEST PUSH1 0x1 SLOAD DUP2 JUMP JUMPDEST PUSH1 0x0 DUP2 SWAP1 POP SWAP2 SWAP1 POP JUMP JUMPDEST PUSH1 0xA4 DUP2 PUSH1 0x93 JUMP JUMPDEST DUP3 MSTORE POP POP JUMP JUMPDEST PUSH1 0x0 PUSH1 0x20 DUP3 ADD SWAP1 POP PUSH1 0xBD PUSH1 0x0 DUP4 ADD DUP5 PUSH1 0x9D JUMP JUMPDEST SWAP3 SWAP2 POP POP JUMP INVALID LOG2 PUSH5 0x6970667358 0x22 SLT KECCAK256 0xEF 0xD6 0xE6 0x2D SMOD GASLIMIT 0xCE MSTORE8 0x29 0xC 0xDE 0xCA 0xFC PUSH16 0x62392D26806358B4C2684D3997A19E31 0x49 CHAINID PUSH5 0x736F6C6343 STOP ADDMOD SLT STOP CALLER "
				},
				"gasEstimates": {
					"creation": {
						"codeDepositCost": "49800",
						"executionCost": "22213",
						"totalCost": "72013"
					},
					"external": {
						"age()": "2407",
						"num()": "2451",
						"setAge()": "22258"
					}
				},
				"methodIdentifiers": {
					"age()": "262a9dff",
					"num()": "4e70b1dc",
					"setAge()": "457676ee"
				}
			},
			"storageLayout": {
				"storage": [
					{
						"astId": 3,
						"contract": "Basics/StateVariables.sol:State",
						"label": "age",
						"offset": 0,
						"slot": "0",
						"type": "t_uint256"
					},
					{
						"astId": 5,
						"contract": "Basics/StateVariables.sol:State",
						"label": "num",
						"offset": 0,
						"slot": "1",
						"type": "t_uint256"
					}
				],
				"types": {
					"t_uint256": {
						"encoding": "inplace",
						"label": "uint256",
						"numberOfBytes": "32"
					}
				}
			},
			"userdoc": {
				"kind": "user",
				"methods": {},
				"version": 1
			}
		}
	}
}