{
	"Basics of Solidity/IfElse.sol": {
		"Ifelse": {
			"abi": [
				{
					"inputs": [
						{
							"internalType": "uint256",
							"name": "",
							"type": "uint256"
						}
					],
					"name": "arr",
					"outputs": [
						{
							"internalType": "uint256",
							"name": "",
							"type": "uint256"
						}
					],
					"stateMutability": "view",
					"type": "function"
				},
				{
					"inputs": [
						{
							"internalType": "uint256",
							"name": "index",
							"type": "uint256"
						},
						{
							"internalType": "uint256",
							"name": "value",
							"type": "uint256"
						}
					],
					"name": "check",
					"outputs": [],
					"stateMutability": "nonpayable",
					"type": "function"
				},
				{
					"inputs": [],
					"name": "count",
					"outputs": [
						{
							"internalType": "uint256",
							"name": "",
							"type": "uint256"
						}
					],
					"stateMutability": "view",
					"type": "function"
				},
				{
					"inputs": [],
					"name": "mem",
					"outputs": [
						{
							"internalType": "string",
							"name": "",
							"type": "string"
						}
					],
					"stateMutability": "view",
					"type": "function"
				}
			],
			"devdoc": {
				"kind": "dev",
				"methods": {},
				"version": 1
			},
			"evm": {
				"assembly": "    /* \"Basics of Solidity/IfElse.sol\":72:496  contract Ifelse{... */\n  mstore(0x40, 0x80)\n    /* \"Basics of Solidity/IfElse.sol\":103:134  uint[3] public arr = [20,30,59] */\n  mload(0x40)\n  dup1\n  0x60\n  add\n  0x40\n  mstore\n  dup1\n    /* \"Basics of Solidity/IfElse.sol\":125:127  20 */\n  0x14\n    /* \"Basics of Solidity/IfElse.sol\":103:134  uint[3] public arr = [20,30,59] */\n  0xff\n  and\n  dup2\n  mstore\n  0x20\n  add\n    /* \"Basics of Solidity/IfElse.sol\":128:130  30 */\n  0x1e\n    /* \"Basics of Solidity/IfElse.sol\":103:134  uint[3] public arr = [20,30,59] */\n  0xff\n  and\n  dup2\n  mstore\n  0x20\n  add\n    /* \"Basics of Solidity/IfElse.sol\":131:133  59 */\n  0x3b\n    /* \"Basics of Solidity/IfElse.sol\":103:134  uint[3] public arr = [20,30,59] */\n  0xff\n  and\n  dup2\n  mstore\n  pop\n  0x00\n  swap1\n  0x03\n  tag_1\n  swap3\n  swap2\n  swap1\n  tag_2\n  jump\t// in\ntag_1:\n  pop\n    /* \"Basics of Solidity/IfElse.sol\":161:162  0 */\n  0x00\n    /* \"Basics of Solidity/IfElse.sol\":141:162  uint public count = 0 */\n  0x03\n  sstore\n    /* \"Basics of Solidity/IfElse.sol\":72:496  contract Ifelse{... */\n  callvalue\n  dup1\n  iszero\n  tag_3\n  jumpi\n  0x00\n  dup1\n  revert\ntag_3:\n  pop\n  jump(tag_4)\ntag_2:\n  dup3\n  0x03\n  dup2\n  add\n  swap3\n  dup3\n  iszero\n  tag_5\n  jumpi\n  swap2\n  0x20\n  mul\n  dup3\n  add\ntag_6:\n  dup3\n  dup2\n  gt\n  iszero\n  tag_7\n  jumpi\n  dup3\n  mload\n  dup3\n  swap1\n  0xff\n  and\n  swap1\n  sstore\n  swap2\n  0x20\n  add\n  swap2\n  swap1\n  0x01\n  add\n  swap1\n  jump(tag_6)\ntag_7:\ntag_5:\n  pop\n  swap1\n  pop\n  tag_8\n  swap2\n  swap1\n  tag_9\n  jump\t// in\ntag_8:\n  pop\n  swap1\n  jump\t// out\ntag_9:\ntag_10:\n  dup1\n  dup3\n  gt\n  iszero\n  tag_11\n  jumpi\n  0x00\n  dup2\n  0x00\n  swap1\n  sstore\n  pop\n  0x01\n  add\n  jump(tag_10)\ntag_11:\n  pop\n  swap1\n  jump\t// out\ntag_4:\n  dataSize(sub_0)\n  dup1\n  dataOffset(sub_0)\n  0x00\n  codecopy\n  0x00\n  return\nstop\n\nsub_0: assembly {\n        /* \"Basics of Solidity/IfElse.sol\":72:496  contract Ifelse{... */\n      mstore(0x40, 0x80)\n      callvalue\n      dup1\n      iszero\n      tag_1\n      jumpi\n      0x00\n      dup1\n      revert\n    tag_1:\n      pop\n      jumpi(tag_2, lt(calldatasize, 0x04))\n      shr(0xe0, calldataload(0x00))\n      dup1\n      0x06661abd\n      eq\n      tag_3\n      jumpi\n      dup1\n      0x71e5ee5f\n      eq\n      tag_4\n      jumpi\n      dup1\n      0x85883d8c\n      eq\n      tag_5\n      jumpi\n      dup1\n      0x8fefd8ea\n      eq\n      tag_6\n      jumpi\n    tag_2:\n      0x00\n      dup1\n      revert\n        /* \"Basics of Solidity/IfElse.sol\":141:162  uint public count = 0 */\n    tag_3:\n      tag_7\n      tag_8\n      jump\t// in\n    tag_7:\n      mload(0x40)\n      tag_9\n      swap2\n      swap1\n      tag_10\n      jump\t// in\n    tag_9:\n      mload(0x40)\n      dup1\n      swap2\n      sub\n      swap1\n      return\n        /* \"Basics of Solidity/IfElse.sol\":103:134  uint[3] public arr = [20,30,59] */\n    tag_4:\n      tag_11\n      0x04\n      dup1\n      calldatasize\n      sub\n      dup2\n      add\n      swap1\n      tag_12\n      swap2\n      swap1\n      tag_13\n      jump\t// in\n    tag_12:\n      tag_14\n      jump\t// in\n    tag_11:\n      mload(0x40)\n      tag_15\n      swap2\n      swap1\n      tag_10\n      jump\t// in\n    tag_15:\n      mload(0x40)\n      dup1\n      swap2\n      sub\n      swap1\n      return\n        /* \"Basics of Solidity/IfElse.sol\":169:186  string public mem */\n    tag_5:\n      tag_16\n      tag_17\n      jump\t// in\n    tag_16:\n      mload(0x40)\n      tag_18\n      swap2\n      swap1\n      tag_19\n      jump\t// in\n    tag_18:\n      mload(0x40)\n      dup1\n      swap2\n      sub\n      swap1\n      return\n        /* \"Basics of Solidity/IfElse.sol\":195:489  function check(uint index , uint value) public{... */\n    tag_6:\n      tag_20\n      0x04\n      dup1\n      calldatasize\n      sub\n      dup2\n      add\n      swap1\n      tag_21\n      swap2\n      swap1\n      tag_22\n      jump\t// in\n    tag_21:\n      tag_23\n      jump\t// in\n    tag_20:\n      stop\n        /* \"Basics of Solidity/IfElse.sol\":141:162  uint public count = 0 */\n    tag_8:\n      sload(0x03)\n      dup2\n      jump\t// out\n        /* \"Basics of Solidity/IfElse.sol\":103:134  uint[3] public arr = [20,30,59] */\n    tag_14:\n      0x00\n      dup2\n      0x03\n      dup2\n      lt\n      tag_24\n      jumpi\n      0x00\n      dup1\n      revert\n    tag_24:\n      add\n      0x00\n      swap2\n      pop\n      swap1\n      pop\n      sload\n      dup2\n      jump\t// out\n        /* \"Basics of Solidity/IfElse.sol\":169:186  string public mem */\n    tag_17:\n      0x04\n      dup1\n      sload\n      tag_26\n      swap1\n      tag_27\n      jump\t// in\n    tag_26:\n      dup1\n      0x1f\n      add\n      0x20\n      dup1\n      swap2\n      div\n      mul\n      0x20\n      add\n      mload(0x40)\n      swap1\n      dup2\n      add\n      0x40\n      mstore\n      dup1\n      swap3\n      swap2\n      swap1\n      dup2\n      dup2\n      mstore\n      0x20\n      add\n      dup3\n      dup1\n      sload\n      tag_28\n      swap1\n      tag_27\n      jump\t// in\n    tag_28:\n      dup1\n      iszero\n      tag_29\n      jumpi\n      dup1\n      0x1f\n      lt\n      tag_30\n      jumpi\n      0x0100\n      dup1\n      dup4\n      sload\n      div\n      mul\n      dup4\n      mstore\n      swap2\n      0x20\n      add\n      swap2\n      jump(tag_29)\n    tag_30:\n      dup3\n      add\n      swap2\n      swap1\n      0x00\n      mstore\n      keccak256(0x00, 0x20)\n      swap1\n    tag_31:\n      dup2\n      sload\n      dup2\n      mstore\n      swap1\n      0x01\n      add\n      swap1\n      0x20\n      add\n      dup1\n      dup4\n      gt\n      tag_31\n      jumpi\n      dup3\n      swap1\n      sub\n      0x1f\n      and\n      dup3\n      add\n      swap2\n    tag_29:\n      pop\n      pop\n      pop\n      pop\n      pop\n      dup2\n      jump\t// out\n        /* \"Basics of Solidity/IfElse.sol\":195:489  function check(uint index , uint value) public{... */\n    tag_23:\n        /* \"Basics of Solidity/IfElse.sol\":300:305  value */\n      dup1\n        /* \"Basics of Solidity/IfElse.sol\":286:289  arr */\n      0x00\n        /* \"Basics of Solidity/IfElse.sol\":290:295  index */\n      dup4\n        /* \"Basics of Solidity/IfElse.sol\":286:296  arr[index] */\n      0x03\n      dup2\n      lt\n      tag_33\n      jumpi\n      tag_34\n      tag_35\n      jump\t// in\n    tag_34:\n    tag_33:\n      add\n      sload\n        /* \"Basics of Solidity/IfElse.sol\":286:305  arr[index] == value */\n      sub\n        /* \"Basics of Solidity/IfElse.sol\":283:482  if(arr[index] == value){... */\n      tag_37\n      jumpi\n        /* \"Basics of Solidity/IfElse.sol\":334:337  255 */\n      0xff\n        /* \"Basics of Solidity/IfElse.sol\":321:324  arr */\n      0x00\n        /* \"Basics of Solidity/IfElse.sol\":325:330  index */\n      dup4\n        /* \"Basics of Solidity/IfElse.sol\":321:331  arr[index] */\n      0x03\n      dup2\n      lt\n      tag_38\n      jumpi\n      tag_39\n      tag_35\n      jump\t// in\n    tag_39:\n    tag_38:\n      add\n        /* \"Basics of Solidity/IfElse.sol\":321:337  arr[index] = 255 */\n      dup2\n      swap1\n      sstore\n      pop\n        /* \"Basics of Solidity/IfElse.sol\":352:377  mem = \"value becomes 255\" */\n      mload(0x40)\n      dup1\n      0x40\n      add\n      0x40\n      mstore\n      dup1\n      0x11\n      dup2\n      mstore\n      0x20\n      add\n      0x76616c7565206265636f6d657320323535000000000000000000000000000000\n      dup2\n      mstore\n      pop\n        /* \"Basics of Solidity/IfElse.sol\":352:355  mem */\n      0x04\n        /* \"Basics of Solidity/IfElse.sol\":352:377  mem = \"value becomes 255\" */\n      swap1\n      dup2\n      tag_41\n      swap2\n      swap1\n      tag_42\n      jump\t// in\n    tag_41:\n      pop\n        /* \"Basics of Solidity/IfElse.sol\":283:482  if(arr[index] == value){... */\n      jump(tag_43)\n    tag_37:\n        /* \"Basics of Solidity/IfElse.sol\":431:432  0 */\n      0x00\n        /* \"Basics of Solidity/IfElse.sol\":418:421  arr */\n      dup1\n        /* \"Basics of Solidity/IfElse.sol\":422:427  index */\n      dup4\n        /* \"Basics of Solidity/IfElse.sol\":418:428  arr[index] */\n      0x03\n      dup2\n      lt\n      tag_44\n      jumpi\n      tag_45\n      tag_35\n      jump\t// in\n    tag_45:\n    tag_44:\n      add\n        /* \"Basics of Solidity/IfElse.sol\":418:432  arr[index] = 0 */\n      dup2\n      swap1\n      sstore\n      pop\n        /* \"Basics of Solidity/IfElse.sol\":447:470  mem = \"value becomes 0\" */\n      mload(0x40)\n      dup1\n      0x40\n      add\n      0x40\n      mstore\n      dup1\n      0x0f\n      dup2\n      mstore\n      0x20\n      add\n      0x76616c7565206265636f6d657320300000000000000000000000000000000000\n      dup2\n      mstore\n      pop\n        /* \"Basics of Solidity/IfElse.sol\":447:450  mem */\n      0x04\n        /* \"Basics of Solidity/IfElse.sol\":447:470  mem = \"value becomes 0\" */\n      swap1\n      dup2\n      tag_47\n      swap2\n      swap1\n      tag_42\n      jump\t// in\n    tag_47:\n      pop\n        /* \"Basics of Solidity/IfElse.sol\":283:482  if(arr[index] == value){... */\n    tag_43:\n        /* \"Basics of Solidity/IfElse.sol\":195:489  function check(uint index , uint value) public{... */\n      pop\n      pop\n      jump\t// out\n        /* \"#utility.yul\":7:84   */\n    tag_48:\n        /* \"#utility.yul\":44:51   */\n      0x00\n        /* \"#utility.yul\":73:78   */\n      dup2\n        /* \"#utility.yul\":62:78   */\n      swap1\n      pop\n        /* \"#utility.yul\":7:84   */\n      swap2\n      swap1\n      pop\n      jump\t// out\n        /* \"#utility.yul\":90:208   */\n    tag_49:\n        /* \"#utility.yul\":177:201   */\n      tag_80\n        /* \"#utility.yul\":195:200   */\n      dup2\n        /* \"#utility.yul\":177:201   */\n      tag_48\n      jump\t// in\n    tag_80:\n        /* \"#utility.yul\":172:175   */\n      dup3\n        /* \"#utility.yul\":165:202   */\n      mstore\n        /* \"#utility.yul\":90:208   */\n      pop\n      pop\n      jump\t// out\n        /* \"#utility.yul\":214:436   */\n    tag_10:\n        /* \"#utility.yul\":307:311   */\n      0x00\n        /* \"#utility.yul\":345:347   */\n      0x20\n        /* \"#utility.yul\":334:343   */\n      dup3\n        /* \"#utility.yul\":330:348   */\n      add\n        /* \"#utility.yul\":322:348   */\n      swap1\n      pop\n        /* \"#utility.yul\":358:429   */\n      tag_82\n        /* \"#utility.yul\":426:427   */\n      0x00\n        /* \"#utility.yul\":415:424   */\n      dup4\n        /* \"#utility.yul\":411:428   */\n      add\n        /* \"#utility.yul\":402:408   */\n      dup5\n        /* \"#utility.yul\":358:429   */\n      tag_49\n      jump\t// in\n    tag_82:\n        /* \"#utility.yul\":214:436   */\n      swap3\n      swap2\n      pop\n      pop\n      jump\t// out\n        /* \"#utility.yul\":523:640   */\n    tag_51:\n        /* \"#utility.yul\":632:633   */\n      0x00\n        /* \"#utility.yul\":629:630   */\n      dup1\n        /* \"#utility.yul\":622:634   */\n      revert\n        /* \"#utility.yul\":769:891   */\n    tag_53:\n        /* \"#utility.yul\":842:866   */\n      tag_87\n        /* \"#utility.yul\":860:865   */\n      dup2\n        /* \"#utility.yul\":842:866   */\n      tag_48\n      jump\t// in\n    tag_87:\n        /* \"#utility.yul\":835:840   */\n      dup2\n        /* \"#utility.yul\":832:867   */\n      eq\n        /* \"#utility.yul\":822:885   */\n      tag_88\n      jumpi\n        /* \"#utility.yul\":881:882   */\n      0x00\n        /* \"#utility.yul\":878:879   */\n      dup1\n        /* \"#utility.yul\":871:883   */\n      revert\n        /* \"#utility.yul\":822:885   */\n    tag_88:\n        /* \"#utility.yul\":769:891   */\n      pop\n      jump\t// out\n        /* \"#utility.yul\":897:1036   */\n    tag_54:\n        /* \"#utility.yul\":943:948   */\n      0x00\n        /* \"#utility.yul\":981:987   */\n      dup2\n        /* \"#utility.yul\":968:988   */\n      calldataload\n        /* \"#utility.yul\":959:988   */\n      swap1\n      pop\n        /* \"#utility.yul\":997:1030   */\n      tag_90\n        /* \"#utility.yul\":1024:1029   */\n      dup2\n        /* \"#utility.yul\":997:1030   */\n      tag_53\n      jump\t// in\n    tag_90:\n        /* \"#utility.yul\":897:1036   */\n      swap3\n      swap2\n      pop\n      pop\n      jump\t// out\n        /* \"#utility.yul\":1042:1371   */\n    tag_13:\n        /* \"#utility.yul\":1101:1107   */\n      0x00\n        /* \"#utility.yul\":1150:1152   */\n      0x20\n        /* \"#utility.yul\":1138:1147   */\n      dup3\n        /* \"#utility.yul\":1129:1136   */\n      dup5\n        /* \"#utility.yul\":1125:1148   */\n      sub\n        /* \"#utility.yul\":1121:1153   */\n      slt\n        /* \"#utility.yul\":1118:1237   */\n      iszero\n      tag_92\n      jumpi\n        /* \"#utility.yul\":1156:1235   */\n      tag_93\n      tag_51\n      jump\t// in\n    tag_93:\n        /* \"#utility.yul\":1118:1237   */\n    tag_92:\n        /* \"#utility.yul\":1276:1277   */\n      0x00\n        /* \"#utility.yul\":1301:1354   */\n      tag_94\n        /* \"#utility.yul\":1346:1353   */\n      dup5\n        /* \"#utility.yul\":1337:1343   */\n      dup3\n        /* \"#utility.yul\":1326:1335   */\n      dup6\n        /* \"#utility.yul\":1322:1344   */\n      add\n        /* \"#utility.yul\":1301:1354   */\n      tag_54\n      jump\t// in\n    tag_94:\n        /* \"#utility.yul\":1291:1354   */\n      swap2\n      pop\n        /* \"#utility.yul\":1247:1364   */\n      pop\n        /* \"#utility.yul\":1042:1371   */\n      swap3\n      swap2\n      pop\n      pop\n      jump\t// out\n        /* \"#utility.yul\":1377:1476   */\n    tag_55:\n        /* \"#utility.yul\":1429:1435   */\n      0x00\n        /* \"#utility.yul\":1463:1468   */\n      dup2\n        /* \"#utility.yul\":1457:1469   */\n      mload\n        /* \"#utility.yul\":1447:1469   */\n      swap1\n      pop\n        /* \"#utility.yul\":1377:1476   */\n      swap2\n      swap1\n      pop\n      jump\t// out\n        /* \"#utility.yul\":1482:1651   */\n    tag_56:\n        /* \"#utility.yul\":1566:1577   */\n      0x00\n        /* \"#utility.yul\":1600:1606   */\n      dup3\n        /* \"#utility.yul\":1595:1598   */\n      dup3\n        /* \"#utility.yul\":1588:1607   */\n      mstore\n        /* \"#utility.yul\":1640:1644   */\n      0x20\n        /* \"#utility.yul\":1635:1638   */\n      dup3\n        /* \"#utility.yul\":1631:1645   */\n      add\n        /* \"#utility.yul\":1616:1645   */\n      swap1\n      pop\n        /* \"#utility.yul\":1482:1651   */\n      swap3\n      swap2\n      pop\n      pop\n      jump\t// out\n        /* \"#utility.yul\":1657:1903   */\n    tag_57:\n        /* \"#utility.yul\":1738:1739   */\n      0x00\n        /* \"#utility.yul\":1748:1861   */\n    tag_98:\n        /* \"#utility.yul\":1762:1768   */\n      dup4\n        /* \"#utility.yul\":1759:1760   */\n      dup2\n        /* \"#utility.yul\":1756:1769   */\n      lt\n        /* \"#utility.yul\":1748:1861   */\n      iszero\n      tag_100\n      jumpi\n        /* \"#utility.yul\":1847:1848   */\n      dup1\n        /* \"#utility.yul\":1842:1845   */\n      dup3\n        /* \"#utility.yul\":1838:1849   */\n      add\n        /* \"#utility.yul\":1832:1850   */\n      mload\n        /* \"#utility.yul\":1828:1829   */\n      dup2\n        /* \"#utility.yul\":1823:1826   */\n      dup5\n        /* \"#utility.yul\":1819:1830   */\n      add\n        /* \"#utility.yul\":1812:1851   */\n      mstore\n        /* \"#utility.yul\":1784:1786   */\n      0x20\n        /* \"#utility.yul\":1781:1782   */\n      dup2\n        /* \"#utility.yul\":1777:1787   */\n      add\n        /* \"#utility.yul\":1772:1787   */\n      swap1\n      pop\n        /* \"#utility.yul\":1748:1861   */\n      jump(tag_98)\n    tag_100:\n        /* \"#utility.yul\":1895:1896   */\n      0x00\n        /* \"#utility.yul\":1886:1892   */\n      dup5\n        /* \"#utility.yul\":1881:1884   */\n      dup5\n        /* \"#utility.yul\":1877:1893   */\n      add\n        /* \"#utility.yul\":1870:1897   */\n      mstore\n        /* \"#utility.yul\":1719:1903   */\n      pop\n        /* \"#utility.yul\":1657:1903   */\n      pop\n      pop\n      pop\n      jump\t// out\n        /* \"#utility.yul\":1909:2011   */\n    tag_58:\n        /* \"#utility.yul\":1950:1956   */\n      0x00\n        /* \"#utility.yul\":2001:2003   */\n      0x1f\n        /* \"#utility.yul\":1997:2004   */\n      not\n        /* \"#utility.yul\":1992:1994   */\n      0x1f\n        /* \"#utility.yul\":1985:1990   */\n      dup4\n        /* \"#utility.yul\":1981:1995   */\n      add\n        /* \"#utility.yul\":1977:2005   */\n      and\n        /* \"#utility.yul\":1967:2005   */\n      swap1\n      pop\n        /* \"#utility.yul\":1909:2011   */\n      swap2\n      swap1\n      pop\n      jump\t// out\n        /* \"#utility.yul\":2017:2394   */\n    tag_59:\n        /* \"#utility.yul\":2105:2108   */\n      0x00\n        /* \"#utility.yul\":2133:2172   */\n      tag_103\n        /* \"#utility.yul\":2166:2171   */\n      dup3\n        /* \"#utility.yul\":2133:2172   */\n      tag_55\n      jump\t// in\n    tag_103:\n        /* \"#utility.yul\":2188:2259   */\n      tag_104\n        /* \"#utility.yul\":2252:2258   */\n      dup2\n        /* \"#utility.yul\":2247:2250   */\n      dup6\n        /* \"#utility.yul\":2188:2259   */\n      tag_56\n      jump\t// in\n    tag_104:\n        /* \"#utility.yul\":2181:2259   */\n      swap4\n      pop\n        /* \"#utility.yul\":2268:2333   */\n      tag_105\n        /* \"#utility.yul\":2326:2332   */\n      dup2\n        /* \"#utility.yul\":2321:2324   */\n      dup6\n        /* \"#utility.yul\":2314:2318   */\n      0x20\n        /* \"#utility.yul\":2307:2312   */\n      dup7\n        /* \"#utility.yul\":2303:2319   */\n      add\n        /* \"#utility.yul\":2268:2333   */\n      tag_57\n      jump\t// in\n    tag_105:\n        /* \"#utility.yul\":2358:2387   */\n      tag_106\n        /* \"#utility.yul\":2380:2386   */\n      dup2\n        /* \"#utility.yul\":2358:2387   */\n      tag_58\n      jump\t// in\n    tag_106:\n        /* \"#utility.yul\":2353:2356   */\n      dup5\n        /* \"#utility.yul\":2349:2388   */\n      add\n        /* \"#utility.yul\":2342:2388   */\n      swap2\n      pop\n        /* \"#utility.yul\":2109:2394   */\n      pop\n        /* \"#utility.yul\":2017:2394   */\n      swap3\n      swap2\n      pop\n      pop\n      jump\t// out\n        /* \"#utility.yul\":2400:2713   */\n    tag_19:\n        /* \"#utility.yul\":2513:2517   */\n      0x00\n        /* \"#utility.yul\":2551:2553   */\n      0x20\n        /* \"#utility.yul\":2540:2549   */\n      dup3\n        /* \"#utility.yul\":2536:2554   */\n      add\n        /* \"#utility.yul\":2528:2554   */\n      swap1\n      pop\n        /* \"#utility.yul\":2600:2609   */\n      dup2\n        /* \"#utility.yul\":2594:2598   */\n      dup2\n        /* \"#utility.yul\":2590:2610   */\n      sub\n        /* \"#utility.yul\":2586:2587   */\n      0x00\n        /* \"#utility.yul\":2575:2584   */\n      dup4\n        /* \"#utility.yul\":2571:2588   */\n      add\n        /* \"#utility.yul\":2564:2611   */\n      mstore\n        /* \"#utility.yul\":2628:2706   */\n      tag_108\n        /* \"#utility.yul\":2701:2705   */\n      dup2\n        /* \"#utility.yul\":2692:2698   */\n      dup5\n        /* \"#utility.yul\":2628:2706   */\n      tag_59\n      jump\t// in\n    tag_108:\n        /* \"#utility.yul\":2620:2706   */\n      swap1\n      pop\n        /* \"#utility.yul\":2400:2713   */\n      swap3\n      swap2\n      pop\n      pop\n      jump\t// out\n        /* \"#utility.yul\":2719:3193   */\n    tag_22:\n        /* \"#utility.yul\":2787:2793   */\n      0x00\n        /* \"#utility.yul\":2795:2801   */\n      dup1\n        /* \"#utility.yul\":2844:2846   */\n      0x40\n        /* \"#utility.yul\":2832:2841   */\n      dup4\n        /* \"#utility.yul\":2823:2830   */\n      dup6\n        /* \"#utility.yul\":2819:2842   */\n      sub\n        /* \"#utility.yul\":2815:2847   */\n      slt\n        /* \"#utility.yul\":2812:2931   */\n      iszero\n      tag_110\n      jumpi\n        /* \"#utility.yul\":2850:2929   */\n      tag_111\n      tag_51\n      jump\t// in\n    tag_111:\n        /* \"#utility.yul\":2812:2931   */\n    tag_110:\n        /* \"#utility.yul\":2970:2971   */\n      0x00\n        /* \"#utility.yul\":2995:3048   */\n      tag_112\n        /* \"#utility.yul\":3040:3047   */\n      dup6\n        /* \"#utility.yul\":3031:3037   */\n      dup3\n        /* \"#utility.yul\":3020:3029   */\n      dup7\n        /* \"#utility.yul\":3016:3038   */\n      add\n        /* \"#utility.yul\":2995:3048   */\n      tag_54\n      jump\t// in\n    tag_112:\n        /* \"#utility.yul\":2985:3048   */\n      swap3\n      pop\n        /* \"#utility.yul\":2941:3058   */\n      pop\n        /* \"#utility.yul\":3097:3099   */\n      0x20\n        /* \"#utility.yul\":3123:3176   */\n      tag_113\n        /* \"#utility.yul\":3168:3175   */\n      dup6\n        /* \"#utility.yul\":3159:3165   */\n      dup3\n        /* \"#utility.yul\":3148:3157   */\n      dup7\n        /* \"#utility.yul\":3144:3166   */\n      add\n        /* \"#utility.yul\":3123:3176   */\n      tag_54\n      jump\t// in\n    tag_113:\n        /* \"#utility.yul\":3113:3176   */\n      swap2\n      pop\n        /* \"#utility.yul\":3068:3186   */\n      pop\n        /* \"#utility.yul\":2719:3193   */\n      swap3\n      pop\n      swap3\n      swap1\n      pop\n      jump\t// out\n        /* \"#utility.yul\":3199:3379   */\n    tag_60:\n        /* \"#utility.yul\":3247:3324   */\n      0x4e487b7100000000000000000000000000000000000000000000000000000000\n        /* \"#utility.yul\":3244:3245   */\n      0x00\n        /* \"#utility.yul\":3237:3325   */\n      mstore\n        /* \"#utility.yul\":3344:3348   */\n      0x22\n        /* \"#utility.yul\":3341:3342   */\n      0x04\n        /* \"#utility.yul\":3334:3349   */\n      mstore\n        /* \"#utility.yul\":3368:3372   */\n      0x24\n        /* \"#utility.yul\":3365:3366   */\n      0x00\n        /* \"#utility.yul\":3358:3373   */\n      revert\n        /* \"#utility.yul\":3385:3705   */\n    tag_27:\n        /* \"#utility.yul\":3429:3435   */\n      0x00\n        /* \"#utility.yul\":3466:3467   */\n      0x02\n        /* \"#utility.yul\":3460:3464   */\n      dup3\n        /* \"#utility.yul\":3456:3468   */\n      div\n        /* \"#utility.yul\":3446:3468   */\n      swap1\n      pop\n        /* \"#utility.yul\":3513:3514   */\n      0x01\n        /* \"#utility.yul\":3507:3511   */\n      dup3\n        /* \"#utility.yul\":3503:3515   */\n      and\n        /* \"#utility.yul\":3534:3552   */\n      dup1\n        /* \"#utility.yul\":3524:3605   */\n      tag_116\n      jumpi\n        /* \"#utility.yul\":3590:3594   */\n      0x7f\n        /* \"#utility.yul\":3582:3588   */\n      dup3\n        /* \"#utility.yul\":3578:3595   */\n      and\n        /* \"#utility.yul\":3568:3595   */\n      swap2\n      pop\n        /* \"#utility.yul\":3524:3605   */\n    tag_116:\n        /* \"#utility.yul\":3652:3654   */\n      0x20\n        /* \"#utility.yul\":3644:3650   */\n      dup3\n        /* \"#utility.yul\":3641:3655   */\n      lt\n        /* \"#utility.yul\":3621:3639   */\n      dup2\n        /* \"#utility.yul\":3618:3656   */\n      sub\n        /* \"#utility.yul\":3615:3699   */\n      tag_117\n      jumpi\n        /* \"#utility.yul\":3671:3689   */\n      tag_118\n      tag_60\n      jump\t// in\n    tag_118:\n        /* \"#utility.yul\":3615:3699   */\n    tag_117:\n        /* \"#utility.yul\":3436:3705   */\n      pop\n        /* \"#utility.yul\":3385:3705   */\n      swap2\n      swap1\n      pop\n      jump\t// out\n        /* \"#utility.yul\":3711:3891   */\n    tag_35:\n        /* \"#utility.yul\":3759:3836   */\n      0x4e487b7100000000000000000000000000000000000000000000000000000000\n        /* \"#utility.yul\":3756:3757   */\n      0x00\n        /* \"#utility.yul\":3749:3837   */\n      mstore\n        /* \"#utility.yul\":3856:3860   */\n      0x32\n        /* \"#utility.yul\":3853:3854   */\n      0x04\n        /* \"#utility.yul\":3846:3861   */\n      mstore\n        /* \"#utility.yul\":3880:3884   */\n      0x24\n        /* \"#utility.yul\":3877:3878   */\n      0x00\n        /* \"#utility.yul\":3870:3885   */\n      revert\n        /* \"#utility.yul\":3897:4077   */\n    tag_61:\n        /* \"#utility.yul\":3945:4022   */\n      0x4e487b7100000000000000000000000000000000000000000000000000000000\n        /* \"#utility.yul\":3942:3943   */\n      0x00\n        /* \"#utility.yul\":3935:4023   */\n      mstore\n        /* \"#utility.yul\":4042:4046   */\n      0x41\n        /* \"#utility.yul\":4039:4040   */\n      0x04\n        /* \"#utility.yul\":4032:4047   */\n      mstore\n        /* \"#utility.yul\":4066:4070   */\n      0x24\n        /* \"#utility.yul\":4063:4064   */\n      0x00\n        /* \"#utility.yul\":4056:4071   */\n      revert\n        /* \"#utility.yul\":4083:4224   */\n    tag_62:\n        /* \"#utility.yul\":4132:4136   */\n      0x00\n        /* \"#utility.yul\":4155:4158   */\n      dup2\n        /* \"#utility.yul\":4147:4158   */\n      swap1\n      pop\n        /* \"#utility.yul\":4178:4181   */\n      dup2\n        /* \"#utility.yul\":4175:4176   */\n      0x00\n        /* \"#utility.yul\":4168:4182   */\n      mstore\n        /* \"#utility.yul\":4212:4216   */\n      0x20\n        /* \"#utility.yul\":4209:4210   */\n      0x00\n        /* \"#utility.yul\":4199:4217   */\n      keccak256\n        /* \"#utility.yul\":4191:4217   */\n      swap1\n      pop\n        /* \"#utility.yul\":4083:4224   */\n      swap2\n      swap1\n      pop\n      jump\t// out\n        /* \"#utility.yul\":4230:4323   */\n    tag_63:\n        /* \"#utility.yul\":4267:4273   */\n      0x00\n        /* \"#utility.yul\":4314:4316   */\n      0x20\n        /* \"#utility.yul\":4309:4311   */\n      0x1f\n        /* \"#utility.yul\":4302:4307   */\n      dup4\n        /* \"#utility.yul\":4298:4312   */\n      add\n        /* \"#utility.yul\":4294:4317   */\n      div\n        /* \"#utility.yul\":4284:4317   */\n      swap1\n      pop\n        /* \"#utility.yul\":4230:4323   */\n      swap2\n      swap1\n      pop\n      jump\t// out\n        /* \"#utility.yul\":4329:4436   */\n    tag_64:\n        /* \"#utility.yul\":4373:4381   */\n      0x00\n        /* \"#utility.yul\":4423:4428   */\n      dup3\n        /* \"#utility.yul\":4417:4421   */\n      dup3\n        /* \"#utility.yul\":4413:4429   */\n      shl\n        /* \"#utility.yul\":4392:4429   */\n      swap1\n      pop\n        /* \"#utility.yul\":4329:4436   */\n      swap3\n      swap2\n      pop\n      pop\n      jump\t// out\n        /* \"#utility.yul\":4442:4835   */\n    tag_65:\n        /* \"#utility.yul\":4511:4517   */\n      0x00\n        /* \"#utility.yul\":4561:4562   */\n      0x08\n        /* \"#utility.yul\":4549:4559   */\n      dup4\n        /* \"#utility.yul\":4545:4563   */\n      mul\n        /* \"#utility.yul\":4584:4681   */\n      tag_125\n        /* \"#utility.yul\":4614:4680   */\n      0xffffffffffffffffffffffffffffffffffffffffffffffffffffffffffffffff\n        /* \"#utility.yul\":4603:4612   */\n      dup3\n        /* \"#utility.yul\":4584:4681   */\n      tag_64\n      jump\t// in\n    tag_125:\n        /* \"#utility.yul\":4702:4741   */\n      tag_126\n        /* \"#utility.yul\":4732:4740   */\n      dup7\n        /* \"#utility.yul\":4721:4730   */\n      dup4\n        /* \"#utility.yul\":4702:4741   */\n      tag_64\n      jump\t// in\n    tag_126:\n        /* \"#utility.yul\":4690:4741   */\n      swap6\n      pop\n        /* \"#utility.yul\":4774:4778   */\n      dup1\n        /* \"#utility.yul\":4770:4779   */\n      not\n        /* \"#utility.yul\":4763:4768   */\n      dup5\n        /* \"#utility.yul\":4759:4780   */\n      and\n        /* \"#utility.yul\":4750:4780   */\n      swap4\n      pop\n        /* \"#utility.yul\":4823:4827   */\n      dup1\n        /* \"#utility.yul\":4813:4821   */\n      dup7\n        /* \"#utility.yul\":4809:4828   */\n      and\n        /* \"#utility.yul\":4802:4807   */\n      dup5\n        /* \"#utility.yul\":4799:4829   */\n      or\n        /* \"#utility.yul\":4789:4829   */\n      swap3\n      pop\n        /* \"#utility.yul\":4518:4835   */\n      pop\n      pop\n        /* \"#utility.yul\":4442:4835   */\n      swap4\n      swap3\n      pop\n      pop\n      pop\n      jump\t// out\n        /* \"#utility.yul\":4841:4901   */\n    tag_66:\n        /* \"#utility.yul\":4869:4872   */\n      0x00\n        /* \"#utility.yul\":4890:4895   */\n      dup2\n        /* \"#utility.yul\":4883:4895   */\n      swap1\n      pop\n        /* \"#utility.yul\":4841:4901   */\n      swap2\n      swap1\n      pop\n      jump\t// out\n        /* \"#utility.yul\":4907:5049   */\n    tag_67:\n        /* \"#utility.yul\":4957:4966   */\n      0x00\n        /* \"#utility.yul\":4990:5043   */\n      tag_129\n        /* \"#utility.yul\":5008:5042   */\n      tag_130\n        /* \"#utility.yul\":5017:5041   */\n      tag_131\n        /* \"#utility.yul\":5035:5040   */\n      dup5\n        /* \"#utility.yul\":5017:5041   */\n      tag_48\n      jump\t// in\n    tag_131:\n        /* \"#utility.yul\":5008:5042   */\n      tag_66\n      jump\t// in\n    tag_130:\n        /* \"#utility.yul\":4990:5043   */\n      tag_48\n      jump\t// in\n    tag_129:\n        /* \"#utility.yul\":4977:5043   */\n      swap1\n      pop\n        /* \"#utility.yul\":4907:5049   */\n      swap2\n      swap1\n      pop\n      jump\t// out\n        /* \"#utility.yul\":5055:5130   */\n    tag_68:\n        /* \"#utility.yul\":5098:5101   */\n      0x00\n        /* \"#utility.yul\":5119:5124   */\n      dup2\n        /* \"#utility.yul\":5112:5124   */\n      swap1\n      pop\n        /* \"#utility.yul\":5055:5130   */\n      swap2\n      swap1\n      pop\n      jump\t// out\n        /* \"#utility.yul\":5136:5405   */\n    tag_69:\n        /* \"#utility.yul\":5246:5285   */\n      tag_134\n        /* \"#utility.yul\":5277:5284   */\n      dup4\n        /* \"#utility.yul\":5246:5285   */\n      tag_67\n      jump\t// in\n    tag_134:\n        /* \"#utility.yul\":5307:5398   */\n      tag_135\n        /* \"#utility.yul\":5356:5397   */\n      tag_136\n        /* \"#utility.yul\":5380:5396   */\n      dup3\n        /* \"#utility.yul\":5356:5397   */\n      tag_68\n      jump\t// in\n    tag_136:\n        /* \"#utility.yul\":5348:5354   */\n      dup5\n        /* \"#utility.yul\":5341:5345   */\n      dup5\n        /* \"#utility.yul\":5335:5346   */\n      sload\n        /* \"#utility.yul\":5307:5398   */\n      tag_65\n      jump\t// in\n    tag_135:\n        /* \"#utility.yul\":5301:5305   */\n      dup3\n        /* \"#utility.yul\":5294:5399   */\n      sstore\n        /* \"#utility.yul\":5212:5405   */\n      pop\n        /* \"#utility.yul\":5136:5405   */\n      pop\n      pop\n      pop\n      jump\t// out\n        /* \"#utility.yul\":5411:5484   */\n    tag_70:\n        /* \"#utility.yul\":5456:5459   */\n      0x00\n        /* \"#utility.yul\":5411:5484   */\n      swap1\n      jump\t// out\n        /* \"#utility.yul\":5490:5679   */\n    tag_71:\n        /* \"#utility.yul\":5567:5599   */\n      tag_139\n      tag_70\n      jump\t// in\n    tag_139:\n        /* \"#utility.yul\":5608:5673   */\n      tag_140\n        /* \"#utility.yul\":5666:5672   */\n      dup2\n        /* \"#utility.yul\":5658:5664   */\n      dup5\n        /* \"#utility.yul\":5652:5656   */\n      dup5\n        /* \"#utility.yul\":5608:5673   */\n      tag_69\n      jump\t// in\n    tag_140:\n        /* \"#utility.yul\":5543:5679   */\n      pop\n        /* \"#utility.yul\":5490:5679   */\n      pop\n      pop\n      jump\t// out\n        /* \"#utility.yul\":5685:5871   */\n    tag_72:\n        /* \"#utility.yul\":5745:5865   */\n    tag_142:\n        /* \"#utility.yul\":5762:5765   */\n      dup2\n        /* \"#utility.yul\":5755:5760   */\n      dup2\n        /* \"#utility.yul\":5752:5766   */\n      lt\n        /* \"#utility.yul\":5745:5865   */\n      iszero\n      tag_144\n      jumpi\n        /* \"#utility.yul\":5816:5855   */\n      tag_145\n        /* \"#utility.yul\":5853:5854   */\n      0x00\n        /* \"#utility.yul\":5846:5851   */\n      dup3\n        /* \"#utility.yul\":5816:5855   */\n      tag_71\n      jump\t// in\n    tag_145:\n        /* \"#utility.yul\":5789:5790   */\n      0x01\n        /* \"#utility.yul\":5782:5787   */\n      dup2\n        /* \"#utility.yul\":5778:5791   */\n      add\n        /* \"#utility.yul\":5769:5791   */\n      swap1\n      pop\n        /* \"#utility.yul\":5745:5865   */\n      jump(tag_142)\n    tag_144:\n        /* \"#utility.yul\":5685:5871   */\n      pop\n      pop\n      jump\t// out\n        /* \"#utility.yul\":5877:6420   */\n    tag_73:\n        /* \"#utility.yul\":5978:5980   */\n      0x1f\n        /* \"#utility.yul\":5973:5976   */\n      dup3\n        /* \"#utility.yul\":5970:5981   */\n      gt\n        /* \"#utility.yul\":5967:6413   */\n      iszero\n      tag_147\n      jumpi\n        /* \"#utility.yul\":6012:6050   */\n      tag_148\n        /* \"#utility.yul\":6044:6049   */\n      dup2\n        /* \"#utility.yul\":6012:6050   */\n      tag_62\n      jump\t// in\n    tag_148:\n        /* \"#utility.yul\":6096:6125   */\n      tag_149\n        /* \"#utility.yul\":6114:6124   */\n      dup5\n        /* \"#utility.yul\":6096:6125   */\n      tag_63\n      jump\t// in\n    tag_149:\n        /* \"#utility.yul\":6086:6094   */\n      dup2\n        /* \"#utility.yul\":6082:6126   */\n      add\n        /* \"#utility.yul\":6279:6281   */\n      0x20\n        /* \"#utility.yul\":6267:6277   */\n      dup6\n        /* \"#utility.yul\":6264:6282   */\n      lt\n        /* \"#utility.yul\":6261:6310   */\n      iszero\n      tag_150\n      jumpi\n        /* \"#utility.yul\":6300:6308   */\n      dup2\n        /* \"#utility.yul\":6285:6308   */\n      swap1\n      pop\n        /* \"#utility.yul\":6261:6310   */\n    tag_150:\n        /* \"#utility.yul\":6323:6403   */\n      tag_151\n        /* \"#utility.yul\":6379:6401   */\n      tag_152\n        /* \"#utility.yul\":6397:6400   */\n      dup6\n        /* \"#utility.yul\":6379:6401   */\n      tag_63\n      jump\t// in\n    tag_152:\n        /* \"#utility.yul\":6369:6377   */\n      dup4\n        /* \"#utility.yul\":6365:6402   */\n      add\n        /* \"#utility.yul\":6352:6363   */\n      dup3\n        /* \"#utility.yul\":6323:6403   */\n      tag_72\n      jump\t// in\n    tag_151:\n        /* \"#utility.yul\":5982:6413   */\n      pop\n      pop\n        /* \"#utility.yul\":5967:6413   */\n    tag_147:\n        /* \"#utility.yul\":5877:6420   */\n      pop\n      pop\n      pop\n      jump\t// out\n        /* \"#utility.yul\":6426:6543   */\n    tag_74:\n        /* \"#utility.yul\":6480:6488   */\n      0x00\n        /* \"#utility.yul\":6530:6535   */\n      dup3\n        /* \"#utility.yul\":6524:6528   */\n      dup3\n        /* \"#utility.yul\":6520:6536   */\n      shr\n        /* \"#utility.yul\":6499:6536   */\n      swap1\n      pop\n        /* \"#utility.yul\":6426:6543   */\n      swap3\n      swap2\n      pop\n      pop\n      jump\t// out\n        /* \"#utility.yul\":6549:6718   */\n    tag_75:\n        /* \"#utility.yul\":6593:6599   */\n      0x00\n        /* \"#utility.yul\":6626:6677   */\n      tag_155\n        /* \"#utility.yul\":6674:6675   */\n      0x00\n        /* \"#utility.yul\":6670:6676   */\n      not\n        /* \"#utility.yul\":6662:6667   */\n      dup5\n        /* \"#utility.yul\":6659:6660   */\n      0x08\n        /* \"#utility.yul\":6655:6668   */\n      mul\n        /* \"#utility.yul\":6626:6677   */\n      tag_74\n      jump\t// in\n    tag_155:\n        /* \"#utility.yul\":6622:6678   */\n      not\n        /* \"#utility.yul\":6707:6711   */\n      dup1\n        /* \"#utility.yul\":6701:6705   */\n      dup4\n        /* \"#utility.yul\":6697:6712   */\n      and\n        /* \"#utility.yul\":6687:6712   */\n      swap2\n      pop\n        /* \"#utility.yul\":6600:6718   */\n      pop\n        /* \"#utility.yul\":6549:6718   */\n      swap3\n      swap2\n      pop\n      pop\n      jump\t// out\n        /* \"#utility.yul\":6723:7018   */\n    tag_76:\n        /* \"#utility.yul\":6799:6803   */\n      0x00\n        /* \"#utility.yul\":6945:6974   */\n      tag_157\n        /* \"#utility.yul\":6970:6973   */\n      dup4\n        /* \"#utility.yul\":6964:6968   */\n      dup4\n        /* \"#utility.yul\":6945:6974   */\n      tag_75\n      jump\t// in\n    tag_157:\n        /* \"#utility.yul\":6937:6974   */\n      swap2\n      pop\n        /* \"#utility.yul\":7007:7010   */\n      dup3\n        /* \"#utility.yul\":7004:7005   */\n      0x02\n        /* \"#utility.yul\":7000:7011   */\n      mul\n        /* \"#utility.yul\":6994:6998   */\n      dup3\n        /* \"#utility.yul\":6991:7012   */\n      or\n        /* \"#utility.yul\":6983:7012   */\n      swap1\n      pop\n        /* \"#utility.yul\":6723:7018   */\n      swap3\n      swap2\n      pop\n      pop\n      jump\t// out\n        /* \"#utility.yul\":7023:8418   */\n    tag_42:\n        /* \"#utility.yul\":7140:7177   */\n      tag_159\n        /* \"#utility.yul\":7173:7176   */\n      dup3\n        /* \"#utility.yul\":7140:7177   */\n      tag_55\n      jump\t// in\n    tag_159:\n        /* \"#utility.yul\":7242:7260   */\n      0xffffffffffffffff\n        /* \"#utility.yul\":7234:7240   */\n      dup2\n        /* \"#utility.yul\":7231:7261   */\n      gt\n        /* \"#utility.yul\":7228:7284   */\n      iszero\n      tag_160\n      jumpi\n        /* \"#utility.yul\":7264:7282   */\n      tag_161\n      tag_61\n      jump\t// in\n    tag_161:\n        /* \"#utility.yul\":7228:7284   */\n    tag_160:\n        /* \"#utility.yul\":7308:7346   */\n      tag_162\n        /* \"#utility.yul\":7340:7344   */\n      dup3\n        /* \"#utility.yul\":7334:7345   */\n      sload\n        /* \"#utility.yul\":7308:7346   */\n      tag_27\n      jump\t// in\n    tag_162:\n        /* \"#utility.yul\":7393:7460   */\n      tag_163\n        /* \"#utility.yul\":7453:7459   */\n      dup3\n        /* \"#utility.yul\":7445:7451   */\n      dup3\n        /* \"#utility.yul\":7439:7443   */\n      dup6\n        /* \"#utility.yul\":7393:7460   */\n      tag_73\n      jump\t// in\n    tag_163:\n        /* \"#utility.yul\":7487:7488   */\n      0x00\n        /* \"#utility.yul\":7511:7515   */\n      0x20\n        /* \"#utility.yul\":7498:7515   */\n      swap1\n      pop\n        /* \"#utility.yul\":7543:7545   */\n      0x1f\n        /* \"#utility.yul\":7535:7541   */\n      dup4\n        /* \"#utility.yul\":7532:7546   */\n      gt\n        /* \"#utility.yul\":7560:7561   */\n      0x01\n        /* \"#utility.yul\":7555:8173   */\n      dup2\n      eq\n      tag_165\n      jumpi\n        /* \"#utility.yul\":8217:8218   */\n      0x00\n        /* \"#utility.yul\":8234:8240   */\n      dup5\n        /* \"#utility.yul\":8231:8308   */\n      iszero\n      tag_166\n      jumpi\n        /* \"#utility.yul\":8283:8292   */\n      dup3\n        /* \"#utility.yul\":8278:8281   */\n      dup8\n        /* \"#utility.yul\":8274:8293   */\n      add\n        /* \"#utility.yul\":8268:8294   */\n      mload\n        /* \"#utility.yul\":8259:8294   */\n      swap1\n      pop\n        /* \"#utility.yul\":8231:8308   */\n    tag_166:\n        /* \"#utility.yul\":8334:8401   */\n      tag_167\n        /* \"#utility.yul\":8394:8400   */\n      dup6\n        /* \"#utility.yul\":8387:8392   */\n      dup3\n        /* \"#utility.yul\":8334:8401   */\n      tag_76\n      jump\t// in\n    tag_167:\n        /* \"#utility.yul\":8328:8332   */\n      dup7\n        /* \"#utility.yul\":8321:8402   */\n      sstore\n        /* \"#utility.yul\":8190:8412   */\n      pop\n        /* \"#utility.yul\":7525:8412   */\n      jump(tag_164)\n        /* \"#utility.yul\":7555:8173   */\n    tag_165:\n        /* \"#utility.yul\":7607:7611   */\n      0x1f\n        /* \"#utility.yul\":7603:7612   */\n      not\n        /* \"#utility.yul\":7595:7601   */\n      dup5\n        /* \"#utility.yul\":7591:7613   */\n      and\n        /* \"#utility.yul\":7641:7678   */\n      tag_168\n        /* \"#utility.yul\":7673:7677   */\n      dup7\n        /* \"#utility.yul\":7641:7678   */\n      tag_62\n      jump\t// in\n    tag_168:\n        /* \"#utility.yul\":7700:7701   */\n      0x00\n        /* \"#utility.yul\":7714:7922   */\n    tag_169:\n        /* \"#utility.yul\":7728:7735   */\n      dup3\n        /* \"#utility.yul\":7725:7726   */\n      dup2\n        /* \"#utility.yul\":7722:7736   */\n      lt\n        /* \"#utility.yul\":7714:7922   */\n      iszero\n      tag_171\n      jumpi\n        /* \"#utility.yul\":7807:7816   */\n      dup5\n        /* \"#utility.yul\":7802:7805   */\n      dup10\n        /* \"#utility.yul\":7798:7817   */\n      add\n        /* \"#utility.yul\":7792:7818   */\n      mload\n        /* \"#utility.yul\":7784:7790   */\n      dup3\n        /* \"#utility.yul\":7777:7819   */\n      sstore\n        /* \"#utility.yul\":7858:7859   */\n      0x01\n        /* \"#utility.yul\":7850:7856   */\n      dup3\n        /* \"#utility.yul\":7846:7860   */\n      add\n        /* \"#utility.yul\":7836:7860   */\n      swap2\n      pop\n        /* \"#utility.yul\":7905:7907   */\n      0x20\n        /* \"#utility.yul\":7894:7903   */\n      dup6\n        /* \"#utility.yul\":7890:7908   */\n      add\n        /* \"#utility.yul\":7877:7908   */\n      swap5\n      pop\n        /* \"#utility.yul\":7751:7755   */\n      0x20\n        /* \"#utility.yul\":7748:7749   */\n      dup2\n        /* \"#utility.yul\":7744:7756   */\n      add\n        /* \"#utility.yul\":7739:7756   */\n      swap1\n      pop\n        /* \"#utility.yul\":7714:7922   */\n      jump(tag_169)\n    tag_171:\n        /* \"#utility.yul\":7950:7956   */\n      dup7\n        /* \"#utility.yul\":7941:7948   */\n      dup4\n        /* \"#utility.yul\":7938:7957   */\n      lt\n        /* \"#utility.yul\":7935:8114   */\n      iszero\n      tag_172\n      jumpi\n        /* \"#utility.yul\":8008:8017   */\n      dup5\n        /* \"#utility.yul\":8003:8006   */\n      dup10\n        /* \"#utility.yul\":7999:8018   */\n      add\n        /* \"#utility.yul\":7993:8019   */\n      mload\n        /* \"#utility.yul\":8051:8099   */\n      tag_173\n        /* \"#utility.yul\":8093:8097   */\n      0x1f\n        /* \"#utility.yul\":8085:8091   */\n      dup10\n        /* \"#utility.yul\":8081:8098   */\n      and\n        /* \"#utility.yul\":8070:8079   */\n      dup3\n        /* \"#utility.yul\":8051:8099   */\n      tag_75\n      jump\t// in\n    tag_173:\n        /* \"#utility.yul\":8043:8049   */\n      dup4\n        /* \"#utility.yul\":8036:8100   */\n      sstore\n        /* \"#utility.yul\":7958:8114   */\n      pop\n        /* \"#utility.yul\":7935:8114   */\n    tag_172:\n        /* \"#utility.yul\":8160:8161   */\n      0x01\n        /* \"#utility.yul\":8156:8157   */\n      0x02\n        /* \"#utility.yul\":8148:8154   */\n      dup9\n        /* \"#utility.yul\":8144:8158   */\n      mul\n        /* \"#utility.yul\":8140:8162   */\n      add\n        /* \"#utility.yul\":8134:8138   */\n      dup9\n        /* \"#utility.yul\":8127:8163   */\n      sstore\n        /* \"#utility.yul\":7562:8173   */\n      pop\n      pop\n      pop\n        /* \"#utility.yul\":7525:8412   */\n    tag_164:\n      pop\n        /* \"#utility.yul\":7115:8418   */\n      pop\n      pop\n      pop\n        /* \"#utility.yul\":7023:8418   */\n      pop\n      pop\n      jump\t// out\n\n    auxdata: 0xa2646970667358221220aba1d1619373e5b106bc684779c25aa8d8ba006852e098a9219ed4768bd8da5b64736f6c63430008140033\n}\n",
				"bytecode": {
					"linkReferences": {},
					"object": "60806040526040518060600160405280601460ff168152602001601e60ff168152602001603b60ff168152505f90600361003a929190610050565b505f60035534801561004a575f80fd5b506100b0565b8260038101928215610084579160200282015b82811115610083578251829060ff16905591602001919060010190610063565b5b5090506100919190610095565b5090565b5b808211156100ac575f815f905550600101610096565b5090565b61072d806100bd5f395ff3fe608060405234801561000f575f80fd5b506004361061004a575f3560e01c806306661abd1461004e57806371e5ee5f1461006c57806385883d8c1461009c5780638fefd8ea146100ba575b5f80fd5b6100566100d6565b604051610063919061027a565b60405180910390f35b610086600480360381019061008191906102c1565b6100dc565b604051610093919061027a565b60405180910390f35b6100a46100f4565b6040516100b19190610376565b60405180910390f35b6100d460048036038101906100cf9190610396565b610180565b005b60035481565b5f81600381106100ea575f80fd5b015f915090505481565b6004805461010190610401565b80601f016020809104026020016040519081016040528092919081815260200182805461012d90610401565b80156101785780601f1061014f57610100808354040283529160200191610178565b820191905f5260205f20905b81548152906001019060200180831161015b57829003601f168201915b505050505081565b805f836003811061019457610193610431565b5b0154036101ff5760ff5f83600381106101b0576101af610431565b5b01819055506040518060400160405280601181526020017f76616c7565206265636f6d657320323535000000000000000000000000000000815250600490816101f99190610628565b5061025e565b5f80836003811061021357610212610431565b5b01819055506040518060400160405280600f81526020017f76616c7565206265636f6d6573203000000000000000000000000000000000008152506004908161025c9190610628565b505b5050565b5f819050919050565b61027481610262565b82525050565b5f60208201905061028d5f83018461026b565b92915050565b5f80fd5b6102a081610262565b81146102aa575f80fd5b50565b5f813590506102bb81610297565b92915050565b5f602082840312156102d6576102d5610293565b5b5f6102e3848285016102ad565b91505092915050565b5f81519050919050565b5f82825260208201905092915050565b5f5b83811015610323578082015181840152602081019050610308565b5f8484015250505050565b5f601f19601f8301169050919050565b5f610348826102ec565b61035281856102f6565b9350610362818560208601610306565b61036b8161032e565b840191505092915050565b5f6020820190508181035f83015261038e818461033e565b905092915050565b5f80604083850312156103ac576103ab610293565b5b5f6103b9858286016102ad565b92505060206103ca858286016102ad565b9150509250929050565b7f4e487b71000000000000000000000000000000000000000000000000000000005f52602260045260245ffd5b5f600282049050600182168061041857607f821691505b60208210810361042b5761042a6103d4565b5b50919050565b7f4e487b71000000000000000000000000000000000000000000000000000000005f52603260045260245ffd5b7f4e487b71000000000000000000000000000000000000000000000000000000005f52604160045260245ffd5b5f819050815f5260205f209050919050565b5f6020601f8301049050919050565b5f82821b905092915050565b5f600883026104e77fffffffffffffffffffffffffffffffffffffffffffffffffffffffffffffffff826104ac565b6104f186836104ac565b95508019841693508086168417925050509392505050565b5f819050919050565b5f61052c61052761052284610262565b610509565b610262565b9050919050565b5f819050919050565b61054583610512565b61055961055182610533565b8484546104b8565b825550505050565b5f90565b61056d610561565b61057881848461053c565b505050565b5b8181101561059b576105905f82610565565b60018101905061057e565b5050565b601f8211156105e0576105b18161048b565b6105ba8461049d565b810160208510156105c9578190505b6105dd6105d58561049d565b83018261057d565b50505b505050565b5f82821c905092915050565b5f6106005f19846008026105e5565b1980831691505092915050565b5f61061883836105f1565b9150826002028217905092915050565b610631826102ec565b67ffffffffffffffff81111561064a5761064961045e565b5b6106548254610401565b61065f82828561059f565b5f60209050601f831160018114610690575f841561067e578287015190505b610688858261060d565b8655506106ef565b601f19841661069e8661048b565b5f5b828110156106c5578489015182556001820191506020850194506020810190506106a0565b868310156106e257848901516106de601f8916826105f1565b8355505b6001600288020188555050505b50505050505056fea2646970667358221220aba1d1619373e5b106bc684779c25aa8d8ba006852e098a9219ed4768bd8da5b64736f6c63430008140033",
					"opcodes": "PUSH1 0x80 PUSH1 0x40 MSTORE PUSH1 0x40 MLOAD DUP1 PUSH1 0x60 ADD PUSH1 0x40 MSTORE DUP1 PUSH1 0x14 PUSH1 0xFF AND DUP2 MSTORE PUSH1 0x20 ADD PUSH1 0x1E PUSH1 0xFF AND DUP2 MSTORE PUSH1 0x20 ADD PUSH1 0x3B PUSH1 0xFF AND DUP2 MSTORE POP PUSH0 SWAP1 PUSH1 0x3 PUSH2 0x3A SWAP3 SWAP2 SWAP1 PUSH2 0x50 JUMP JUMPDEST POP PUSH0 PUSH1 0x3 SSTORE CALLVALUE DUP1 ISZERO PUSH2 0x4A JUMPI PUSH0 DUP1 REVERT JUMPDEST POP PUSH2 0xB0 JUMP JUMPDEST DUP3 PUSH1 0x3 DUP2 ADD SWAP3 DUP3 ISZERO PUSH2 0x84 JUMPI SWAP2 PUSH1 0x20 MUL DUP3 ADD JUMPDEST DUP3 DUP2 GT ISZERO PUSH2 0x83 JUMPI DUP3 MLOAD DUP3 SWAP1 PUSH1 0xFF AND SWAP1 SSTORE SWAP2 PUSH1 0x20 ADD SWAP2 SWAP1 PUSH1 0x1 ADD SWAP1 PUSH2 0x63 JUMP JUMPDEST JUMPDEST POP SWAP1 POP PUSH2 0x91 SWAP2 SWAP1 PUSH2 0x95 JUMP JUMPDEST POP SWAP1 JUMP JUMPDEST JUMPDEST DUP1 DUP3 GT ISZERO PUSH2 0xAC JUMPI PUSH0 DUP2 PUSH0 SWAP1 SSTORE POP PUSH1 0x1 ADD PUSH2 0x96 JUMP JUMPDEST POP SWAP1 JUMP JUMPDEST PUSH2 0x72D DUP1 PUSH2 0xBD PUSH0 CODECOPY PUSH0 RETURN INVALID PUSH1 0x80 PUSH1 0x40 MSTORE CALLVALUE DUP1 ISZERO PUSH2 0xF JUMPI PUSH0 DUP1 REVERT JUMPDEST POP PUSH1 0x4 CALLDATASIZE LT PUSH2 0x4A JUMPI PUSH0 CALLDATALOAD PUSH1 0xE0 SHR DUP1 PUSH4 0x6661ABD EQ PUSH2 0x4E JUMPI DUP1 PUSH4 0x71E5EE5F EQ PUSH2 0x6C JUMPI DUP1 PUSH4 0x85883D8C EQ PUSH2 0x9C JUMPI DUP1 PUSH4 0x8FEFD8EA EQ PUSH2 0xBA JUMPI JUMPDEST PUSH0 DUP1 REVERT JUMPDEST PUSH2 0x56 PUSH2 0xD6 JUMP JUMPDEST PUSH1 0x40 MLOAD PUSH2 0x63 SWAP2 SWAP1 PUSH2 0x27A JUMP JUMPDEST PUSH1 0x40 MLOAD DUP1 SWAP2 SUB SWAP1 RETURN JUMPDEST PUSH2 0x86 PUSH1 0x4 DUP1 CALLDATASIZE SUB DUP2 ADD SWAP1 PUSH2 0x81 SWAP2 SWAP1 PUSH2 0x2C1 JUMP JUMPDEST PUSH2 0xDC JUMP JUMPDEST PUSH1 0x40 MLOAD PUSH2 0x93 SWAP2 SWAP1 PUSH2 0x27A JUMP JUMPDEST PUSH1 0x40 MLOAD DUP1 SWAP2 SUB SWAP1 RETURN JUMPDEST PUSH2 0xA4 PUSH2 0xF4 JUMP JUMPDEST PUSH1 0x40 MLOAD PUSH2 0xB1 SWAP2 SWAP1 PUSH2 0x376 JUMP JUMPDEST PUSH1 0x40 MLOAD DUP1 SWAP2 SUB SWAP1 RETURN JUMPDEST PUSH2 0xD4 PUSH1 0x4 DUP1 CALLDATASIZE SUB DUP2 ADD SWAP1 PUSH2 0xCF SWAP2 SWAP1 PUSH2 0x396 JUMP JUMPDEST PUSH2 0x180 JUMP JUMPDEST STOP JUMPDEST PUSH1 0x3 SLOAD DUP2 JUMP JUMPDEST PUSH0 DUP2 PUSH1 0x3 DUP2 LT PUSH2 0xEA JUMPI PUSH0 DUP1 REVERT JUMPDEST ADD PUSH0 SWAP2 POP SWAP1 POP SLOAD DUP2 JUMP JUMPDEST PUSH1 0x4 DUP1 SLOAD PUSH2 0x101 SWAP1 PUSH2 0x401 JUMP JUMPDEST DUP1 PUSH1 0x1F ADD PUSH1 0x20 DUP1 SWAP2 DIV MUL PUSH1 0x20 ADD PUSH1 0x40 MLOAD SWAP1 DUP2 ADD PUSH1 0x40 MSTORE DUP1 SWAP3 SWAP2 SWAP1 DUP2 DUP2 MSTORE PUSH1 0x20 ADD DUP3 DUP1 SLOAD PUSH2 0x12D SWAP1 PUSH2 0x401 JUMP JUMPDEST DUP1 ISZERO PUSH2 0x178 JUMPI DUP1 PUSH1 0x1F LT PUSH2 0x14F JUMPI PUSH2 0x100 DUP1 DUP4 SLOAD DIV MUL DUP4 MSTORE SWAP2 PUSH1 0x20 ADD SWAP2 PUSH2 0x178 JUMP JUMPDEST DUP3 ADD SWAP2 SWAP1 PUSH0 MSTORE PUSH1 0x20 PUSH0 KECCAK256 SWAP1 JUMPDEST DUP2 SLOAD DUP2 MSTORE SWAP1 PUSH1 0x1 ADD SWAP1 PUSH1 0x20 ADD DUP1 DUP4 GT PUSH2 0x15B JUMPI DUP3 SWAP1 SUB PUSH1 0x1F AND DUP3 ADD SWAP2 JUMPDEST POP POP POP POP POP DUP2 JUMP JUMPDEST DUP1 PUSH0 DUP4 PUSH1 0x3 DUP2 LT PUSH2 0x194 JUMPI PUSH2 0x193 PUSH2 0x431 JUMP JUMPDEST JUMPDEST ADD SLOAD SUB PUSH2 0x1FF JUMPI PUSH1 0xFF PUSH0 DUP4 PUSH1 0x3 DUP2 LT PUSH2 0x1B0 JUMPI PUSH2 0x1AF PUSH2 0x431 JUMP JUMPDEST JUMPDEST ADD DUP2 SWAP1 SSTORE POP PUSH1 0x40 MLOAD DUP1 PUSH1 0x40 ADD PUSH1 0x40 MSTORE DUP1 PUSH1 0x11 DUP2 MSTORE PUSH1 0x20 ADD PUSH32 0x76616C7565206265636F6D657320323535000000000000000000000000000000 DUP2 MSTORE POP PUSH1 0x4 SWAP1 DUP2 PUSH2 0x1F9 SWAP2 SWAP1 PUSH2 0x628 JUMP JUMPDEST POP PUSH2 0x25E JUMP JUMPDEST PUSH0 DUP1 DUP4 PUSH1 0x3 DUP2 LT PUSH2 0x213 JUMPI PUSH2 0x212 PUSH2 0x431 JUMP JUMPDEST JUMPDEST ADD DUP2 SWAP1 SSTORE POP PUSH1 0x40 MLOAD DUP1 PUSH1 0x40 ADD PUSH1 0x40 MSTORE DUP1 PUSH1 0xF DUP2 MSTORE PUSH1 0x20 ADD PUSH32 0x76616C7565206265636F6D657320300000000000000000000000000000000000 DUP2 MSTORE POP PUSH1 0x4 SWAP1 DUP2 PUSH2 0x25C SWAP2 SWAP1 PUSH2 0x628 JUMP JUMPDEST POP JUMPDEST POP POP JUMP JUMPDEST PUSH0 DUP2 SWAP1 POP SWAP2 SWAP1 POP JUMP JUMPDEST PUSH2 0x274 DUP2 PUSH2 0x262 JUMP JUMPDEST DUP3 MSTORE POP POP JUMP JUMPDEST PUSH0 PUSH1 0x20 DUP3 ADD SWAP1 POP PUSH2 0x28D PUSH0 DUP4 ADD DUP5 PUSH2 0x26B JUMP JUMPDEST SWAP3 SWAP2 POP POP JUMP JUMPDEST PUSH0 DUP1 REVERT JUMPDEST PUSH2 0x2A0 DUP2 PUSH2 0x262 JUMP JUMPDEST DUP2 EQ PUSH2 0x2AA JUMPI PUSH0 DUP1 REVERT JUMPDEST POP JUMP JUMPDEST PUSH0 DUP2 CALLDATALOAD SWAP1 POP PUSH2 0x2BB DUP2 PUSH2 0x297 JUMP JUMPDEST SWAP3 SWAP2 POP POP JUMP JUMPDEST PUSH0 PUSH1 0x20 DUP3 DUP5 SUB SLT ISZERO PUSH2 0x2D6 JUMPI PUSH2 0x2D5 PUSH2 0x293 JUMP JUMPDEST JUMPDEST PUSH0 PUSH2 0x2E3 DUP5 DUP3 DUP6 ADD PUSH2 0x2AD JUMP JUMPDEST SWAP2 POP POP SWAP3 SWAP2 POP POP JUMP JUMPDEST PUSH0 DUP2 MLOAD SWAP1 POP SWAP2 SWAP1 POP JUMP JUMPDEST PUSH0 DUP3 DUP3 MSTORE PUSH1 0x20 DUP3 ADD SWAP1 POP SWAP3 SWAP2 POP POP JUMP JUMPDEST PUSH0 JUMPDEST DUP4 DUP2 LT ISZERO PUSH2 0x323 JUMPI DUP1 DUP3 ADD MLOAD DUP2 DUP5 ADD MSTORE PUSH1 0x20 DUP2 ADD SWAP1 POP PUSH2 0x308 JUMP JUMPDEST PUSH0 DUP5 DUP5 ADD MSTORE POP POP POP POP JUMP JUMPDEST PUSH0 PUSH1 0x1F NOT PUSH1 0x1F DUP4 ADD AND SWAP1 POP SWAP2 SWAP1 POP JUMP JUMPDEST PUSH0 PUSH2 0x348 DUP3 PUSH2 0x2EC JUMP JUMPDEST PUSH2 0x352 DUP2 DUP6 PUSH2 0x2F6 JUMP JUMPDEST SWAP4 POP PUSH2 0x362 DUP2 DUP6 PUSH1 0x20 DUP7 ADD PUSH2 0x306 JUMP JUMPDEST PUSH2 0x36B DUP2 PUSH2 0x32E JUMP JUMPDEST DUP5 ADD SWAP2 POP POP SWAP3 SWAP2 POP POP JUMP JUMPDEST PUSH0 PUSH1 0x20 DUP3 ADD SWAP1 POP DUP2 DUP2 SUB PUSH0 DUP4 ADD MSTORE PUSH2 0x38E DUP2 DUP5 PUSH2 0x33E JUMP JUMPDEST SWAP1 POP SWAP3 SWAP2 POP POP JUMP JUMPDEST PUSH0 DUP1 PUSH1 0x40 DUP4 DUP6 SUB SLT ISZERO PUSH2 0x3AC JUMPI PUSH2 0x3AB PUSH2 0x293 JUMP JUMPDEST JUMPDEST PUSH0 PUSH2 0x3B9 DUP6 DUP3 DUP7 ADD PUSH2 0x2AD JUMP JUMPDEST SWAP3 POP POP PUSH1 0x20 PUSH2 0x3CA DUP6 DUP3 DUP7 ADD PUSH2 0x2AD JUMP JUMPDEST SWAP2 POP POP SWAP3 POP SWAP3 SWAP1 POP JUMP JUMPDEST PUSH32 0x4E487B7100000000000000000000000000000000000000000000000000000000 PUSH0 MSTORE PUSH1 0x22 PUSH1 0x4 MSTORE PUSH1 0x24 PUSH0 REVERT JUMPDEST PUSH0 PUSH1 0x2 DUP3 DIV SWAP1 POP PUSH1 0x1 DUP3 AND DUP1 PUSH2 0x418 JUMPI PUSH1 0x7F DUP3 AND SWAP2 POP JUMPDEST PUSH1 0x20 DUP3 LT DUP2 SUB PUSH2 0x42B JUMPI PUSH2 0x42A PUSH2 0x3D4 JUMP JUMPDEST JUMPDEST POP SWAP2 SWAP1 POP JUMP JUMPDEST PUSH32 0x4E487B7100000000000000000000000000000000000000000000000000000000 PUSH0 MSTORE PUSH1 0x32 PUSH1 0x4 MSTORE PUSH1 0x24 PUSH0 REVERT JUMPDEST PUSH32 0x4E487B7100000000000000000000000000000000000000000000000000000000 PUSH0 MSTORE PUSH1 0x41 PUSH1 0x4 MSTORE PUSH1 0x24 PUSH0 REVERT JUMPDEST PUSH0 DUP2 SWAP1 POP DUP2 PUSH0 MSTORE PUSH1 0x20 PUSH0 KECCAK256 SWAP1 POP SWAP2 SWAP1 POP JUMP JUMPDEST PUSH0 PUSH1 0x20 PUSH1 0x1F DUP4 ADD DIV SWAP1 POP SWAP2 SWAP1 POP JUMP JUMPDEST PUSH0 DUP3 DUP3 SHL SWAP1 POP SWAP3 SWAP2 POP POP JUMP JUMPDEST PUSH0 PUSH1 0x8 DUP4 MUL PUSH2 0x4E7 PUSH32 0xFFFFFFFFFFFFFFFFFFFFFFFFFFFFFFFFFFFFFFFFFFFFFFFFFFFFFFFFFFFFFFFF DUP3 PUSH2 0x4AC JUMP JUMPDEST PUSH2 0x4F1 DUP7 DUP4 PUSH2 0x4AC JUMP JUMPDEST SWAP6 POP DUP1 NOT DUP5 AND SWAP4 POP DUP1 DUP7 AND DUP5 OR SWAP3 POP POP POP SWAP4 SWAP3 POP POP POP JUMP JUMPDEST PUSH0 DUP2 SWAP1 POP SWAP2 SWAP1 POP JUMP JUMPDEST PUSH0 PUSH2 0x52C PUSH2 0x527 PUSH2 0x522 DUP5 PUSH2 0x262 JUMP JUMPDEST PUSH2 0x509 JUMP JUMPDEST PUSH2 0x262 JUMP JUMPDEST SWAP1 POP SWAP2 SWAP1 POP JUMP JUMPDEST PUSH0 DUP2 SWAP1 POP SWAP2 SWAP1 POP JUMP JUMPDEST PUSH2 0x545 DUP4 PUSH2 0x512 JUMP JUMPDEST PUSH2 0x559 PUSH2 0x551 DUP3 PUSH2 0x533 JUMP JUMPDEST DUP5 DUP5 SLOAD PUSH2 0x4B8 JUMP JUMPDEST DUP3 SSTORE POP POP POP POP JUMP JUMPDEST PUSH0 SWAP1 JUMP JUMPDEST PUSH2 0x56D PUSH2 0x561 JUMP JUMPDEST PUSH2 0x578 DUP2 DUP5 DUP5 PUSH2 0x53C JUMP JUMPDEST POP POP POP JUMP JUMPDEST JUMPDEST DUP2 DUP2 LT ISZERO PUSH2 0x59B JUMPI PUSH2 0x590 PUSH0 DUP3 PUSH2 0x565 JUMP JUMPDEST PUSH1 0x1 DUP2 ADD SWAP1 POP PUSH2 0x57E JUMP JUMPDEST POP POP JUMP JUMPDEST PUSH1 0x1F DUP3 GT ISZERO PUSH2 0x5E0 JUMPI PUSH2 0x5B1 DUP2 PUSH2 0x48B JUMP JUMPDEST PUSH2 0x5BA DUP5 PUSH2 0x49D JUMP JUMPDEST DUP2 ADD PUSH1 0x20 DUP6 LT ISZERO PUSH2 0x5C9 JUMPI DUP2 SWAP1 POP JUMPDEST PUSH2 0x5DD PUSH2 0x5D5 DUP6 PUSH2 0x49D JUMP JUMPDEST DUP4 ADD DUP3 PUSH2 0x57D JUMP JUMPDEST POP POP JUMPDEST POP POP POP JUMP JUMPDEST PUSH0 DUP3 DUP3 SHR SWAP1 POP SWAP3 SWAP2 POP POP JUMP JUMPDEST PUSH0 PUSH2 0x600 PUSH0 NOT DUP5 PUSH1 0x8 MUL PUSH2 0x5E5 JUMP JUMPDEST NOT DUP1 DUP4 AND SWAP2 POP POP SWAP3 SWAP2 POP POP JUMP JUMPDEST PUSH0 PUSH2 0x618 DUP4 DUP4 PUSH2 0x5F1 JUMP JUMPDEST SWAP2 POP DUP3 PUSH1 0x2 MUL DUP3 OR SWAP1 POP SWAP3 SWAP2 POP POP JUMP JUMPDEST PUSH2 0x631 DUP3 PUSH2 0x2EC JUMP JUMPDEST PUSH8 0xFFFFFFFFFFFFFFFF DUP2 GT ISZERO PUSH2 0x64A JUMPI PUSH2 0x649 PUSH2 0x45E JUMP JUMPDEST JUMPDEST PUSH2 0x654 DUP3 SLOAD PUSH2 0x401 JUMP JUMPDEST PUSH2 0x65F DUP3 DUP3 DUP6 PUSH2 0x59F JUMP JUMPDEST PUSH0 PUSH1 0x20 SWAP1 POP PUSH1 0x1F DUP4 GT PUSH1 0x1 DUP2 EQ PUSH2 0x690 JUMPI PUSH0 DUP5 ISZERO PUSH2 0x67E JUMPI DUP3 DUP8 ADD MLOAD SWAP1 POP JUMPDEST PUSH2 0x688 DUP6 DUP3 PUSH2 0x60D JUMP JUMPDEST DUP7 SSTORE POP PUSH2 0x6EF JUMP JUMPDEST PUSH1 0x1F NOT DUP5 AND PUSH2 0x69E DUP7 PUSH2 0x48B JUMP JUMPDEST PUSH0 JUMPDEST DUP3 DUP2 LT ISZERO PUSH2 0x6C5 JUMPI DUP5 DUP10 ADD MLOAD DUP3 SSTORE PUSH1 0x1 DUP3 ADD SWAP2 POP PUSH1 0x20 DUP6 ADD SWAP5 POP PUSH1 0x20 DUP2 ADD SWAP1 POP PUSH2 0x6A0 JUMP JUMPDEST DUP7 DUP4 LT ISZERO PUSH2 0x6E2 JUMPI DUP5 DUP10 ADD MLOAD PUSH2 0x6DE PUSH1 0x1F DUP10 AND DUP3 PUSH2 0x5F1 JUMP JUMPDEST DUP4 SSTORE POP JUMPDEST PUSH1 0x1 PUSH1 0x2 DUP9 MUL ADD DUP9 SSTORE POP POP POP JUMPDEST POP POP POP POP POP POP JUMP INVALID LOG2 PUSH5 0x6970667358 0x22 SLT KECCAK256 0xAB LOG1 0xD1 PUSH2 0x9373 0xE5 0xB1 MOD 0xBC PUSH9 0x4779C25AA8D8BA0068 MSTORE 0xE0 SWAP9 0xA9 0x21 SWAP15 0xD4 PUSH23 0x8BD8DA5B64736F6C634300081400330000000000000000 "
				},
				"gasEstimates": {
					"creation": {
						"codeDepositCost": "367400",
						"executionCost": "infinite",
						"totalCost": "infinite"
					},
					"external": {
						"arr(uint256)": "infinite",
						"check(uint256,uint256)": "infinite",
						"count()": "2403",
						"mem()": "infinite"
					}
				},
				"methodIdentifiers": {
					"arr(uint256)": "71e5ee5f",
					"check(uint256,uint256)": "8fefd8ea",
					"count()": "06661abd",
					"mem()": "85883d8c"
				}
			},
			"storageLayout": {
				"storage": [
					{
						"astId": 9,
						"contract": "Basics of Solidity/IfElse.sol:Ifelse",
						"label": "arr",
						"offset": 0,
						"slot": "0",
						"type": "t_array(t_uint256)3_storage"
					},
					{
						"astId": 12,
						"contract": "Basics of Solidity/IfElse.sol:Ifelse",
						"label": "count",
						"offset": 0,
						"slot": "3",
						"type": "t_uint256"
					},
					{
						"astId": 14,
						"contract": "Basics of Solidity/IfElse.sol:Ifelse",
						"label": "mem",
						"offset": 0,
						"slot": "4",
						"type": "t_string_storage"
					}
				],
				"types": {
					"t_array(t_uint256)3_storage": {
						"base": "t_uint256",
						"encoding": "inplace",
						"label": "uint256[3]",
						"numberOfBytes": "96"
					},
					"t_string_storage": {
						"encoding": "bytes",
						"label": "string",
						"numberOfBytes": "32"
					},
					"t_uint256": {
						"encoding": "inplace",
						"label": "uint256",
						"numberOfBytes": "32"
					}
				}
			},
			"userdoc": {
				"kind": "user",
				"methods": {},
				"version": 1
			}
		}
	}
}