{
	"Basics of Solidity/Overflow.sol": {
		"local": {
			"abi": [
				{
					"constant": false,
					"inputs": [],
					"name": "setter",
					"outputs": [],
					"payable": false,
					"stateMutability": "nonpayable",
					"type": "function"
				},
				{
					"constant": true,
					"inputs": [],
					"name": "money",
					"outputs": [
						{
							"name": "",
							"type": "uint8"
						}
					],
					"payable": false,
					"stateMutability": "view",
					"type": "function"
				}
			],
			"devdoc": {
				"methods": {}
			},
			"evm": {
				"assembly": "    /* \"Basics of Solidity/Overflow.sol\":63:252  contract local{\r... */\n  mstore(0x40, 0x80)\n    /* \"Basics of Solidity/Overflow.sol\":107:110  255 */\n  0xff\n    /* \"Basics of Solidity/Overflow.sol\":86:110  uint8 public money = 255 */\n  0x0\n  dup1\n  0x100\n  exp\n  dup2\n  sload\n  dup2\n  0xff\n  mul\n  not\n  and\n  swap1\n  dup4\n  0xff\n  and\n  mul\n  or\n  swap1\n  sstore\n  pop\n    /* \"Basics of Solidity/Overflow.sol\":63:252  contract local{\r... */\n  callvalue\n    /* \"--CODEGEN--\":8:17   */\n  dup1\n    /* \"--CODEGEN--\":5:7   */\n  iszero\n  tag_1\n  jumpi\n    /* \"--CODEGEN--\":30:31   */\n  0x0\n    /* \"--CODEGEN--\":27:28   */\n  dup1\n    /* \"--CODEGEN--\":20:32   */\n  revert\n    /* \"--CODEGEN--\":5:7   */\ntag_1:\n    /* \"Basics of Solidity/Overflow.sol\":63:252  contract local{\r... */\n  pop\n  dataSize(sub_0)\n  dup1\n  dataOffset(sub_0)\n  0x0\n  codecopy\n  0x0\n  return\nstop\n\nsub_0: assembly {\n        /* \"Basics of Solidity/Overflow.sol\":63:252  contract local{\r... */\n      mstore(0x40, 0x80)\n      jumpi(tag_1, lt(calldatasize, 0x4))\n      calldataload(0x0)\n      0x100000000000000000000000000000000000000000000000000000000\n      swap1\n      div\n      0xffffffff\n      and\n      dup1\n      0x3f3108f7\n      eq\n      tag_2\n      jumpi\n      dup1\n      0x4ddd108a\n      eq\n      tag_3\n      jumpi\n    tag_1:\n      0x0\n      dup1\n      revert\n        /* \"Basics of Solidity/Overflow.sol\":119:179  function setter() public{\r... */\n    tag_2:\n      callvalue\n        /* \"--CODEGEN--\":8:17   */\n      dup1\n        /* \"--CODEGEN--\":5:7   */\n      iszero\n      tag_4\n      jumpi\n        /* \"--CODEGEN--\":30:31   */\n      0x0\n        /* \"--CODEGEN--\":27:28   */\n      dup1\n        /* \"--CODEGEN--\":20:32   */\n      revert\n        /* \"--CODEGEN--\":5:7   */\n    tag_4:\n        /* \"Basics of Solidity/Overflow.sol\":119:179  function setter() public{\r... */\n      pop\n      tag_5\n      jump(tag_6)\n    tag_5:\n      stop\n        /* \"Basics of Solidity/Overflow.sol\":86:110  uint8 public money = 255 */\n    tag_3:\n      callvalue\n        /* \"--CODEGEN--\":8:17   */\n      dup1\n        /* \"--CODEGEN--\":5:7   */\n      iszero\n      tag_7\n      jumpi\n        /* \"--CODEGEN--\":30:31   */\n      0x0\n        /* \"--CODEGEN--\":27:28   */\n      dup1\n        /* \"--CODEGEN--\":20:32   */\n      revert\n        /* \"--CODEGEN--\":5:7   */\n    tag_7:\n        /* \"Basics of Solidity/Overflow.sol\":86:110  uint8 public money = 255 */\n      pop\n      tag_8\n      jump(tag_9)\n    tag_8:\n      mload(0x40)\n      dup1\n      dup3\n      0xff\n      and\n      0xff\n      and\n      dup2\n      mstore\n      0x20\n      add\n      swap2\n      pop\n      pop\n      mload(0x40)\n      dup1\n      swap2\n      sub\n      swap1\n      return\n        /* \"Basics of Solidity/Overflow.sol\":119:179  function setter() public{\r... */\n    tag_6:\n        /* \"Basics of Solidity/Overflow.sol\":170:171  1 */\n      0x1\n        /* \"Basics of Solidity/Overflow.sol\":162:167  money */\n      0x0\n      dup1\n      swap1\n      sload\n      swap1\n      0x100\n      exp\n      swap1\n      div\n      0xff\n      and\n        /* \"Basics of Solidity/Overflow.sol\":162:171  money + 1 */\n      add\n        /* \"Basics of Solidity/Overflow.sol\":154:159  money */\n      0x0\n      dup1\n        /* \"Basics of Solidity/Overflow.sol\":154:171  money = money + 1 */\n      0x100\n      exp\n      dup2\n      sload\n      dup2\n      0xff\n      mul\n      not\n      and\n      swap1\n      dup4\n      0xff\n      and\n      mul\n      or\n      swap1\n      sstore\n      pop\n        /* \"Basics of Solidity/Overflow.sol\":119:179  function setter() public{\r... */\n      jump\t// out\n        /* \"Basics of Solidity/Overflow.sol\":86:110  uint8 public money = 255 */\n    tag_9:\n      0x0\n      dup1\n      swap1\n      sload\n      swap1\n      0x100\n      exp\n      swap1\n      div\n      0xff\n      and\n      dup2\n      jump\t// out\n\n    auxdata: 0xa165627a7a72305820c724a34035bbc2d71d83148b61e8963112ffa48c4a0607bf7bae49ee3351ce4e0029\n}\n",
				"bytecode": {
					"linkReferences": {},
					"object": "608060405260ff6000806101000a81548160ff021916908360ff16021790555034801561002b57600080fd5b5060fb8061003a6000396000f3fe6080604052600436106049576000357c0100000000000000000000000000000000000000000000000000000000900463ffffffff1680633f3108f714604e5780634ddd108a146062575b600080fd5b348015605957600080fd5b5060606090565b005b348015606d57600080fd5b50607460bd565b604051808260ff1660ff16815260200191505060405180910390f35b60016000809054906101000a900460ff16016000806101000a81548160ff021916908360ff160217905550565b6000809054906101000a900460ff168156fea165627a7a72305820c724a34035bbc2d71d83148b61e8963112ffa48c4a0607bf7bae49ee3351ce4e0029",
					"opcodes": "PUSH1 0x80 PUSH1 0x40 MSTORE PUSH1 0xFF PUSH1 0x0 DUP1 PUSH2 0x100 EXP DUP2 SLOAD DUP2 PUSH1 0xFF MUL NOT AND SWAP1 DUP4 PUSH1 0xFF AND MUL OR SWAP1 SSTORE POP CALLVALUE DUP1 ISZERO PUSH2 0x2B JUMPI PUSH1 0x0 DUP1 REVERT JUMPDEST POP PUSH1 0xFB DUP1 PUSH2 0x3A PUSH1 0x0 CODECOPY PUSH1 0x0 RETURN INVALID PUSH1 0x80 PUSH1 0x40 MSTORE PUSH1 0x4 CALLDATASIZE LT PUSH1 0x49 JUMPI PUSH1 0x0 CALLDATALOAD PUSH29 0x100000000000000000000000000000000000000000000000000000000 SWAP1 DIV PUSH4 0xFFFFFFFF AND DUP1 PUSH4 0x3F3108F7 EQ PUSH1 0x4E JUMPI DUP1 PUSH4 0x4DDD108A EQ PUSH1 0x62 JUMPI JUMPDEST PUSH1 0x0 DUP1 REVERT JUMPDEST CALLVALUE DUP1 ISZERO PUSH1 0x59 JUMPI PUSH1 0x0 DUP1 REVERT JUMPDEST POP PUSH1 0x60 PUSH1 0x90 JUMP JUMPDEST STOP JUMPDEST CALLVALUE DUP1 ISZERO PUSH1 0x6D JUMPI PUSH1 0x0 DUP1 REVERT JUMPDEST POP PUSH1 0x74 PUSH1 0xBD JUMP JUMPDEST PUSH1 0x40 MLOAD DUP1 DUP3 PUSH1 0xFF AND PUSH1 0xFF AND DUP2 MSTORE PUSH1 0x20 ADD SWAP2 POP POP PUSH1 0x40 MLOAD DUP1 SWAP2 SUB SWAP1 RETURN JUMPDEST PUSH1 0x1 PUSH1 0x0 DUP1 SWAP1 SLOAD SWAP1 PUSH2 0x100 EXP SWAP1 DIV PUSH1 0xFF AND ADD PUSH1 0x0 DUP1 PUSH2 0x100 EXP DUP2 SLOAD DUP2 PUSH1 0xFF MUL NOT AND SWAP1 DUP4 PUSH1 0xFF AND MUL OR SWAP1 SSTORE POP JUMP JUMPDEST PUSH1 0x0 DUP1 SWAP1 SLOAD SWAP1 PUSH2 0x100 EXP SWAP1 DIV PUSH1 0xFF AND DUP2 JUMP INVALID LOG1 PUSH6 0x627A7A723058 KECCAK256 0xc7 0x24 LOG3 BLOCKHASH CALLDATALOAD 0xbb 0xc2 0xd7 SAR DUP4 EQ DUP12 PUSH2 0xE896 BALANCE SLT SELFDESTRUCT LOG4 DUP13 0x4a MOD SMOD 0xbf PUSH28 0xAE49EE3351CE4E002900000000000000000000000000000000000000 "
				},
				"gasEstimates": {
					"creation": {
						"codeDepositCost": "50200",
						"executionCost": "20366",
						"totalCost": "70566"
					},
					"external": {
						"money()": "464",
						"setter()": "20642"
					}
				},
				"methodIdentifiers": {
					"money()": "4ddd108a",
					"setter()": "3f3108f7"
				}
			},
			"userdoc": {
				"methods": {}
			}
		}
	}
}