{
	"Basics of Solidity/ViewvsPure.sol": {
		"local": {
			"abi": [
				{
					"inputs": [],
					"name": "getter",
					"outputs": [
						{
							"internalType": "uint256",
							"name": "",
							"type": "uint256"
						}
					],
					"stateMutability": "pure",
					"type": "function"
				}
			],
			"devdoc": {
				"kind": "dev",
				"methods": {},
				"version": 1
			},
			"evm": {
				"assembly": "    /* \"Basics of Solidity/ViewvsPure.sol\":63:384  contract local{... */\n  mstore(0x40, 0x80)\n    /* \"Basics of Solidity/ViewvsPure.sol\":95:97  21 */\n  0x15\n    /* \"Basics of Solidity/ViewvsPure.sol\":84:97  uint age = 21 */\n  0x00\n  sstore\n    /* \"Basics of Solidity/ViewvsPure.sol\":63:384  contract local{... */\n  callvalue\n  dup1\n  iszero\n  tag_1\n  jumpi\n  0x00\n  dup1\n  revert\ntag_1:\n  pop\n  dataSize(sub_0)\n  dup1\n  dataOffset(sub_0)\n  0x00\n  codecopy\n  0x00\n  return\nstop\n\nsub_0: assembly {\n        /* \"Basics of Solidity/ViewvsPure.sol\":63:384  contract local{... */\n      mstore(0x40, 0x80)\n      callvalue\n      dup1\n      iszero\n      tag_1\n      jumpi\n      0x00\n      dup1\n      revert\n    tag_1:\n      pop\n      jumpi(tag_2, lt(calldatasize, 0x04))\n      shr(0xe0, calldataload(0x00))\n      dup1\n      0x993a04b7\n      eq\n      tag_3\n      jumpi\n    tag_2:\n      0x00\n      dup1\n      revert\n        /* \"Basics of Solidity/ViewvsPure.sol\":281:379  function getter() public pure returns(uint){... */\n    tag_3:\n      tag_4\n      tag_5\n      jump\t// in\n    tag_4:\n      mload(0x40)\n      tag_6\n      swap2\n      swap1\n      tag_7\n      jump\t// in\n    tag_6:\n      mload(0x40)\n      dup1\n      swap2\n      sub\n      swap1\n      return\n    tag_5:\n        /* \"Basics of Solidity/ViewvsPure.sol\":319:323  uint */\n      0x00\n        /* \"Basics of Solidity/ViewvsPure.sol\":335:344  uint age2 */\n      dup1\n        /* \"Basics of Solidity/ViewvsPure.sol\":347:349  21 */\n      0x15\n        /* \"Basics of Solidity/ViewvsPure.sol\":335:349  uint age2 = 21 */\n      swap1\n      pop\n        /* \"Basics of Solidity/ViewvsPure.sol\":367:371  age2 */\n      dup1\n        /* \"Basics of Solidity/ViewvsPure.sol\":360:371  return age2 */\n      swap2\n      pop\n      pop\n        /* \"Basics of Solidity/ViewvsPure.sol\":281:379  function getter() public pure returns(uint){... */\n      swap1\n      jump\t// out\n        /* \"#utility.yul\":7:84   */\n    tag_9:\n        /* \"#utility.yul\":44:51   */\n      0x00\n        /* \"#utility.yul\":73:78   */\n      dup2\n        /* \"#utility.yul\":62:78   */\n      swap1\n      pop\n        /* \"#utility.yul\":7:84   */\n      swap2\n      swap1\n      pop\n      jump\t// out\n        /* \"#utility.yul\":90:208   */\n    tag_10:\n        /* \"#utility.yul\":177:201   */\n      tag_14\n        /* \"#utility.yul\":195:200   */\n      dup2\n        /* \"#utility.yul\":177:201   */\n      tag_9\n      jump\t// in\n    tag_14:\n        /* \"#utility.yul\":172:175   */\n      dup3\n        /* \"#utility.yul\":165:202   */\n      mstore\n        /* \"#utility.yul\":90:208   */\n      pop\n      pop\n      jump\t// out\n        /* \"#utility.yul\":214:436   */\n    tag_7:\n        /* \"#utility.yul\":307:311   */\n      0x00\n        /* \"#utility.yul\":345:347   */\n      0x20\n        /* \"#utility.yul\":334:343   */\n      dup3\n        /* \"#utility.yul\":330:348   */\n      add\n        /* \"#utility.yul\":322:348   */\n      swap1\n      pop\n        /* \"#utility.yul\":358:429   */\n      tag_16\n        /* \"#utility.yul\":426:427   */\n      0x00\n        /* \"#utility.yul\":415:424   */\n      dup4\n        /* \"#utility.yul\":411:428   */\n      add\n        /* \"#utility.yul\":402:408   */\n      dup5\n        /* \"#utility.yul\":358:429   */\n      tag_10\n      jump\t// in\n    tag_16:\n        /* \"#utility.yul\":214:436   */\n      swap3\n      swap2\n      pop\n      pop\n      jump\t// out\n\n    auxdata: 0xa2646970667358221220281292fb72efa78ba237d9c8f5f75714fd63214c0c5f0ad5bfb955583048ef8264736f6c63430008140033\n}\n",
				"bytecode": {
					"linkReferences": {},
					"object": "608060405260155f55348015610013575f80fd5b5060b4806100205f395ff3fe6080604052348015600e575f80fd5b50600436106026575f3560e01c8063993a04b714602a575b5f80fd5b60306044565b604051603b91906067565b60405180910390f35b5f80601590508091505090565b5f819050919050565b6061816051565b82525050565b5f60208201905060785f830184605a565b9291505056fea2646970667358221220281292fb72efa78ba237d9c8f5f75714fd63214c0c5f0ad5bfb955583048ef8264736f6c63430008140033",
					"opcodes": "PUSH1 0x80 PUSH1 0x40 MSTORE PUSH1 0x15 PUSH0 SSTORE CALLVALUE DUP1 ISZERO PUSH2 0x13 JUMPI PUSH0 DUP1 REVERT JUMPDEST POP PUSH1 0xB4 DUP1 PUSH2 0x20 PUSH0 CODECOPY PUSH0 RETURN INVALID PUSH1 0x80 PUSH1 0x40 MSTORE CALLVALUE DUP1 ISZERO PUSH1 0xE JUMPI PUSH0 DUP1 REVERT JUMPDEST POP PUSH1 0x4 CALLDATASIZE LT PUSH1 0x26 JUMPI PUSH0 CALLDATALOAD PUSH1 0xE0 SHR DUP1 PUSH4 0x993A04B7 EQ PUSH1 0x2A JUMPI JUMPDEST PUSH0 DUP1 REVERT JUMPDEST PUSH1 0x30 PUSH1 0x44 JUMP JUMPDEST PUSH1 0x40 MLOAD PUSH1 0x3B SWAP2 SWAP1 PUSH1 0x67 JUMP JUMPDEST PUSH1 0x40 MLOAD DUP1 SWAP2 SUB SWAP1 RETURN JUMPDEST PUSH0 DUP1 PUSH1 0x15 SWAP1 POP DUP1 SWAP2 POP POP SWAP1 JUMP JUMPDEST PUSH0 DUP2 SWAP1 POP SWAP2 SWAP1 POP JUMP JUMPDEST PUSH1 0x61 DUP2 PUSH1 0x51 JUMP JUMPDEST DUP3 MSTORE POP POP JUMP JUMPDEST PUSH0 PUSH1 0x20 DUP3 ADD SWAP1 POP PUSH1 0x78 PUSH0 DUP4 ADD DUP5 PUSH1 0x5A JUMP JUMPDEST SWAP3 SWAP2 POP POP JUMP INVALID LOG2 PUSH5 0x6970667358 0x22 SLT KECCAK256 0x28 SLT SWAP3 0xFB PUSH19 0xEFA78BA237D9C8F5F75714FD63214C0C5F0AD5 0xBF 0xB9 SSTORE PC ADDRESS BASEFEE 0xEF DUP3 PUSH5 0x736F6C6343 STOP ADDMOD EQ STOP CALLER "
				},
				"gasEstimates": {
					"creation": {
						"codeDepositCost": "36000",
						"executionCost": "22190",
						"totalCost": "58190"
					},
					"external": {
						"getter()": "323"
					}
				},
				"methodIdentifiers": {
					"getter()": "993a04b7"
				}
			},
			"storageLayout": {
				"storage": [
					{
						"astId": 4,
						"contract": "Basics of Solidity/ViewvsPure.sol:local",
						"label": "age",
						"offset": 0,
						"slot": "0",
						"type": "t_uint256"
					}
				],
				"types": {
					"t_uint256": {
						"encoding": "inplace",
						"label": "uint256",
						"numberOfBytes": "32"
					}
				}
			},
			"userdoc": {
				"kind": "user",
				"methods": {},
				"version": 1
			}
		}
	}
}