{
	"Basics of Solidity/BytesArrayDynami.sol": {
		"ByteArrays": {
			"abi": [
				{
					"inputs": [],
					"name": "b1",
					"outputs": [
						{
							"internalType": "bytes",
							"name": "",
							"type": "bytes"
						}
					],
					"stateMutability": "view",
					"type": "function"
				},
				{
					"inputs": [
						{
							"internalType": "uint256",
							"name": "index",
							"type": "uint256"
						}
					],
					"name": "getele",
					"outputs": [
						{
							"internalType": "bytes1",
							"name": "",
							"type": "bytes1"
						}
					],
					"stateMutability": "view",
					"type": "function"
				},
				{
					"inputs": [],
					"name": "pushele",
					"outputs": [],
					"stateMutability": "nonpayable",
					"type": "function"
				},
				{
					"inputs": [],
					"name": "setter",
					"outputs": [],
					"stateMutability": "nonpayable",
					"type": "function"
				}
			],
			"devdoc": {
				"kind": "dev",
				"methods": {},
				"version": 1
			},
			"evm": {
				"assembly": "    /* \"Basics of Solidity/BytesArrayDynami.sol\":72:359  contract ByteArrays{... */\n  mstore(0x40, 0x80)\n    /* \"Basics of Solidity/BytesArrayDynami.sol\":107:130  bytes public b1 = \"abc\" */\n  mload(0x40)\n  dup1\n  0x40\n  add\n  0x40\n  mstore\n  dup1\n  0x03\n  dup2\n  mstore\n  0x20\n  add\n  0x6162630000000000000000000000000000000000000000000000000000000000\n  dup2\n  mstore\n  pop\n  0x00\n  swap1\n  dup2\n  tag_1\n  swap2\n  swap1\n  tag_2\n  jump\t// in\ntag_1:\n  pop\n    /* \"Basics of Solidity/BytesArrayDynami.sol\":72:359  contract ByteArrays{... */\n  callvalue\n  dup1\n  iszero\n  tag_3\n  jumpi\n  0x00\n  dup1\n  revert\ntag_3:\n  pop\n  jump(tag_4)\n    /* \"#utility.yul\":7:106   */\ntag_5:\n    /* \"#utility.yul\":59:65   */\n  0x00\n    /* \"#utility.yul\":93:98   */\n  dup2\n    /* \"#utility.yul\":87:99   */\n  mload\n    /* \"#utility.yul\":77:99   */\n  swap1\n  pop\n    /* \"#utility.yul\":7:106   */\n  swap2\n  swap1\n  pop\n  jump\t// out\n    /* \"#utility.yul\":112:292   */\ntag_6:\n    /* \"#utility.yul\":160:237   */\n  0x4e487b7100000000000000000000000000000000000000000000000000000000\n    /* \"#utility.yul\":157:158   */\n  0x00\n    /* \"#utility.yul\":150:238   */\n  mstore\n    /* \"#utility.yul\":257:261   */\n  0x41\n    /* \"#utility.yul\":254:255   */\n  0x04\n    /* \"#utility.yul\":247:262   */\n  mstore\n    /* \"#utility.yul\":281:285   */\n  0x24\n    /* \"#utility.yul\":278:279   */\n  0x00\n    /* \"#utility.yul\":271:286   */\n  revert\n    /* \"#utility.yul\":298:478   */\ntag_7:\n    /* \"#utility.yul\":346:423   */\n  0x4e487b7100000000000000000000000000000000000000000000000000000000\n    /* \"#utility.yul\":343:344   */\n  0x00\n    /* \"#utility.yul\":336:424   */\n  mstore\n    /* \"#utility.yul\":443:447   */\n  0x22\n    /* \"#utility.yul\":440:441   */\n  0x04\n    /* \"#utility.yul\":433:448   */\n  mstore\n    /* \"#utility.yul\":467:471   */\n  0x24\n    /* \"#utility.yul\":464:465   */\n  0x00\n    /* \"#utility.yul\":457:472   */\n  revert\n    /* \"#utility.yul\":484:804   */\ntag_8:\n    /* \"#utility.yul\":528:534   */\n  0x00\n    /* \"#utility.yul\":565:566   */\n  0x02\n    /* \"#utility.yul\":559:563   */\n  dup3\n    /* \"#utility.yul\":555:567   */\n  div\n    /* \"#utility.yul\":545:567   */\n  swap1\n  pop\n    /* \"#utility.yul\":612:613   */\n  0x01\n    /* \"#utility.yul\":606:610   */\n  dup3\n    /* \"#utility.yul\":602:614   */\n  and\n    /* \"#utility.yul\":633:651   */\n  dup1\n    /* \"#utility.yul\":623:704   */\n  tag_30\n  jumpi\n    /* \"#utility.yul\":689:693   */\n  0x7f\n    /* \"#utility.yul\":681:687   */\n  dup3\n    /* \"#utility.yul\":677:694   */\n  and\n    /* \"#utility.yul\":667:694   */\n  swap2\n  pop\n    /* \"#utility.yul\":623:704   */\ntag_30:\n    /* \"#utility.yul\":751:753   */\n  0x20\n    /* \"#utility.yul\":743:749   */\n  dup3\n    /* \"#utility.yul\":740:754   */\n  lt\n    /* \"#utility.yul\":720:738   */\n  dup2\n    /* \"#utility.yul\":717:755   */\n  sub\n    /* \"#utility.yul\":714:798   */\n  tag_31\n  jumpi\n    /* \"#utility.yul\":770:788   */\n  tag_32\n  tag_7\n  jump\t// in\ntag_32:\n    /* \"#utility.yul\":714:798   */\ntag_31:\n    /* \"#utility.yul\":535:804   */\n  pop\n    /* \"#utility.yul\":484:804   */\n  swap2\n  swap1\n  pop\n  jump\t// out\n    /* \"#utility.yul\":810:950   */\ntag_9:\n    /* \"#utility.yul\":858:862   */\n  0x00\n    /* \"#utility.yul\":881:884   */\n  dup2\n    /* \"#utility.yul\":873:884   */\n  swap1\n  pop\n    /* \"#utility.yul\":904:907   */\n  dup2\n    /* \"#utility.yul\":901:902   */\n  0x00\n    /* \"#utility.yul\":894:908   */\n  mstore\n    /* \"#utility.yul\":938:942   */\n  0x20\n    /* \"#utility.yul\":935:936   */\n  0x00\n    /* \"#utility.yul\":925:943   */\n  keccak256\n    /* \"#utility.yul\":917:943   */\n  swap1\n  pop\n    /* \"#utility.yul\":810:950   */\n  swap2\n  swap1\n  pop\n  jump\t// out\n    /* \"#utility.yul\":956:1049   */\ntag_10:\n    /* \"#utility.yul\":993:999   */\n  0x00\n    /* \"#utility.yul\":1040:1042   */\n  0x20\n    /* \"#utility.yul\":1035:1037   */\n  0x1f\n    /* \"#utility.yul\":1028:1033   */\n  dup4\n    /* \"#utility.yul\":1024:1038   */\n  add\n    /* \"#utility.yul\":1020:1043   */\n  div\n    /* \"#utility.yul\":1010:1043   */\n  swap1\n  pop\n    /* \"#utility.yul\":956:1049   */\n  swap2\n  swap1\n  pop\n  jump\t// out\n    /* \"#utility.yul\":1055:1162   */\ntag_11:\n    /* \"#utility.yul\":1099:1107   */\n  0x00\n    /* \"#utility.yul\":1149:1154   */\n  dup3\n    /* \"#utility.yul\":1143:1147   */\n  dup3\n    /* \"#utility.yul\":1139:1155   */\n  shl\n    /* \"#utility.yul\":1118:1155   */\n  swap1\n  pop\n    /* \"#utility.yul\":1055:1162   */\n  swap3\n  swap2\n  pop\n  pop\n  jump\t// out\n    /* \"#utility.yul\":1168:1561   */\ntag_12:\n    /* \"#utility.yul\":1237:1243   */\n  0x00\n    /* \"#utility.yul\":1287:1288   */\n  0x08\n    /* \"#utility.yul\":1275:1285   */\n  dup4\n    /* \"#utility.yul\":1271:1289   */\n  mul\n    /* \"#utility.yul\":1310:1407   */\n  tag_37\n    /* \"#utility.yul\":1340:1406   */\n  0xffffffffffffffffffffffffffffffffffffffffffffffffffffffffffffffff\n    /* \"#utility.yul\":1329:1338   */\n  dup3\n    /* \"#utility.yul\":1310:1407   */\n  tag_11\n  jump\t// in\ntag_37:\n    /* \"#utility.yul\":1428:1467   */\n  tag_38\n    /* \"#utility.yul\":1458:1466   */\n  dup7\n    /* \"#utility.yul\":1447:1456   */\n  dup4\n    /* \"#utility.yul\":1428:1467   */\n  tag_11\n  jump\t// in\ntag_38:\n    /* \"#utility.yul\":1416:1467   */\n  swap6\n  pop\n    /* \"#utility.yul\":1500:1504   */\n  dup1\n    /* \"#utility.yul\":1496:1505   */\n  not\n    /* \"#utility.yul\":1489:1494   */\n  dup5\n    /* \"#utility.yul\":1485:1506   */\n  and\n    /* \"#utility.yul\":1476:1506   */\n  swap4\n  pop\n    /* \"#utility.yul\":1549:1553   */\n  dup1\n    /* \"#utility.yul\":1539:1547   */\n  dup7\n    /* \"#utility.yul\":1535:1554   */\n  and\n    /* \"#utility.yul\":1528:1533   */\n  dup5\n    /* \"#utility.yul\":1525:1555   */\n  or\n    /* \"#utility.yul\":1515:1555   */\n  swap3\n  pop\n    /* \"#utility.yul\":1244:1561   */\n  pop\n  pop\n    /* \"#utility.yul\":1168:1561   */\n  swap4\n  swap3\n  pop\n  pop\n  pop\n  jump\t// out\n    /* \"#utility.yul\":1567:1644   */\ntag_13:\n    /* \"#utility.yul\":1604:1611   */\n  0x00\n    /* \"#utility.yul\":1633:1638   */\n  dup2\n    /* \"#utility.yul\":1622:1638   */\n  swap1\n  pop\n    /* \"#utility.yul\":1567:1644   */\n  swap2\n  swap1\n  pop\n  jump\t// out\n    /* \"#utility.yul\":1650:1710   */\ntag_14:\n    /* \"#utility.yul\":1678:1681   */\n  0x00\n    /* \"#utility.yul\":1699:1704   */\n  dup2\n    /* \"#utility.yul\":1692:1704   */\n  swap1\n  pop\n    /* \"#utility.yul\":1650:1710   */\n  swap2\n  swap1\n  pop\n  jump\t// out\n    /* \"#utility.yul\":1716:1858   */\ntag_15:\n    /* \"#utility.yul\":1766:1775   */\n  0x00\n    /* \"#utility.yul\":1799:1852   */\n  tag_42\n    /* \"#utility.yul\":1817:1851   */\n  tag_43\n    /* \"#utility.yul\":1826:1850   */\n  tag_44\n    /* \"#utility.yul\":1844:1849   */\n  dup5\n    /* \"#utility.yul\":1826:1850   */\n  tag_13\n  jump\t// in\ntag_44:\n    /* \"#utility.yul\":1817:1851   */\n  tag_14\n  jump\t// in\ntag_43:\n    /* \"#utility.yul\":1799:1852   */\n  tag_13\n  jump\t// in\ntag_42:\n    /* \"#utility.yul\":1786:1852   */\n  swap1\n  pop\n    /* \"#utility.yul\":1716:1858   */\n  swap2\n  swap1\n  pop\n  jump\t// out\n    /* \"#utility.yul\":1864:1939   */\ntag_16:\n    /* \"#utility.yul\":1907:1910   */\n  0x00\n    /* \"#utility.yul\":1928:1933   */\n  dup2\n    /* \"#utility.yul\":1921:1933   */\n  swap1\n  pop\n    /* \"#utility.yul\":1864:1939   */\n  swap2\n  swap1\n  pop\n  jump\t// out\n    /* \"#utility.yul\":1945:2214   */\ntag_17:\n    /* \"#utility.yul\":2055:2094   */\n  tag_47\n    /* \"#utility.yul\":2086:2093   */\n  dup4\n    /* \"#utility.yul\":2055:2094   */\n  tag_15\n  jump\t// in\ntag_47:\n    /* \"#utility.yul\":2116:2207   */\n  tag_48\n    /* \"#utility.yul\":2165:2206   */\n  tag_49\n    /* \"#utility.yul\":2189:2205   */\n  dup3\n    /* \"#utility.yul\":2165:2206   */\n  tag_16\n  jump\t// in\ntag_49:\n    /* \"#utility.yul\":2157:2163   */\n  dup5\n    /* \"#utility.yul\":2150:2154   */\n  dup5\n    /* \"#utility.yul\":2144:2155   */\n  sload\n    /* \"#utility.yul\":2116:2207   */\n  tag_12\n  jump\t// in\ntag_48:\n    /* \"#utility.yul\":2110:2114   */\n  dup3\n    /* \"#utility.yul\":2103:2208   */\n  sstore\n    /* \"#utility.yul\":2021:2214   */\n  pop\n    /* \"#utility.yul\":1945:2214   */\n  pop\n  pop\n  pop\n  jump\t// out\n    /* \"#utility.yul\":2220:2293   */\ntag_18:\n    /* \"#utility.yul\":2265:2268   */\n  0x00\n    /* \"#utility.yul\":2220:2293   */\n  swap1\n  jump\t// out\n    /* \"#utility.yul\":2299:2488   */\ntag_19:\n    /* \"#utility.yul\":2376:2408   */\n  tag_52\n  tag_18\n  jump\t// in\ntag_52:\n    /* \"#utility.yul\":2417:2482   */\n  tag_53\n    /* \"#utility.yul\":2475:2481   */\n  dup2\n    /* \"#utility.yul\":2467:2473   */\n  dup5\n    /* \"#utility.yul\":2461:2465   */\n  dup5\n    /* \"#utility.yul\":2417:2482   */\n  tag_17\n  jump\t// in\ntag_53:\n    /* \"#utility.yul\":2352:2488   */\n  pop\n    /* \"#utility.yul\":2299:2488   */\n  pop\n  pop\n  jump\t// out\n    /* \"#utility.yul\":2494:2680   */\ntag_20:\n    /* \"#utility.yul\":2554:2674   */\ntag_55:\n    /* \"#utility.yul\":2571:2574   */\n  dup2\n    /* \"#utility.yul\":2564:2569   */\n  dup2\n    /* \"#utility.yul\":2561:2575   */\n  lt\n    /* \"#utility.yul\":2554:2674   */\n  iszero\n  tag_57\n  jumpi\n    /* \"#utility.yul\":2625:2664   */\n  tag_58\n    /* \"#utility.yul\":2662:2663   */\n  0x00\n    /* \"#utility.yul\":2655:2660   */\n  dup3\n    /* \"#utility.yul\":2625:2664   */\n  tag_19\n  jump\t// in\ntag_58:\n    /* \"#utility.yul\":2598:2599   */\n  0x01\n    /* \"#utility.yul\":2591:2596   */\n  dup2\n    /* \"#utility.yul\":2587:2600   */\n  add\n    /* \"#utility.yul\":2578:2600   */\n  swap1\n  pop\n    /* \"#utility.yul\":2554:2674   */\n  jump(tag_55)\ntag_57:\n    /* \"#utility.yul\":2494:2680   */\n  pop\n  pop\n  jump\t// out\n    /* \"#utility.yul\":2686:3227   */\ntag_21:\n    /* \"#utility.yul\":2786:2788   */\n  0x1f\n    /* \"#utility.yul\":2781:2784   */\n  dup3\n    /* \"#utility.yul\":2778:2789   */\n  gt\n    /* \"#utility.yul\":2775:3220   */\n  iszero\n  tag_60\n  jumpi\n    /* \"#utility.yul\":2820:2857   */\n  tag_61\n    /* \"#utility.yul\":2851:2856   */\n  dup2\n    /* \"#utility.yul\":2820:2857   */\n  tag_9\n  jump\t// in\ntag_61:\n    /* \"#utility.yul\":2903:2932   */\n  tag_62\n    /* \"#utility.yul\":2921:2931   */\n  dup5\n    /* \"#utility.yul\":2903:2932   */\n  tag_10\n  jump\t// in\ntag_62:\n    /* \"#utility.yul\":2893:2901   */\n  dup2\n    /* \"#utility.yul\":2889:2933   */\n  add\n    /* \"#utility.yul\":3086:3088   */\n  0x20\n    /* \"#utility.yul\":3074:3084   */\n  dup6\n    /* \"#utility.yul\":3071:3089   */\n  lt\n    /* \"#utility.yul\":3068:3117   */\n  iszero\n  tag_63\n  jumpi\n    /* \"#utility.yul\":3107:3115   */\n  dup2\n    /* \"#utility.yul\":3092:3115   */\n  swap1\n  pop\n    /* \"#utility.yul\":3068:3117   */\ntag_63:\n    /* \"#utility.yul\":3130:3210   */\n  tag_64\n    /* \"#utility.yul\":3186:3208   */\n  tag_65\n    /* \"#utility.yul\":3204:3207   */\n  dup6\n    /* \"#utility.yul\":3186:3208   */\n  tag_10\n  jump\t// in\ntag_65:\n    /* \"#utility.yul\":3176:3184   */\n  dup4\n    /* \"#utility.yul\":3172:3209   */\n  add\n    /* \"#utility.yul\":3159:3170   */\n  dup3\n    /* \"#utility.yul\":3130:3210   */\n  tag_20\n  jump\t// in\ntag_64:\n    /* \"#utility.yul\":2790:3220   */\n  pop\n  pop\n    /* \"#utility.yul\":2775:3220   */\ntag_60:\n    /* \"#utility.yul\":2686:3227   */\n  pop\n  pop\n  pop\n  jump\t// out\n    /* \"#utility.yul\":3233:3350   */\ntag_22:\n    /* \"#utility.yul\":3287:3295   */\n  0x00\n    /* \"#utility.yul\":3337:3342   */\n  dup3\n    /* \"#utility.yul\":3331:3335   */\n  dup3\n    /* \"#utility.yul\":3327:3343   */\n  shr\n    /* \"#utility.yul\":3306:3343   */\n  swap1\n  pop\n    /* \"#utility.yul\":3233:3350   */\n  swap3\n  swap2\n  pop\n  pop\n  jump\t// out\n    /* \"#utility.yul\":3356:3525   */\ntag_23:\n    /* \"#utility.yul\":3400:3406   */\n  0x00\n    /* \"#utility.yul\":3433:3484   */\n  tag_68\n    /* \"#utility.yul\":3481:3482   */\n  0x00\n    /* \"#utility.yul\":3477:3483   */\n  not\n    /* \"#utility.yul\":3469:3474   */\n  dup5\n    /* \"#utility.yul\":3466:3467   */\n  0x08\n    /* \"#utility.yul\":3462:3475   */\n  mul\n    /* \"#utility.yul\":3433:3484   */\n  tag_22\n  jump\t// in\ntag_68:\n    /* \"#utility.yul\":3429:3485   */\n  not\n    /* \"#utility.yul\":3514:3518   */\n  dup1\n    /* \"#utility.yul\":3508:3512   */\n  dup4\n    /* \"#utility.yul\":3504:3519   */\n  and\n    /* \"#utility.yul\":3494:3519   */\n  swap2\n  pop\n    /* \"#utility.yul\":3407:3525   */\n  pop\n    /* \"#utility.yul\":3356:3525   */\n  swap3\n  swap2\n  pop\n  pop\n  jump\t// out\n    /* \"#utility.yul\":3530:3825   */\ntag_24:\n    /* \"#utility.yul\":3606:3610   */\n  0x00\n    /* \"#utility.yul\":3752:3781   */\n  tag_70\n    /* \"#utility.yul\":3777:3780   */\n  dup4\n    /* \"#utility.yul\":3771:3775   */\n  dup4\n    /* \"#utility.yul\":3752:3781   */\n  tag_23\n  jump\t// in\ntag_70:\n    /* \"#utility.yul\":3744:3781   */\n  swap2\n  pop\n    /* \"#utility.yul\":3814:3817   */\n  dup3\n    /* \"#utility.yul\":3811:3812   */\n  0x02\n    /* \"#utility.yul\":3807:3818   */\n  mul\n    /* \"#utility.yul\":3801:3805   */\n  dup3\n    /* \"#utility.yul\":3798:3819   */\n  or\n    /* \"#utility.yul\":3790:3819   */\n  swap1\n  pop\n    /* \"#utility.yul\":3530:3825   */\n  swap3\n  swap2\n  pop\n  pop\n  jump\t// out\n    /* \"#utility.yul\":3830:5222   */\ntag_2:\n    /* \"#utility.yul\":3946:3983   */\n  tag_72\n    /* \"#utility.yul\":3979:3982   */\n  dup3\n    /* \"#utility.yul\":3946:3983   */\n  tag_5\n  jump\t// in\ntag_72:\n    /* \"#utility.yul\":4048:4066   */\n  0xffffffffffffffff\n    /* \"#utility.yul\":4040:4046   */\n  dup2\n    /* \"#utility.yul\":4037:4067   */\n  gt\n    /* \"#utility.yul\":4034:4090   */\n  iszero\n  tag_73\n  jumpi\n    /* \"#utility.yul\":4070:4088   */\n  tag_74\n  tag_6\n  jump\t// in\ntag_74:\n    /* \"#utility.yul\":4034:4090   */\ntag_73:\n    /* \"#utility.yul\":4114:4152   */\n  tag_75\n    /* \"#utility.yul\":4146:4150   */\n  dup3\n    /* \"#utility.yul\":4140:4151   */\n  sload\n    /* \"#utility.yul\":4114:4152   */\n  tag_8\n  jump\t// in\ntag_75:\n    /* \"#utility.yul\":4199:4265   */\n  tag_76\n    /* \"#utility.yul\":4258:4264   */\n  dup3\n    /* \"#utility.yul\":4250:4256   */\n  dup3\n    /* \"#utility.yul\":4244:4248   */\n  dup6\n    /* \"#utility.yul\":4199:4265   */\n  tag_21\n  jump\t// in\ntag_76:\n    /* \"#utility.yul\":4292:4293   */\n  0x00\n    /* \"#utility.yul\":4316:4320   */\n  0x20\n    /* \"#utility.yul\":4303:4320   */\n  swap1\n  pop\n    /* \"#utility.yul\":4348:4350   */\n  0x1f\n    /* \"#utility.yul\":4340:4346   */\n  dup4\n    /* \"#utility.yul\":4337:4351   */\n  gt\n    /* \"#utility.yul\":4365:4366   */\n  0x01\n    /* \"#utility.yul\":4360:4977   */\n  dup2\n  eq\n  tag_78\n  jumpi\n    /* \"#utility.yul\":5021:5022   */\n  0x00\n    /* \"#utility.yul\":5038:5044   */\n  dup5\n    /* \"#utility.yul\":5035:5112   */\n  iszero\n  tag_79\n  jumpi\n    /* \"#utility.yul\":5087:5096   */\n  dup3\n    /* \"#utility.yul\":5082:5085   */\n  dup8\n    /* \"#utility.yul\":5078:5097   */\n  add\n    /* \"#utility.yul\":5072:5098   */\n  mload\n    /* \"#utility.yul\":5063:5098   */\n  swap1\n  pop\n    /* \"#utility.yul\":5035:5112   */\ntag_79:\n    /* \"#utility.yul\":5138:5205   */\n  tag_80\n    /* \"#utility.yul\":5198:5204   */\n  dup6\n    /* \"#utility.yul\":5191:5196   */\n  dup3\n    /* \"#utility.yul\":5138:5205   */\n  tag_24\n  jump\t// in\ntag_80:\n    /* \"#utility.yul\":5132:5136   */\n  dup7\n    /* \"#utility.yul\":5125:5206   */\n  sstore\n    /* \"#utility.yul\":4994:5216   */\n  pop\n    /* \"#utility.yul\":4330:5216   */\n  jump(tag_77)\n    /* \"#utility.yul\":4360:4977   */\ntag_78:\n    /* \"#utility.yul\":4412:4416   */\n  0x1f\n    /* \"#utility.yul\":4408:4417   */\n  not\n    /* \"#utility.yul\":4400:4406   */\n  dup5\n    /* \"#utility.yul\":4396:4418   */\n  and\n    /* \"#utility.yul\":4446:4482   */\n  tag_81\n    /* \"#utility.yul\":4477:4481   */\n  dup7\n    /* \"#utility.yul\":4446:4482   */\n  tag_9\n  jump\t// in\ntag_81:\n    /* \"#utility.yul\":4504:4505   */\n  0x00\n    /* \"#utility.yul\":4518:4726   */\ntag_82:\n    /* \"#utility.yul\":4532:4539   */\n  dup3\n    /* \"#utility.yul\":4529:4530   */\n  dup2\n    /* \"#utility.yul\":4526:4540   */\n  lt\n    /* \"#utility.yul\":4518:4726   */\n  iszero\n  tag_84\n  jumpi\n    /* \"#utility.yul\":4611:4620   */\n  dup5\n    /* \"#utility.yul\":4606:4609   */\n  dup10\n    /* \"#utility.yul\":4602:4621   */\n  add\n    /* \"#utility.yul\":4596:4622   */\n  mload\n    /* \"#utility.yul\":4588:4594   */\n  dup3\n    /* \"#utility.yul\":4581:4623   */\n  sstore\n    /* \"#utility.yul\":4662:4663   */\n  0x01\n    /* \"#utility.yul\":4654:4660   */\n  dup3\n    /* \"#utility.yul\":4650:4664   */\n  add\n    /* \"#utility.yul\":4640:4664   */\n  swap2\n  pop\n    /* \"#utility.yul\":4709:4711   */\n  0x20\n    /* \"#utility.yul\":4698:4707   */\n  dup6\n    /* \"#utility.yul\":4694:4712   */\n  add\n    /* \"#utility.yul\":4681:4712   */\n  swap5\n  pop\n    /* \"#utility.yul\":4555:4559   */\n  0x20\n    /* \"#utility.yul\":4552:4553   */\n  dup2\n    /* \"#utility.yul\":4548:4560   */\n  add\n    /* \"#utility.yul\":4543:4560   */\n  swap1\n  pop\n    /* \"#utility.yul\":4518:4726   */\n  jump(tag_82)\ntag_84:\n    /* \"#utility.yul\":4754:4760   */\n  dup7\n    /* \"#utility.yul\":4745:4752   */\n  dup4\n    /* \"#utility.yul\":4742:4761   */\n  lt\n    /* \"#utility.yul\":4739:4918   */\n  iszero\n  tag_85\n  jumpi\n    /* \"#utility.yul\":4812:4821   */\n  dup5\n    /* \"#utility.yul\":4807:4810   */\n  dup10\n    /* \"#utility.yul\":4803:4822   */\n  add\n    /* \"#utility.yul\":4797:4823   */\n  mload\n    /* \"#utility.yul\":4855:4903   */\n  tag_86\n    /* \"#utility.yul\":4897:4901   */\n  0x1f\n    /* \"#utility.yul\":4889:4895   */\n  dup10\n    /* \"#utility.yul\":4885:4902   */\n  and\n    /* \"#utility.yul\":4874:4883   */\n  dup3\n    /* \"#utility.yul\":4855:4903   */\n  tag_23\n  jump\t// in\ntag_86:\n    /* \"#utility.yul\":4847:4853   */\n  dup4\n    /* \"#utility.yul\":4840:4904   */\n  sstore\n    /* \"#utility.yul\":4762:4918   */\n  pop\n    /* \"#utility.yul\":4739:4918   */\ntag_85:\n    /* \"#utility.yul\":4964:4965   */\n  0x01\n    /* \"#utility.yul\":4960:4961   */\n  0x02\n    /* \"#utility.yul\":4952:4958   */\n  dup9\n    /* \"#utility.yul\":4948:4962   */\n  mul\n    /* \"#utility.yul\":4944:4966   */\n  add\n    /* \"#utility.yul\":4938:4942   */\n  dup9\n    /* \"#utility.yul\":4931:4967   */\n  sstore\n    /* \"#utility.yul\":4367:4977   */\n  pop\n  pop\n  pop\n    /* \"#utility.yul\":4330:5216   */\ntag_77:\n  pop\n    /* \"#utility.yul\":3921:5222   */\n  pop\n  pop\n  pop\n    /* \"#utility.yul\":3830:5222   */\n  pop\n  pop\n  jump\t// out\n    /* \"Basics of Solidity/BytesArrayDynami.sol\":72:359  contract ByteArrays{... */\ntag_4:\n  dataSize(sub_0)\n  dup1\n  dataOffset(sub_0)\n  0x00\n  codecopy\n  0x00\n  return\nstop\n\nsub_0: assembly {\n        /* \"Basics of Solidity/BytesArrayDynami.sol\":72:359  contract ByteArrays{... */\n      mstore(0x40, 0x80)\n      callvalue\n      dup1\n      iszero\n      tag_1\n      jumpi\n      0x00\n      dup1\n      revert\n    tag_1:\n      pop\n      jumpi(tag_2, lt(calldatasize, 0x04))\n      shr(0xe0, calldataload(0x00))\n      dup1\n      0x3f3108f7\n      eq\n      tag_3\n      jumpi\n      dup1\n      0xaf6406c3\n      eq\n      tag_4\n      jumpi\n      dup1\n      0xcca55d78\n      eq\n      tag_5\n      jumpi\n      dup1\n      0xee495002\n      eq\n      tag_6\n      jumpi\n    tag_2:\n      0x00\n      dup1\n      revert\n        /* \"Basics of Solidity/BytesArrayDynami.sol\":139:192  function setter() public{... */\n    tag_3:\n      tag_7\n      tag_8\n      jump\t// in\n    tag_7:\n      stop\n        /* \"Basics of Solidity/BytesArrayDynami.sol\":200:256  function pushele() public{... */\n    tag_4:\n      tag_9\n      tag_10\n      jump\t// in\n    tag_9:\n      stop\n        /* \"Basics of Solidity/BytesArrayDynami.sol\":264:354  function getele(uint index) public view returns(bytes1){... */\n    tag_5:\n      tag_11\n      0x04\n      dup1\n      calldatasize\n      sub\n      dup2\n      add\n      swap1\n      tag_12\n      swap2\n      swap1\n      tag_13\n      jump\t// in\n    tag_12:\n      tag_14\n      jump\t// in\n    tag_11:\n      mload(0x40)\n      tag_15\n      swap2\n      swap1\n      tag_16\n      jump\t// in\n    tag_15:\n      mload(0x40)\n      dup1\n      swap2\n      sub\n      swap1\n      return\n        /* \"Basics of Solidity/BytesArrayDynami.sol\":107:130  bytes public b1 = \"abc\" */\n    tag_6:\n      tag_17\n      tag_18\n      jump\t// in\n    tag_17:\n      mload(0x40)\n      tag_19\n      swap2\n      swap1\n      tag_20\n      jump\t// in\n    tag_19:\n      mload(0x40)\n      dup1\n      swap2\n      sub\n      swap1\n      return\n        /* \"Basics of Solidity/BytesArrayDynami.sol\":139:192  function setter() public{... */\n    tag_8:\n        /* \"Basics of Solidity/BytesArrayDynami.sol\":174:184  b1 = \"cde\" */\n      mload(0x40)\n      dup1\n      0x40\n      add\n      0x40\n      mstore\n      dup1\n      0x03\n      dup2\n      mstore\n      0x20\n      add\n      0x6364650000000000000000000000000000000000000000000000000000000000\n      dup2\n      mstore\n      pop\n        /* \"Basics of Solidity/BytesArrayDynami.sol\":174:176  b1 */\n      0x00\n        /* \"Basics of Solidity/BytesArrayDynami.sol\":174:184  b1 = \"cde\" */\n      swap1\n      dup2\n      tag_22\n      swap2\n      swap1\n      tag_23\n      jump\t// in\n    tag_22:\n      pop\n        /* \"Basics of Solidity/BytesArrayDynami.sol\":139:192  function setter() public{... */\n      jump\t// out\n        /* \"Basics of Solidity/BytesArrayDynami.sol\":200:256  function pushele() public{... */\n    tag_10:\n        /* \"Basics of Solidity/BytesArrayDynami.sol\":236:238  b1 */\n      0x00\n        /* \"Basics of Solidity/BytesArrayDynami.sol\":236:248  b1.push('d') */\n      dup1\n      dup1\n      sload\n      dup1\n      tag_25\n      swap1\n      tag_26\n      jump\t// in\n    tag_25:\n      dup1\n      0x1f\n      dup2\n      sub\n      tag_27\n      jumpi\n      dup4\n      0x00\n      mstore\n      keccak256(0x00, 0x20)\n      not(0xff)\n      dup5\n      and\n      dup2\n      sstore\n      0x3f\n      swap4\n      pop\n      pop\n    tag_27:\n      pop\n      0x02\n      dup3\n      add\n      dup4\n      sstore\n      0x01\n      dup2\n      add\n      swap3\n      pop\n      pop\n      pop\n      0x01\n      swap1\n      sub\n      dup2\n      sload\n      0x01\n      and\n      iszero\n      tag_29\n      jumpi\n      swap1\n      0x00\n      mstore\n      keccak256(0x00, 0x20)\n      swap1\n      0x20\n      swap2\n      dup3\n      dup3\n      div\n      add\n      swap2\n      swap1\n      mod\n    tag_29:\n      0x6400000000000000000000000000000000000000000000000000000000000000\n      swap1\n      swap2\n      swap1\n      swap2\n      0x1f\n      sub\n      0x0100\n      exp\n      dup2\n      sload\n      dup2\n      0xff\n      mul\n      not\n      and\n      swap1\n      0x0100000000000000000000000000000000000000000000000000000000000000\n      dup5\n      div\n      mul\n      or\n      swap1\n      sstore\n      pop\n        /* \"Basics of Solidity/BytesArrayDynami.sol\":200:256  function pushele() public{... */\n      jump\t// out\n        /* \"Basics of Solidity/BytesArrayDynami.sol\":264:354  function getele(uint index) public view returns(bytes1){... */\n    tag_14:\n        /* \"Basics of Solidity/BytesArrayDynami.sol\":312:318  bytes1 */\n      0x00\n        /* \"Basics of Solidity/BytesArrayDynami.sol\":337:339  b1 */\n      dup1\n        /* \"Basics of Solidity/BytesArrayDynami.sol\":340:345  index */\n      dup3\n        /* \"Basics of Solidity/BytesArrayDynami.sol\":337:346  b1[index] */\n      dup2\n      sload\n      tag_31\n      swap1\n      tag_26\n      jump\t// in\n    tag_31:\n      dup2\n      lt\n      tag_32\n      jumpi\n      tag_33\n      tag_34\n      jump\t// in\n    tag_33:\n    tag_32:\n      dup2\n      sload\n      0x01\n      and\n      iszero\n      tag_35\n      jumpi\n      swap1\n      0x00\n      mstore\n      keccak256(0x00, 0x20)\n      swap1\n      0x20\n      swap2\n      dup3\n      dup3\n      div\n      add\n      swap2\n      swap1\n      mod\n    tag_35:\n      swap1\n      sload\n      swap1\n      byte\n      0x0100000000000000000000000000000000000000000000000000000000000000\n      mul\n        /* \"Basics of Solidity/BytesArrayDynami.sol\":330:346  return b1[index] */\n      swap1\n      pop\n        /* \"Basics of Solidity/BytesArrayDynami.sol\":264:354  function getele(uint index) public view returns(bytes1){... */\n      swap2\n      swap1\n      pop\n      jump\t// out\n        /* \"Basics of Solidity/BytesArrayDynami.sol\":107:130  bytes public b1 = \"abc\" */\n    tag_18:\n      0x00\n      dup1\n      sload\n      tag_36\n      swap1\n      tag_26\n      jump\t// in\n    tag_36:\n      dup1\n      0x1f\n      add\n      0x20\n      dup1\n      swap2\n      div\n      mul\n      0x20\n      add\n      mload(0x40)\n      swap1\n      dup2\n      add\n      0x40\n      mstore\n      dup1\n      swap3\n      swap2\n      swap1\n      dup2\n      dup2\n      mstore\n      0x20\n      add\n      dup3\n      dup1\n      sload\n      tag_37\n      swap1\n      tag_26\n      jump\t// in\n    tag_37:\n      dup1\n      iszero\n      tag_38\n      jumpi\n      dup1\n      0x1f\n      lt\n      tag_39\n      jumpi\n      0x0100\n      dup1\n      dup4\n      sload\n      div\n      mul\n      dup4\n      mstore\n      swap2\n      0x20\n      add\n      swap2\n      jump(tag_38)\n    tag_39:\n      dup3\n      add\n      swap2\n      swap1\n      0x00\n      mstore\n      keccak256(0x00, 0x20)\n      swap1\n    tag_40:\n      dup2\n      sload\n      dup2\n      mstore\n      swap1\n      0x01\n      add\n      swap1\n      0x20\n      add\n      dup1\n      dup4\n      gt\n      tag_40\n      jumpi\n      dup3\n      swap1\n      sub\n      0x1f\n      and\n      dup3\n      add\n      swap2\n    tag_38:\n      pop\n      pop\n      pop\n      pop\n      pop\n      dup2\n      jump\t// out\n        /* \"#utility.yul\":88:205   */\n    tag_42:\n        /* \"#utility.yul\":197:198   */\n      0x00\n        /* \"#utility.yul\":194:195   */\n      dup1\n        /* \"#utility.yul\":187:199   */\n      revert\n        /* \"#utility.yul\":334:411   */\n    tag_44:\n        /* \"#utility.yul\":371:378   */\n      0x00\n        /* \"#utility.yul\":400:405   */\n      dup2\n        /* \"#utility.yul\":389:405   */\n      swap1\n      pop\n        /* \"#utility.yul\":334:411   */\n      swap2\n      swap1\n      pop\n      jump\t// out\n        /* \"#utility.yul\":417:539   */\n    tag_45:\n        /* \"#utility.yul\":490:514   */\n      tag_78\n        /* \"#utility.yul\":508:513   */\n      dup2\n        /* \"#utility.yul\":490:514   */\n      tag_44\n      jump\t// in\n    tag_78:\n        /* \"#utility.yul\":483:488   */\n      dup2\n        /* \"#utility.yul\":480:515   */\n      eq\n        /* \"#utility.yul\":470:533   */\n      tag_79\n      jumpi\n        /* \"#utility.yul\":529:530   */\n      0x00\n        /* \"#utility.yul\":526:527   */\n      dup1\n        /* \"#utility.yul\":519:531   */\n      revert\n        /* \"#utility.yul\":470:533   */\n    tag_79:\n        /* \"#utility.yul\":417:539   */\n      pop\n      jump\t// out\n        /* \"#utility.yul\":545:684   */\n    tag_46:\n        /* \"#utility.yul\":591:596   */\n      0x00\n        /* \"#utility.yul\":629:635   */\n      dup2\n        /* \"#utility.yul\":616:636   */\n      calldataload\n        /* \"#utility.yul\":607:636   */\n      swap1\n      pop\n        /* \"#utility.yul\":645:678   */\n      tag_81\n        /* \"#utility.yul\":672:677   */\n      dup2\n        /* \"#utility.yul\":645:678   */\n      tag_45\n      jump\t// in\n    tag_81:\n        /* \"#utility.yul\":545:684   */\n      swap3\n      swap2\n      pop\n      pop\n      jump\t// out\n        /* \"#utility.yul\":690:1019   */\n    tag_13:\n        /* \"#utility.yul\":749:755   */\n      0x00\n        /* \"#utility.yul\":798:800   */\n      0x20\n        /* \"#utility.yul\":786:795   */\n      dup3\n        /* \"#utility.yul\":777:784   */\n      dup5\n        /* \"#utility.yul\":773:796   */\n      sub\n        /* \"#utility.yul\":769:801   */\n      slt\n        /* \"#utility.yul\":766:885   */\n      iszero\n      tag_83\n      jumpi\n        /* \"#utility.yul\":804:883   */\n      tag_84\n      tag_42\n      jump\t// in\n    tag_84:\n        /* \"#utility.yul\":766:885   */\n    tag_83:\n        /* \"#utility.yul\":924:925   */\n      0x00\n        /* \"#utility.yul\":949:1002   */\n      tag_85\n        /* \"#utility.yul\":994:1001   */\n      dup5\n        /* \"#utility.yul\":985:991   */\n      dup3\n        /* \"#utility.yul\":974:983   */\n      dup6\n        /* \"#utility.yul\":970:992   */\n      add\n        /* \"#utility.yul\":949:1002   */\n      tag_46\n      jump\t// in\n    tag_85:\n        /* \"#utility.yul\":939:1002   */\n      swap2\n      pop\n        /* \"#utility.yul\":895:1012   */\n      pop\n        /* \"#utility.yul\":690:1019   */\n      swap3\n      swap2\n      pop\n      pop\n      jump\t// out\n        /* \"#utility.yul\":1025:1174   */\n    tag_47:\n        /* \"#utility.yul\":1061:1068   */\n      0x00\n        /* \"#utility.yul\":1101:1167   */\n      0xff00000000000000000000000000000000000000000000000000000000000000\n        /* \"#utility.yul\":1094:1099   */\n      dup3\n        /* \"#utility.yul\":1090:1168   */\n      and\n        /* \"#utility.yul\":1079:1168   */\n      swap1\n      pop\n        /* \"#utility.yul\":1025:1174   */\n      swap2\n      swap1\n      pop\n      jump\t// out\n        /* \"#utility.yul\":1180:1295   */\n    tag_48:\n        /* \"#utility.yul\":1265:1288   */\n      tag_88\n        /* \"#utility.yul\":1282:1287   */\n      dup2\n        /* \"#utility.yul\":1265:1288   */\n      tag_47\n      jump\t// in\n    tag_88:\n        /* \"#utility.yul\":1260:1263   */\n      dup3\n        /* \"#utility.yul\":1253:1289   */\n      mstore\n        /* \"#utility.yul\":1180:1295   */\n      pop\n      pop\n      jump\t// out\n        /* \"#utility.yul\":1301:1519   */\n    tag_16:\n        /* \"#utility.yul\":1392:1396   */\n      0x00\n        /* \"#utility.yul\":1430:1432   */\n      0x20\n        /* \"#utility.yul\":1419:1428   */\n      dup3\n        /* \"#utility.yul\":1415:1433   */\n      add\n        /* \"#utility.yul\":1407:1433   */\n      swap1\n      pop\n        /* \"#utility.yul\":1443:1512   */\n      tag_90\n        /* \"#utility.yul\":1509:1510   */\n      0x00\n        /* \"#utility.yul\":1498:1507   */\n      dup4\n        /* \"#utility.yul\":1494:1511   */\n      add\n        /* \"#utility.yul\":1485:1491   */\n      dup5\n        /* \"#utility.yul\":1443:1512   */\n      tag_48\n      jump\t// in\n    tag_90:\n        /* \"#utility.yul\":1301:1519   */\n      swap3\n      swap2\n      pop\n      pop\n      jump\t// out\n        /* \"#utility.yul\":1525:1623   */\n    tag_49:\n        /* \"#utility.yul\":1576:1582   */\n      0x00\n        /* \"#utility.yul\":1610:1615   */\n      dup2\n        /* \"#utility.yul\":1604:1616   */\n      mload\n        /* \"#utility.yul\":1594:1616   */\n      swap1\n      pop\n        /* \"#utility.yul\":1525:1623   */\n      swap2\n      swap1\n      pop\n      jump\t// out\n        /* \"#utility.yul\":1629:1797   */\n    tag_50:\n        /* \"#utility.yul\":1712:1723   */\n      0x00\n        /* \"#utility.yul\":1746:1752   */\n      dup3\n        /* \"#utility.yul\":1741:1744   */\n      dup3\n        /* \"#utility.yul\":1734:1753   */\n      mstore\n        /* \"#utility.yul\":1786:1790   */\n      0x20\n        /* \"#utility.yul\":1781:1784   */\n      dup3\n        /* \"#utility.yul\":1777:1791   */\n      add\n        /* \"#utility.yul\":1762:1791   */\n      swap1\n      pop\n        /* \"#utility.yul\":1629:1797   */\n      swap3\n      swap2\n      pop\n      pop\n      jump\t// out\n        /* \"#utility.yul\":1803:2049   */\n    tag_51:\n        /* \"#utility.yul\":1884:1885   */\n      0x00\n        /* \"#utility.yul\":1894:2007   */\n    tag_94:\n        /* \"#utility.yul\":1908:1914   */\n      dup4\n        /* \"#utility.yul\":1905:1906   */\n      dup2\n        /* \"#utility.yul\":1902:1915   */\n      lt\n        /* \"#utility.yul\":1894:2007   */\n      iszero\n      tag_96\n      jumpi\n        /* \"#utility.yul\":1993:1994   */\n      dup1\n        /* \"#utility.yul\":1988:1991   */\n      dup3\n        /* \"#utility.yul\":1984:1995   */\n      add\n        /* \"#utility.yul\":1978:1996   */\n      mload\n        /* \"#utility.yul\":1974:1975   */\n      dup2\n        /* \"#utility.yul\":1969:1972   */\n      dup5\n        /* \"#utility.yul\":1965:1976   */\n      add\n        /* \"#utility.yul\":1958:1997   */\n      mstore\n        /* \"#utility.yul\":1930:1932   */\n      0x20\n        /* \"#utility.yul\":1927:1928   */\n      dup2\n        /* \"#utility.yul\":1923:1933   */\n      add\n        /* \"#utility.yul\":1918:1933   */\n      swap1\n      pop\n        /* \"#utility.yul\":1894:2007   */\n      jump(tag_94)\n    tag_96:\n        /* \"#utility.yul\":2041:2042   */\n      0x00\n        /* \"#utility.yul\":2032:2038   */\n      dup5\n        /* \"#utility.yul\":2027:2030   */\n      dup5\n        /* \"#utility.yul\":2023:2039   */\n      add\n        /* \"#utility.yul\":2016:2043   */\n      mstore\n        /* \"#utility.yul\":1865:2049   */\n      pop\n        /* \"#utility.yul\":1803:2049   */\n      pop\n      pop\n      pop\n      jump\t// out\n        /* \"#utility.yul\":2055:2157   */\n    tag_52:\n        /* \"#utility.yul\":2096:2102   */\n      0x00\n        /* \"#utility.yul\":2147:2149   */\n      0x1f\n        /* \"#utility.yul\":2143:2150   */\n      not\n        /* \"#utility.yul\":2138:2140   */\n      0x1f\n        /* \"#utility.yul\":2131:2136   */\n      dup4\n        /* \"#utility.yul\":2127:2141   */\n      add\n        /* \"#utility.yul\":2123:2151   */\n      and\n        /* \"#utility.yul\":2113:2151   */\n      swap1\n      pop\n        /* \"#utility.yul\":2055:2157   */\n      swap2\n      swap1\n      pop\n      jump\t// out\n        /* \"#utility.yul\":2163:2536   */\n    tag_53:\n        /* \"#utility.yul\":2249:2252   */\n      0x00\n        /* \"#utility.yul\":2277:2315   */\n      tag_99\n        /* \"#utility.yul\":2309:2314   */\n      dup3\n        /* \"#utility.yul\":2277:2315   */\n      tag_49\n      jump\t// in\n    tag_99:\n        /* \"#utility.yul\":2331:2401   */\n      tag_100\n        /* \"#utility.yul\":2394:2400   */\n      dup2\n        /* \"#utility.yul\":2389:2392   */\n      dup6\n        /* \"#utility.yul\":2331:2401   */\n      tag_50\n      jump\t// in\n    tag_100:\n        /* \"#utility.yul\":2324:2401   */\n      swap4\n      pop\n        /* \"#utility.yul\":2410:2475   */\n      tag_101\n        /* \"#utility.yul\":2468:2474   */\n      dup2\n        /* \"#utility.yul\":2463:2466   */\n      dup6\n        /* \"#utility.yul\":2456:2460   */\n      0x20\n        /* \"#utility.yul\":2449:2454   */\n      dup7\n        /* \"#utility.yul\":2445:2461   */\n      add\n        /* \"#utility.yul\":2410:2475   */\n      tag_51\n      jump\t// in\n    tag_101:\n        /* \"#utility.yul\":2500:2529   */\n      tag_102\n        /* \"#utility.yul\":2522:2528   */\n      dup2\n        /* \"#utility.yul\":2500:2529   */\n      tag_52\n      jump\t// in\n    tag_102:\n        /* \"#utility.yul\":2495:2498   */\n      dup5\n        /* \"#utility.yul\":2491:2530   */\n      add\n        /* \"#utility.yul\":2484:2530   */\n      swap2\n      pop\n        /* \"#utility.yul\":2253:2536   */\n      pop\n        /* \"#utility.yul\":2163:2536   */\n      swap3\n      swap2\n      pop\n      pop\n      jump\t// out\n        /* \"#utility.yul\":2542:2851   */\n    tag_20:\n        /* \"#utility.yul\":2653:2657   */\n      0x00\n        /* \"#utility.yul\":2691:2693   */\n      0x20\n        /* \"#utility.yul\":2680:2689   */\n      dup3\n        /* \"#utility.yul\":2676:2694   */\n      add\n        /* \"#utility.yul\":2668:2694   */\n      swap1\n      pop\n        /* \"#utility.yul\":2740:2749   */\n      dup2\n        /* \"#utility.yul\":2734:2738   */\n      dup2\n        /* \"#utility.yul\":2730:2750   */\n      sub\n        /* \"#utility.yul\":2726:2727   */\n      0x00\n        /* \"#utility.yul\":2715:2724   */\n      dup4\n        /* \"#utility.yul\":2711:2728   */\n      add\n        /* \"#utility.yul\":2704:2751   */\n      mstore\n        /* \"#utility.yul\":2768:2844   */\n      tag_104\n        /* \"#utility.yul\":2839:2843   */\n      dup2\n        /* \"#utility.yul\":2830:2836   */\n      dup5\n        /* \"#utility.yul\":2768:2844   */\n      tag_53\n      jump\t// in\n    tag_104:\n        /* \"#utility.yul\":2760:2844   */\n      swap1\n      pop\n        /* \"#utility.yul\":2542:2851   */\n      swap3\n      swap2\n      pop\n      pop\n      jump\t// out\n        /* \"#utility.yul\":2857:2956   */\n    tag_54:\n        /* \"#utility.yul\":2909:2915   */\n      0x00\n        /* \"#utility.yul\":2943:2948   */\n      dup2\n        /* \"#utility.yul\":2937:2949   */\n      mload\n        /* \"#utility.yul\":2927:2949   */\n      swap1\n      pop\n        /* \"#utility.yul\":2857:2956   */\n      swap2\n      swap1\n      pop\n      jump\t// out\n        /* \"#utility.yul\":2962:3142   */\n    tag_55:\n        /* \"#utility.yul\":3010:3087   */\n      0x4e487b7100000000000000000000000000000000000000000000000000000000\n        /* \"#utility.yul\":3007:3008   */\n      0x00\n        /* \"#utility.yul\":3000:3088   */\n      mstore\n        /* \"#utility.yul\":3107:3111   */\n      0x41\n        /* \"#utility.yul\":3104:3105   */\n      0x04\n        /* \"#utility.yul\":3097:3112   */\n      mstore\n        /* \"#utility.yul\":3131:3135   */\n      0x24\n        /* \"#utility.yul\":3128:3129   */\n      0x00\n        /* \"#utility.yul\":3121:3136   */\n      revert\n        /* \"#utility.yul\":3148:3328   */\n    tag_56:\n        /* \"#utility.yul\":3196:3273   */\n      0x4e487b7100000000000000000000000000000000000000000000000000000000\n        /* \"#utility.yul\":3193:3194   */\n      0x00\n        /* \"#utility.yul\":3186:3274   */\n      mstore\n        /* \"#utility.yul\":3293:3297   */\n      0x22\n        /* \"#utility.yul\":3290:3291   */\n      0x04\n        /* \"#utility.yul\":3283:3298   */\n      mstore\n        /* \"#utility.yul\":3317:3321   */\n      0x24\n        /* \"#utility.yul\":3314:3315   */\n      0x00\n        /* \"#utility.yul\":3307:3322   */\n      revert\n        /* \"#utility.yul\":3334:3654   */\n    tag_26:\n        /* \"#utility.yul\":3378:3384   */\n      0x00\n        /* \"#utility.yul\":3415:3416   */\n      0x02\n        /* \"#utility.yul\":3409:3413   */\n      dup3\n        /* \"#utility.yul\":3405:3417   */\n      div\n        /* \"#utility.yul\":3395:3417   */\n      swap1\n      pop\n        /* \"#utility.yul\":3462:3463   */\n      0x01\n        /* \"#utility.yul\":3456:3460   */\n      dup3\n        /* \"#utility.yul\":3452:3464   */\n      and\n        /* \"#utility.yul\":3483:3501   */\n      dup1\n        /* \"#utility.yul\":3473:3554   */\n      tag_109\n      jumpi\n        /* \"#utility.yul\":3539:3543   */\n      0x7f\n        /* \"#utility.yul\":3531:3537   */\n      dup3\n        /* \"#utility.yul\":3527:3544   */\n      and\n        /* \"#utility.yul\":3517:3544   */\n      swap2\n      pop\n        /* \"#utility.yul\":3473:3554   */\n    tag_109:\n        /* \"#utility.yul\":3601:3603   */\n      0x20\n        /* \"#utility.yul\":3593:3599   */\n      dup3\n        /* \"#utility.yul\":3590:3604   */\n      lt\n        /* \"#utility.yul\":3570:3588   */\n      dup2\n        /* \"#utility.yul\":3567:3605   */\n      sub\n        /* \"#utility.yul\":3564:3648   */\n      tag_110\n      jumpi\n        /* \"#utility.yul\":3620:3638   */\n      tag_111\n      tag_56\n      jump\t// in\n    tag_111:\n        /* \"#utility.yul\":3564:3648   */\n    tag_110:\n        /* \"#utility.yul\":3385:3654   */\n      pop\n        /* \"#utility.yul\":3334:3654   */\n      swap2\n      swap1\n      pop\n      jump\t// out\n        /* \"#utility.yul\":3660:3800   */\n    tag_57:\n        /* \"#utility.yul\":3708:3712   */\n      0x00\n        /* \"#utility.yul\":3731:3734   */\n      dup2\n        /* \"#utility.yul\":3723:3734   */\n      swap1\n      pop\n        /* \"#utility.yul\":3754:3757   */\n      dup2\n        /* \"#utility.yul\":3751:3752   */\n      0x00\n        /* \"#utility.yul\":3744:3758   */\n      mstore\n        /* \"#utility.yul\":3788:3792   */\n      0x20\n        /* \"#utility.yul\":3785:3786   */\n      0x00\n        /* \"#utility.yul\":3775:3793   */\n      keccak256\n        /* \"#utility.yul\":3767:3793   */\n      swap1\n      pop\n        /* \"#utility.yul\":3660:3800   */\n      swap2\n      swap1\n      pop\n      jump\t// out\n        /* \"#utility.yul\":3806:3899   */\n    tag_58:\n        /* \"#utility.yul\":3843:3849   */\n      0x00\n        /* \"#utility.yul\":3890:3892   */\n      0x20\n        /* \"#utility.yul\":3885:3887   */\n      0x1f\n        /* \"#utility.yul\":3878:3883   */\n      dup4\n        /* \"#utility.yul\":3874:3888   */\n      add\n        /* \"#utility.yul\":3870:3893   */\n      div\n        /* \"#utility.yul\":3860:3893   */\n      swap1\n      pop\n        /* \"#utility.yul\":3806:3899   */\n      swap2\n      swap1\n      pop\n      jump\t// out\n        /* \"#utility.yul\":3905:4012   */\n    tag_59:\n        /* \"#utility.yul\":3949:3957   */\n      0x00\n        /* \"#utility.yul\":3999:4004   */\n      dup3\n        /* \"#utility.yul\":3993:3997   */\n      dup3\n        /* \"#utility.yul\":3989:4005   */\n      shl\n        /* \"#utility.yul\":3968:4005   */\n      swap1\n      pop\n        /* \"#utility.yul\":3905:4012   */\n      swap3\n      swap2\n      pop\n      pop\n      jump\t// out\n        /* \"#utility.yul\":4018:4411   */\n    tag_60:\n        /* \"#utility.yul\":4087:4093   */\n      0x00\n        /* \"#utility.yul\":4137:4138   */\n      0x08\n        /* \"#utility.yul\":4125:4135   */\n      dup4\n        /* \"#utility.yul\":4121:4139   */\n      mul\n        /* \"#utility.yul\":4160:4257   */\n      tag_116\n        /* \"#utility.yul\":4190:4256   */\n      0xffffffffffffffffffffffffffffffffffffffffffffffffffffffffffffffff\n        /* \"#utility.yul\":4179:4188   */\n      dup3\n        /* \"#utility.yul\":4160:4257   */\n      tag_59\n      jump\t// in\n    tag_116:\n        /* \"#utility.yul\":4278:4317   */\n      tag_117\n        /* \"#utility.yul\":4308:4316   */\n      dup7\n        /* \"#utility.yul\":4297:4306   */\n      dup4\n        /* \"#utility.yul\":4278:4317   */\n      tag_59\n      jump\t// in\n    tag_117:\n        /* \"#utility.yul\":4266:4317   */\n      swap6\n      pop\n        /* \"#utility.yul\":4350:4354   */\n      dup1\n        /* \"#utility.yul\":4346:4355   */\n      not\n        /* \"#utility.yul\":4339:4344   */\n      dup5\n        /* \"#utility.yul\":4335:4356   */\n      and\n        /* \"#utility.yul\":4326:4356   */\n      swap4\n      pop\n        /* \"#utility.yul\":4399:4403   */\n      dup1\n        /* \"#utility.yul\":4389:4397   */\n      dup7\n        /* \"#utility.yul\":4385:4404   */\n      and\n        /* \"#utility.yul\":4378:4383   */\n      dup5\n        /* \"#utility.yul\":4375:4405   */\n      or\n        /* \"#utility.yul\":4365:4405   */\n      swap3\n      pop\n        /* \"#utility.yul\":4094:4411   */\n      pop\n      pop\n        /* \"#utility.yul\":4018:4411   */\n      swap4\n      swap3\n      pop\n      pop\n      pop\n      jump\t// out\n        /* \"#utility.yul\":4417:4477   */\n    tag_61:\n        /* \"#utility.yul\":4445:4448   */\n      0x00\n        /* \"#utility.yul\":4466:4471   */\n      dup2\n        /* \"#utility.yul\":4459:4471   */\n      swap1\n      pop\n        /* \"#utility.yul\":4417:4477   */\n      swap2\n      swap1\n      pop\n      jump\t// out\n        /* \"#utility.yul\":4483:4625   */\n    tag_62:\n        /* \"#utility.yul\":4533:4542   */\n      0x00\n        /* \"#utility.yul\":4566:4619   */\n      tag_120\n        /* \"#utility.yul\":4584:4618   */\n      tag_121\n        /* \"#utility.yul\":4593:4617   */\n      tag_122\n        /* \"#utility.yul\":4611:4616   */\n      dup5\n        /* \"#utility.yul\":4593:4617   */\n      tag_44\n      jump\t// in\n    tag_122:\n        /* \"#utility.yul\":4584:4618   */\n      tag_61\n      jump\t// in\n    tag_121:\n        /* \"#utility.yul\":4566:4619   */\n      tag_44\n      jump\t// in\n    tag_120:\n        /* \"#utility.yul\":4553:4619   */\n      swap1\n      pop\n        /* \"#utility.yul\":4483:4625   */\n      swap2\n      swap1\n      pop\n      jump\t// out\n        /* \"#utility.yul\":4631:4706   */\n    tag_63:\n        /* \"#utility.yul\":4674:4677   */\n      0x00\n        /* \"#utility.yul\":4695:4700   */\n      dup2\n        /* \"#utility.yul\":4688:4700   */\n      swap1\n      pop\n        /* \"#utility.yul\":4631:4706   */\n      swap2\n      swap1\n      pop\n      jump\t// out\n        /* \"#utility.yul\":4712:4981   */\n    tag_64:\n        /* \"#utility.yul\":4822:4861   */\n      tag_125\n        /* \"#utility.yul\":4853:4860   */\n      dup4\n        /* \"#utility.yul\":4822:4861   */\n      tag_62\n      jump\t// in\n    tag_125:\n        /* \"#utility.yul\":4883:4974   */\n      tag_126\n        /* \"#utility.yul\":4932:4973   */\n      tag_127\n        /* \"#utility.yul\":4956:4972   */\n      dup3\n        /* \"#utility.yul\":4932:4973   */\n      tag_63\n      jump\t// in\n    tag_127:\n        /* \"#utility.yul\":4924:4930   */\n      dup5\n        /* \"#utility.yul\":4917:4921   */\n      dup5\n        /* \"#utility.yul\":4911:4922   */\n      sload\n        /* \"#utility.yul\":4883:4974   */\n      tag_60\n      jump\t// in\n    tag_126:\n        /* \"#utility.yul\":4877:4881   */\n      dup3\n        /* \"#utility.yul\":4870:4975   */\n      sstore\n        /* \"#utility.yul\":4788:4981   */\n      pop\n        /* \"#utility.yul\":4712:4981   */\n      pop\n      pop\n      pop\n      jump\t// out\n        /* \"#utility.yul\":4987:5060   */\n    tag_65:\n        /* \"#utility.yul\":5032:5035   */\n      0x00\n        /* \"#utility.yul\":4987:5060   */\n      swap1\n      jump\t// out\n        /* \"#utility.yul\":5066:5255   */\n    tag_66:\n        /* \"#utility.yul\":5143:5175   */\n      tag_130\n      tag_65\n      jump\t// in\n    tag_130:\n        /* \"#utility.yul\":5184:5249   */\n      tag_131\n        /* \"#utility.yul\":5242:5248   */\n      dup2\n        /* \"#utility.yul\":5234:5240   */\n      dup5\n        /* \"#utility.yul\":5228:5232   */\n      dup5\n        /* \"#utility.yul\":5184:5249   */\n      tag_64\n      jump\t// in\n    tag_131:\n        /* \"#utility.yul\":5119:5255   */\n      pop\n        /* \"#utility.yul\":5066:5255   */\n      pop\n      pop\n      jump\t// out\n        /* \"#utility.yul\":5261:5447   */\n    tag_67:\n        /* \"#utility.yul\":5321:5441   */\n    tag_133:\n        /* \"#utility.yul\":5338:5341   */\n      dup2\n        /* \"#utility.yul\":5331:5336   */\n      dup2\n        /* \"#utility.yul\":5328:5342   */\n      lt\n        /* \"#utility.yul\":5321:5441   */\n      iszero\n      tag_135\n      jumpi\n        /* \"#utility.yul\":5392:5431   */\n      tag_136\n        /* \"#utility.yul\":5429:5430   */\n      0x00\n        /* \"#utility.yul\":5422:5427   */\n      dup3\n        /* \"#utility.yul\":5392:5431   */\n      tag_66\n      jump\t// in\n    tag_136:\n        /* \"#utility.yul\":5365:5366   */\n      0x01\n        /* \"#utility.yul\":5358:5363   */\n      dup2\n        /* \"#utility.yul\":5354:5367   */\n      add\n        /* \"#utility.yul\":5345:5367   */\n      swap1\n      pop\n        /* \"#utility.yul\":5321:5441   */\n      jump(tag_133)\n    tag_135:\n        /* \"#utility.yul\":5261:5447   */\n      pop\n      pop\n      jump\t// out\n        /* \"#utility.yul\":5453:5994   */\n    tag_68:\n        /* \"#utility.yul\":5553:5555   */\n      0x1f\n        /* \"#utility.yul\":5548:5551   */\n      dup3\n        /* \"#utility.yul\":5545:5556   */\n      gt\n        /* \"#utility.yul\":5542:5987   */\n      iszero\n      tag_138\n      jumpi\n        /* \"#utility.yul\":5587:5624   */\n      tag_139\n        /* \"#utility.yul\":5618:5623   */\n      dup2\n        /* \"#utility.yul\":5587:5624   */\n      tag_57\n      jump\t// in\n    tag_139:\n        /* \"#utility.yul\":5670:5699   */\n      tag_140\n        /* \"#utility.yul\":5688:5698   */\n      dup5\n        /* \"#utility.yul\":5670:5699   */\n      tag_58\n      jump\t// in\n    tag_140:\n        /* \"#utility.yul\":5660:5668   */\n      dup2\n        /* \"#utility.yul\":5656:5700   */\n      add\n        /* \"#utility.yul\":5853:5855   */\n      0x20\n        /* \"#utility.yul\":5841:5851   */\n      dup6\n        /* \"#utility.yul\":5838:5856   */\n      lt\n        /* \"#utility.yul\":5835:5884   */\n      iszero\n      tag_141\n      jumpi\n        /* \"#utility.yul\":5874:5882   */\n      dup2\n        /* \"#utility.yul\":5859:5882   */\n      swap1\n      pop\n        /* \"#utility.yul\":5835:5884   */\n    tag_141:\n        /* \"#utility.yul\":5897:5977   */\n      tag_142\n        /* \"#utility.yul\":5953:5975   */\n      tag_143\n        /* \"#utility.yul\":5971:5974   */\n      dup6\n        /* \"#utility.yul\":5953:5975   */\n      tag_58\n      jump\t// in\n    tag_143:\n        /* \"#utility.yul\":5943:5951   */\n      dup4\n        /* \"#utility.yul\":5939:5976   */\n      add\n        /* \"#utility.yul\":5926:5937   */\n      dup3\n        /* \"#utility.yul\":5897:5977   */\n      tag_67\n      jump\t// in\n    tag_142:\n        /* \"#utility.yul\":5557:5987   */\n      pop\n      pop\n        /* \"#utility.yul\":5542:5987   */\n    tag_138:\n        /* \"#utility.yul\":5453:5994   */\n      pop\n      pop\n      pop\n      jump\t// out\n        /* \"#utility.yul\":6000:6117   */\n    tag_69:\n        /* \"#utility.yul\":6054:6062   */\n      0x00\n        /* \"#utility.yul\":6104:6109   */\n      dup3\n        /* \"#utility.yul\":6098:6102   */\n      dup3\n        /* \"#utility.yul\":6094:6110   */\n      shr\n        /* \"#utility.yul\":6073:6110   */\n      swap1\n      pop\n        /* \"#utility.yul\":6000:6117   */\n      swap3\n      swap2\n      pop\n      pop\n      jump\t// out\n        /* \"#utility.yul\":6123:6292   */\n    tag_70:\n        /* \"#utility.yul\":6167:6173   */\n      0x00\n        /* \"#utility.yul\":6200:6251   */\n      tag_146\n        /* \"#utility.yul\":6248:6249   */\n      0x00\n        /* \"#utility.yul\":6244:6250   */\n      not\n        /* \"#utility.yul\":6236:6241   */\n      dup5\n        /* \"#utility.yul\":6233:6234   */\n      0x08\n        /* \"#utility.yul\":6229:6242   */\n      mul\n        /* \"#utility.yul\":6200:6251   */\n      tag_69\n      jump\t// in\n    tag_146:\n        /* \"#utility.yul\":6196:6252   */\n      not\n        /* \"#utility.yul\":6281:6285   */\n      dup1\n        /* \"#utility.yul\":6275:6279   */\n      dup4\n        /* \"#utility.yul\":6271:6286   */\n      and\n        /* \"#utility.yul\":6261:6286   */\n      swap2\n      pop\n        /* \"#utility.yul\":6174:6292   */\n      pop\n        /* \"#utility.yul\":6123:6292   */\n      swap3\n      swap2\n      pop\n      pop\n      jump\t// out\n        /* \"#utility.yul\":6297:6592   */\n    tag_71:\n        /* \"#utility.yul\":6373:6377   */\n      0x00\n        /* \"#utility.yul\":6519:6548   */\n      tag_148\n        /* \"#utility.yul\":6544:6547   */\n      dup4\n        /* \"#utility.yul\":6538:6542   */\n      dup4\n        /* \"#utility.yul\":6519:6548   */\n      tag_70\n      jump\t// in\n    tag_148:\n        /* \"#utility.yul\":6511:6548   */\n      swap2\n      pop\n        /* \"#utility.yul\":6581:6584   */\n      dup3\n        /* \"#utility.yul\":6578:6579   */\n      0x02\n        /* \"#utility.yul\":6574:6585   */\n      mul\n        /* \"#utility.yul\":6568:6572   */\n      dup3\n        /* \"#utility.yul\":6565:6586   */\n      or\n        /* \"#utility.yul\":6557:6586   */\n      swap1\n      pop\n        /* \"#utility.yul\":6297:6592   */\n      swap3\n      swap2\n      pop\n      pop\n      jump\t// out\n        /* \"#utility.yul\":6597:7989   */\n    tag_23:\n        /* \"#utility.yul\":6713:6750   */\n      tag_150\n        /* \"#utility.yul\":6746:6749   */\n      dup3\n        /* \"#utility.yul\":6713:6750   */\n      tag_54\n      jump\t// in\n    tag_150:\n        /* \"#utility.yul\":6815:6833   */\n      0xffffffffffffffff\n        /* \"#utility.yul\":6807:6813   */\n      dup2\n        /* \"#utility.yul\":6804:6834   */\n      gt\n        /* \"#utility.yul\":6801:6857   */\n      iszero\n      tag_151\n      jumpi\n        /* \"#utility.yul\":6837:6855   */\n      tag_152\n      tag_55\n      jump\t// in\n    tag_152:\n        /* \"#utility.yul\":6801:6857   */\n    tag_151:\n        /* \"#utility.yul\":6881:6919   */\n      tag_153\n        /* \"#utility.yul\":6913:6917   */\n      dup3\n        /* \"#utility.yul\":6907:6918   */\n      sload\n        /* \"#utility.yul\":6881:6919   */\n      tag_26\n      jump\t// in\n    tag_153:\n        /* \"#utility.yul\":6966:7032   */\n      tag_154\n        /* \"#utility.yul\":7025:7031   */\n      dup3\n        /* \"#utility.yul\":7017:7023   */\n      dup3\n        /* \"#utility.yul\":7011:7015   */\n      dup6\n        /* \"#utility.yul\":6966:7032   */\n      tag_68\n      jump\t// in\n    tag_154:\n        /* \"#utility.yul\":7059:7060   */\n      0x00\n        /* \"#utility.yul\":7083:7087   */\n      0x20\n        /* \"#utility.yul\":7070:7087   */\n      swap1\n      pop\n        /* \"#utility.yul\":7115:7117   */\n      0x1f\n        /* \"#utility.yul\":7107:7113   */\n      dup4\n        /* \"#utility.yul\":7104:7118   */\n      gt\n        /* \"#utility.yul\":7132:7133   */\n      0x01\n        /* \"#utility.yul\":7127:7744   */\n      dup2\n      eq\n      tag_156\n      jumpi\n        /* \"#utility.yul\":7788:7789   */\n      0x00\n        /* \"#utility.yul\":7805:7811   */\n      dup5\n        /* \"#utility.yul\":7802:7879   */\n      iszero\n      tag_157\n      jumpi\n        /* \"#utility.yul\":7854:7863   */\n      dup3\n        /* \"#utility.yul\":7849:7852   */\n      dup8\n        /* \"#utility.yul\":7845:7864   */\n      add\n        /* \"#utility.yul\":7839:7865   */\n      mload\n        /* \"#utility.yul\":7830:7865   */\n      swap1\n      pop\n        /* \"#utility.yul\":7802:7879   */\n    tag_157:\n        /* \"#utility.yul\":7905:7972   */\n      tag_158\n        /* \"#utility.yul\":7965:7971   */\n      dup6\n        /* \"#utility.yul\":7958:7963   */\n      dup3\n        /* \"#utility.yul\":7905:7972   */\n      tag_71\n      jump\t// in\n    tag_158:\n        /* \"#utility.yul\":7899:7903   */\n      dup7\n        /* \"#utility.yul\":7892:7973   */\n      sstore\n        /* \"#utility.yul\":7761:7983   */\n      pop\n        /* \"#utility.yul\":7097:7983   */\n      jump(tag_155)\n        /* \"#utility.yul\":7127:7744   */\n    tag_156:\n        /* \"#utility.yul\":7179:7183   */\n      0x1f\n        /* \"#utility.yul\":7175:7184   */\n      not\n        /* \"#utility.yul\":7167:7173   */\n      dup5\n        /* \"#utility.yul\":7163:7185   */\n      and\n        /* \"#utility.yul\":7213:7249   */\n      tag_159\n        /* \"#utility.yul\":7244:7248   */\n      dup7\n        /* \"#utility.yul\":7213:7249   */\n      tag_57\n      jump\t// in\n    tag_159:\n        /* \"#utility.yul\":7271:7272   */\n      0x00\n        /* \"#utility.yul\":7285:7493   */\n    tag_160:\n        /* \"#utility.yul\":7299:7306   */\n      dup3\n        /* \"#utility.yul\":7296:7297   */\n      dup2\n        /* \"#utility.yul\":7293:7307   */\n      lt\n        /* \"#utility.yul\":7285:7493   */\n      iszero\n      tag_162\n      jumpi\n        /* \"#utility.yul\":7378:7387   */\n      dup5\n        /* \"#utility.yul\":7373:7376   */\n      dup10\n        /* \"#utility.yul\":7369:7388   */\n      add\n        /* \"#utility.yul\":7363:7389   */\n      mload\n        /* \"#utility.yul\":7355:7361   */\n      dup3\n        /* \"#utility.yul\":7348:7390   */\n      sstore\n        /* \"#utility.yul\":7429:7430   */\n      0x01\n        /* \"#utility.yul\":7421:7427   */\n      dup3\n        /* \"#utility.yul\":7417:7431   */\n      add\n        /* \"#utility.yul\":7407:7431   */\n      swap2\n      pop\n        /* \"#utility.yul\":7476:7478   */\n      0x20\n        /* \"#utility.yul\":7465:7474   */\n      dup6\n        /* \"#utility.yul\":7461:7479   */\n      add\n        /* \"#utility.yul\":7448:7479   */\n      swap5\n      pop\n        /* \"#utility.yul\":7322:7326   */\n      0x20\n        /* \"#utility.yul\":7319:7320   */\n      dup2\n        /* \"#utility.yul\":7315:7327   */\n      add\n        /* \"#utility.yul\":7310:7327   */\n      swap1\n      pop\n        /* \"#utility.yul\":7285:7493   */\n      jump(tag_160)\n    tag_162:\n        /* \"#utility.yul\":7521:7527   */\n      dup7\n        /* \"#utility.yul\":7512:7519   */\n      dup4\n        /* \"#utility.yul\":7509:7528   */\n      lt\n        /* \"#utility.yul\":7506:7685   */\n      iszero\n      tag_163\n      jumpi\n        /* \"#utility.yul\":7579:7588   */\n      dup5\n        /* \"#utility.yul\":7574:7577   */\n      dup10\n        /* \"#utility.yul\":7570:7589   */\n      add\n        /* \"#utility.yul\":7564:7590   */\n      mload\n        /* \"#utility.yul\":7622:7670   */\n      tag_164\n        /* \"#utility.yul\":7664:7668   */\n      0x1f\n        /* \"#utility.yul\":7656:7662   */\n      dup10\n        /* \"#utility.yul\":7652:7669   */\n      and\n        /* \"#utility.yul\":7641:7650   */\n      dup3\n        /* \"#utility.yul\":7622:7670   */\n      tag_70\n      jump\t// in\n    tag_164:\n        /* \"#utility.yul\":7614:7620   */\n      dup4\n        /* \"#utility.yul\":7607:7671   */\n      sstore\n        /* \"#utility.yul\":7529:7685   */\n      pop\n        /* \"#utility.yul\":7506:7685   */\n    tag_163:\n        /* \"#utility.yul\":7731:7732   */\n      0x01\n        /* \"#utility.yul\":7727:7728   */\n      0x02\n        /* \"#utility.yul\":7719:7725   */\n      dup9\n        /* \"#utility.yul\":7715:7729   */\n      mul\n        /* \"#utility.yul\":7711:7733   */\n      add\n        /* \"#utility.yul\":7705:7709   */\n      dup9\n        /* \"#utility.yul\":7698:7734   */\n      sstore\n        /* \"#utility.yul\":7134:7744   */\n      pop\n      pop\n      pop\n        /* \"#utility.yul\":7097:7983   */\n    tag_155:\n      pop\n        /* \"#utility.yul\":6688:7989   */\n      pop\n      pop\n      pop\n        /* \"#utility.yul\":6597:7989   */\n      pop\n      pop\n      jump\t// out\n        /* \"#utility.yul\":7995:8175   */\n    tag_34:\n        /* \"#utility.yul\":8043:8120   */\n      0x4e487b7100000000000000000000000000000000000000000000000000000000\n        /* \"#utility.yul\":8040:8041   */\n      0x00\n        /* \"#utility.yul\":8033:8121   */\n      mstore\n        /* \"#utility.yul\":8140:8144   */\n      0x32\n        /* \"#utility.yul\":8137:8138   */\n      0x04\n        /* \"#utility.yul\":8130:8145   */\n      mstore\n        /* \"#utility.yul\":8164:8168   */\n      0x24\n        /* \"#utility.yul\":8161:8162   */\n      0x00\n        /* \"#utility.yul\":8154:8169   */\n      revert\n\n    auxdata: 0xa2646970667358221220bf1b9617731a795cdc9c5d57b12198c1c873cb8579b2fe048e9fd10b0175821864736f6c63430008140033\n}\n",
				"bytecode": {
					"linkReferences": {},
					"object": "60806040526040518060400160405280600381526020017f61626300000000000000000000000000000000000000000000000000000000008152505f9081620000499190620002c1565b5034801562000056575f80fd5b50620003a5565b5f81519050919050565b7f4e487b71000000000000000000000000000000000000000000000000000000005f52604160045260245ffd5b7f4e487b71000000000000000000000000000000000000000000000000000000005f52602260045260245ffd5b5f6002820490506001821680620000d957607f821691505b602082108103620000ef57620000ee62000094565b5b50919050565b5f819050815f5260205f209050919050565b5f6020601f8301049050919050565b5f82821b905092915050565b5f60088302620001537fffffffffffffffffffffffffffffffffffffffffffffffffffffffffffffffff8262000116565b6200015f868362000116565b95508019841693508086168417925050509392505050565b5f819050919050565b5f819050919050565b5f620001a9620001a36200019d8462000177565b62000180565b62000177565b9050919050565b5f819050919050565b620001c48362000189565b620001dc620001d382620001b0565b84845462000122565b825550505050565b5f90565b620001f2620001e4565b620001ff818484620001b9565b505050565b5b8181101562000226576200021a5f82620001e8565b60018101905062000205565b5050565b601f82111562000275576200023f81620000f5565b6200024a8462000107565b810160208510156200025a578190505b62000272620002698562000107565b83018262000204565b50505b505050565b5f82821c905092915050565b5f620002975f19846008026200027a565b1980831691505092915050565b5f620002b1838362000286565b9150826002028217905092915050565b620002cc826200005d565b67ffffffffffffffff811115620002e857620002e762000067565b5b620002f48254620000c1565b620003018282856200022a565b5f60209050601f83116001811462000337575f841562000322578287015190505b6200032e8582620002a4565b8655506200039d565b601f1984166200034786620000f5565b5f5b82811015620003705784890151825560018201915060208501945060208101905062000349565b868310156200039057848901516200038c601f89168262000286565b8355505b6001600288020188555050505b505050505050565b61076480620003b35f395ff3fe608060405234801561000f575f80fd5b506004361061004a575f3560e01c80633f3108f71461004e578063af6406c314610058578063cca55d7814610062578063ee49500214610092575b5f80fd5b6100566100b0565b005b6100606100f6565b005b61007c600480360381019061007791906102d9565b6101b0565b604051610089919061033e565b60405180910390f35b61009a610217565b6040516100a791906103e1565b60405180910390f35b6040518060400160405280600381526020017f63646500000000000000000000000000000000000000000000000000000000008152505f90816100f39190610632565b50565b5f8080548061010490610465565b80601f810361012157835f5260205f2060ff1984168155603f9350505b5060028201835560018101925050506001900381546001161561015157905f5260205f2090602091828204019190065b7f640000000000000000000000000000000000000000000000000000000000000090919091601f036101000a81548160ff021916907f010000000000000000000000000000000000000000000000000000000000000084040217905550565b5f808281546101be90610465565b81106101cd576101cc610701565b5b8154600116156101ea57905f5260205f2090602091828204019190065b9054901a7f0100000000000000000000000000000000000000000000000000000000000000029050919050565b5f805461022390610465565b80601f016020809104026020016040519081016040528092919081815260200182805461024f90610465565b801561029a5780601f106102715761010080835404028352916020019161029a565b820191905f5260205f20905b81548152906001019060200180831161027d57829003601f168201915b505050505081565b5f80fd5b5f819050919050565b6102b8816102a6565b81146102c2575f80fd5b50565b5f813590506102d3816102af565b92915050565b5f602082840312156102ee576102ed6102a2565b5b5f6102fb848285016102c5565b91505092915050565b5f7fff0000000000000000000000000000000000000000000000000000000000000082169050919050565b61033881610304565b82525050565b5f6020820190506103515f83018461032f565b92915050565b5f81519050919050565b5f82825260208201905092915050565b5f5b8381101561038e578082015181840152602081019050610373565b5f8484015250505050565b5f601f19601f8301169050919050565b5f6103b382610357565b6103bd8185610361565b93506103cd818560208601610371565b6103d681610399565b840191505092915050565b5f6020820190508181035f8301526103f981846103a9565b905092915050565b5f81519050919050565b7f4e487b71000000000000000000000000000000000000000000000000000000005f52604160045260245ffd5b7f4e487b71000000000000000000000000000000000000000000000000000000005f52602260045260245ffd5b5f600282049050600182168061047c57607f821691505b60208210810361048f5761048e610438565b5b50919050565b5f819050815f5260205f209050919050565b5f6020601f8301049050919050565b5f82821b905092915050565b5f600883026104f17fffffffffffffffffffffffffffffffffffffffffffffffffffffffffffffffff826104b6565b6104fb86836104b6565b95508019841693508086168417925050509392505050565b5f819050919050565b5f61053661053161052c846102a6565b610513565b6102a6565b9050919050565b5f819050919050565b61054f8361051c565b61056361055b8261053d565b8484546104c2565b825550505050565b5f90565b61057761056b565b610582818484610546565b505050565b5b818110156105a55761059a5f8261056f565b600181019050610588565b5050565b601f8211156105ea576105bb81610495565b6105c4846104a7565b810160208510156105d3578190505b6105e76105df856104a7565b830182610587565b50505b505050565b5f82821c905092915050565b5f61060a5f19846008026105ef565b1980831691505092915050565b5f61062283836105fb565b9150826002028217905092915050565b61063b82610401565b67ffffffffffffffff8111156106545761065361040b565b5b61065e8254610465565b6106698282856105a9565b5f60209050601f83116001811461069a575f8415610688578287015190505b6106928582610617565b8655506106f9565b601f1984166106a886610495565b5f5b828110156106cf578489015182556001820191506020850194506020810190506106aa565b868310156106ec57848901516106e8601f8916826105fb565b8355505b6001600288020188555050505b505050505050565b7f4e487b71000000000000000000000000000000000000000000000000000000005f52603260045260245ffdfea2646970667358221220bf1b9617731a795cdc9c5d57b12198c1c873cb8579b2fe048e9fd10b0175821864736f6c63430008140033",
					"opcodes": "PUSH1 0x80 PUSH1 0x40 MSTORE PUSH1 0x40 MLOAD DUP1 PUSH1 0x40 ADD PUSH1 0x40 MSTORE DUP1 PUSH1 0x3 DUP2 MSTORE PUSH1 0x20 ADD PUSH32 0x6162630000000000000000000000000000000000000000000000000000000000 DUP2 MSTORE POP PUSH0 SWAP1 DUP2 PUSH3 0x49 SWAP2 SWAP1 PUSH3 0x2C1 JUMP JUMPDEST POP CALLVALUE DUP1 ISZERO PUSH3 0x56 JUMPI PUSH0 DUP1 REVERT JUMPDEST POP PUSH3 0x3A5 JUMP JUMPDEST PUSH0 DUP2 MLOAD SWAP1 POP SWAP2 SWAP1 POP JUMP JUMPDEST PUSH32 0x4E487B7100000000000000000000000000000000000000000000000000000000 PUSH0 MSTORE PUSH1 0x41 PUSH1 0x4 MSTORE PUSH1 0x24 PUSH0 REVERT JUMPDEST PUSH32 0x4E487B7100000000000000000000000000000000000000000000000000000000 PUSH0 MSTORE PUSH1 0x22 PUSH1 0x4 MSTORE PUSH1 0x24 PUSH0 REVERT JUMPDEST PUSH0 PUSH1 0x2 DUP3 DIV SWAP1 POP PUSH1 0x1 DUP3 AND DUP1 PUSH3 0xD9 JUMPI PUSH1 0x7F DUP3 AND SWAP2 POP JUMPDEST PUSH1 0x20 DUP3 LT DUP2 SUB PUSH3 0xEF JUMPI PUSH3 0xEE PUSH3 0x94 JUMP JUMPDEST JUMPDEST POP SWAP2 SWAP1 POP JUMP JUMPDEST PUSH0 DUP2 SWAP1 POP DUP2 PUSH0 MSTORE PUSH1 0x20 PUSH0 KECCAK256 SWAP1 POP SWAP2 SWAP1 POP JUMP JUMPDEST PUSH0 PUSH1 0x20 PUSH1 0x1F DUP4 ADD DIV SWAP1 POP SWAP2 SWAP1 POP JUMP JUMPDEST PUSH0 DUP3 DUP3 SHL SWAP1 POP SWAP3 SWAP2 POP POP JUMP JUMPDEST PUSH0 PUSH1 0x8 DUP4 MUL PUSH3 0x153 PUSH32 0xFFFFFFFFFFFFFFFFFFFFFFFFFFFFFFFFFFFFFFFFFFFFFFFFFFFFFFFFFFFFFFFF DUP3 PUSH3 0x116 JUMP JUMPDEST PUSH3 0x15F DUP7 DUP4 PUSH3 0x116 JUMP JUMPDEST SWAP6 POP DUP1 NOT DUP5 AND SWAP4 POP DUP1 DUP7 AND DUP5 OR SWAP3 POP POP POP SWAP4 SWAP3 POP POP POP JUMP JUMPDEST PUSH0 DUP2 SWAP1 POP SWAP2 SWAP1 POP JUMP JUMPDEST PUSH0 DUP2 SWAP1 POP SWAP2 SWAP1 POP JUMP JUMPDEST PUSH0 PUSH3 0x1A9 PUSH3 0x1A3 PUSH3 0x19D DUP5 PUSH3 0x177 JUMP JUMPDEST PUSH3 0x180 JUMP JUMPDEST PUSH3 0x177 JUMP JUMPDEST SWAP1 POP SWAP2 SWAP1 POP JUMP JUMPDEST PUSH0 DUP2 SWAP1 POP SWAP2 SWAP1 POP JUMP JUMPDEST PUSH3 0x1C4 DUP4 PUSH3 0x189 JUMP JUMPDEST PUSH3 0x1DC PUSH3 0x1D3 DUP3 PUSH3 0x1B0 JUMP JUMPDEST DUP5 DUP5 SLOAD PUSH3 0x122 JUMP JUMPDEST DUP3 SSTORE POP POP POP POP JUMP JUMPDEST PUSH0 SWAP1 JUMP JUMPDEST PUSH3 0x1F2 PUSH3 0x1E4 JUMP JUMPDEST PUSH3 0x1FF DUP2 DUP5 DUP5 PUSH3 0x1B9 JUMP JUMPDEST POP POP POP JUMP JUMPDEST JUMPDEST DUP2 DUP2 LT ISZERO PUSH3 0x226 JUMPI PUSH3 0x21A PUSH0 DUP3 PUSH3 0x1E8 JUMP JUMPDEST PUSH1 0x1 DUP2 ADD SWAP1 POP PUSH3 0x205 JUMP JUMPDEST POP POP JUMP JUMPDEST PUSH1 0x1F DUP3 GT ISZERO PUSH3 0x275 JUMPI PUSH3 0x23F DUP2 PUSH3 0xF5 JUMP JUMPDEST PUSH3 0x24A DUP5 PUSH3 0x107 JUMP JUMPDEST DUP2 ADD PUSH1 0x20 DUP6 LT ISZERO PUSH3 0x25A JUMPI DUP2 SWAP1 POP JUMPDEST PUSH3 0x272 PUSH3 0x269 DUP6 PUSH3 0x107 JUMP JUMPDEST DUP4 ADD DUP3 PUSH3 0x204 JUMP JUMPDEST POP POP JUMPDEST POP POP POP JUMP JUMPDEST PUSH0 DUP3 DUP3 SHR SWAP1 POP SWAP3 SWAP2 POP POP JUMP JUMPDEST PUSH0 PUSH3 0x297 PUSH0 NOT DUP5 PUSH1 0x8 MUL PUSH3 0x27A JUMP JUMPDEST NOT DUP1 DUP4 AND SWAP2 POP POP SWAP3 SWAP2 POP POP JUMP JUMPDEST PUSH0 PUSH3 0x2B1 DUP4 DUP4 PUSH3 0x286 JUMP JUMPDEST SWAP2 POP DUP3 PUSH1 0x2 MUL DUP3 OR SWAP1 POP SWAP3 SWAP2 POP POP JUMP JUMPDEST PUSH3 0x2CC DUP3 PUSH3 0x5D JUMP JUMPDEST PUSH8 0xFFFFFFFFFFFFFFFF DUP2 GT ISZERO PUSH3 0x2E8 JUMPI PUSH3 0x2E7 PUSH3 0x67 JUMP JUMPDEST JUMPDEST PUSH3 0x2F4 DUP3 SLOAD PUSH3 0xC1 JUMP JUMPDEST PUSH3 0x301 DUP3 DUP3 DUP6 PUSH3 0x22A JUMP JUMPDEST PUSH0 PUSH1 0x20 SWAP1 POP PUSH1 0x1F DUP4 GT PUSH1 0x1 DUP2 EQ PUSH3 0x337 JUMPI PUSH0 DUP5 ISZERO PUSH3 0x322 JUMPI DUP3 DUP8 ADD MLOAD SWAP1 POP JUMPDEST PUSH3 0x32E DUP6 DUP3 PUSH3 0x2A4 JUMP JUMPDEST DUP7 SSTORE POP PUSH3 0x39D JUMP JUMPDEST PUSH1 0x1F NOT DUP5 AND PUSH3 0x347 DUP7 PUSH3 0xF5 JUMP JUMPDEST PUSH0 JUMPDEST DUP3 DUP2 LT ISZERO PUSH3 0x370 JUMPI DUP5 DUP10 ADD MLOAD DUP3 SSTORE PUSH1 0x1 DUP3 ADD SWAP2 POP PUSH1 0x20 DUP6 ADD SWAP5 POP PUSH1 0x20 DUP2 ADD SWAP1 POP PUSH3 0x349 JUMP JUMPDEST DUP7 DUP4 LT ISZERO PUSH3 0x390 JUMPI DUP5 DUP10 ADD MLOAD PUSH3 0x38C PUSH1 0x1F DUP10 AND DUP3 PUSH3 0x286 JUMP JUMPDEST DUP4 SSTORE POP JUMPDEST PUSH1 0x1 PUSH1 0x2 DUP9 MUL ADD DUP9 SSTORE POP POP POP JUMPDEST POP POP POP POP POP POP JUMP JUMPDEST PUSH2 0x764 DUP1 PUSH3 0x3B3 PUSH0 CODECOPY PUSH0 RETURN INVALID PUSH1 0x80 PUSH1 0x40 MSTORE CALLVALUE DUP1 ISZERO PUSH2 0xF JUMPI PUSH0 DUP1 REVERT JUMPDEST POP PUSH1 0x4 CALLDATASIZE LT PUSH2 0x4A JUMPI PUSH0 CALLDATALOAD PUSH1 0xE0 SHR DUP1 PUSH4 0x3F3108F7 EQ PUSH2 0x4E JUMPI DUP1 PUSH4 0xAF6406C3 EQ PUSH2 0x58 JUMPI DUP1 PUSH4 0xCCA55D78 EQ PUSH2 0x62 JUMPI DUP1 PUSH4 0xEE495002 EQ PUSH2 0x92 JUMPI JUMPDEST PUSH0 DUP1 REVERT JUMPDEST PUSH2 0x56 PUSH2 0xB0 JUMP JUMPDEST STOP JUMPDEST PUSH2 0x60 PUSH2 0xF6 JUMP JUMPDEST STOP JUMPDEST PUSH2 0x7C PUSH1 0x4 DUP1 CALLDATASIZE SUB DUP2 ADD SWAP1 PUSH2 0x77 SWAP2 SWAP1 PUSH2 0x2D9 JUMP JUMPDEST PUSH2 0x1B0 JUMP JUMPDEST PUSH1 0x40 MLOAD PUSH2 0x89 SWAP2 SWAP1 PUSH2 0x33E JUMP JUMPDEST PUSH1 0x40 MLOAD DUP1 SWAP2 SUB SWAP1 RETURN JUMPDEST PUSH2 0x9A PUSH2 0x217 JUMP JUMPDEST PUSH1 0x40 MLOAD PUSH2 0xA7 SWAP2 SWAP1 PUSH2 0x3E1 JUMP JUMPDEST PUSH1 0x40 MLOAD DUP1 SWAP2 SUB SWAP1 RETURN JUMPDEST PUSH1 0x40 MLOAD DUP1 PUSH1 0x40 ADD PUSH1 0x40 MSTORE DUP1 PUSH1 0x3 DUP2 MSTORE PUSH1 0x20 ADD PUSH32 0x6364650000000000000000000000000000000000000000000000000000000000 DUP2 MSTORE POP PUSH0 SWAP1 DUP2 PUSH2 0xF3 SWAP2 SWAP1 PUSH2 0x632 JUMP JUMPDEST POP JUMP JUMPDEST PUSH0 DUP1 DUP1 SLOAD DUP1 PUSH2 0x104 SWAP1 PUSH2 0x465 JUMP JUMPDEST DUP1 PUSH1 0x1F DUP2 SUB PUSH2 0x121 JUMPI DUP4 PUSH0 MSTORE PUSH1 0x20 PUSH0 KECCAK256 PUSH1 0xFF NOT DUP5 AND DUP2 SSTORE PUSH1 0x3F SWAP4 POP POP JUMPDEST POP PUSH1 0x2 DUP3 ADD DUP4 SSTORE PUSH1 0x1 DUP2 ADD SWAP3 POP POP POP PUSH1 0x1 SWAP1 SUB DUP2 SLOAD PUSH1 0x1 AND ISZERO PUSH2 0x151 JUMPI SWAP1 PUSH0 MSTORE PUSH1 0x20 PUSH0 KECCAK256 SWAP1 PUSH1 0x20 SWAP2 DUP3 DUP3 DIV ADD SWAP2 SWAP1 MOD JUMPDEST PUSH32 0x6400000000000000000000000000000000000000000000000000000000000000 SWAP1 SWAP2 SWAP1 SWAP2 PUSH1 0x1F SUB PUSH2 0x100 EXP DUP2 SLOAD DUP2 PUSH1 0xFF MUL NOT AND SWAP1 PUSH32 0x100000000000000000000000000000000000000000000000000000000000000 DUP5 DIV MUL OR SWAP1 SSTORE POP JUMP JUMPDEST PUSH0 DUP1 DUP3 DUP2 SLOAD PUSH2 0x1BE SWAP1 PUSH2 0x465 JUMP JUMPDEST DUP2 LT PUSH2 0x1CD JUMPI PUSH2 0x1CC PUSH2 0x701 JUMP JUMPDEST JUMPDEST DUP2 SLOAD PUSH1 0x1 AND ISZERO PUSH2 0x1EA JUMPI SWAP1 PUSH0 MSTORE PUSH1 0x20 PUSH0 KECCAK256 SWAP1 PUSH1 0x20 SWAP2 DUP3 DUP3 DIV ADD SWAP2 SWAP1 MOD JUMPDEST SWAP1 SLOAD SWAP1 BYTE PUSH32 0x100000000000000000000000000000000000000000000000000000000000000 MUL SWAP1 POP SWAP2 SWAP1 POP JUMP JUMPDEST PUSH0 DUP1 SLOAD PUSH2 0x223 SWAP1 PUSH2 0x465 JUMP JUMPDEST DUP1 PUSH1 0x1F ADD PUSH1 0x20 DUP1 SWAP2 DIV MUL PUSH1 0x20 ADD PUSH1 0x40 MLOAD SWAP1 DUP2 ADD PUSH1 0x40 MSTORE DUP1 SWAP3 SWAP2 SWAP1 DUP2 DUP2 MSTORE PUSH1 0x20 ADD DUP3 DUP1 SLOAD PUSH2 0x24F SWAP1 PUSH2 0x465 JUMP JUMPDEST DUP1 ISZERO PUSH2 0x29A JUMPI DUP1 PUSH1 0x1F LT PUSH2 0x271 JUMPI PUSH2 0x100 DUP1 DUP4 SLOAD DIV MUL DUP4 MSTORE SWAP2 PUSH1 0x20 ADD SWAP2 PUSH2 0x29A JUMP JUMPDEST DUP3 ADD SWAP2 SWAP1 PUSH0 MSTORE PUSH1 0x20 PUSH0 KECCAK256 SWAP1 JUMPDEST DUP2 SLOAD DUP2 MSTORE SWAP1 PUSH1 0x1 ADD SWAP1 PUSH1 0x20 ADD DUP1 DUP4 GT PUSH2 0x27D JUMPI DUP3 SWAP1 SUB PUSH1 0x1F AND DUP3 ADD SWAP2 JUMPDEST POP POP POP POP POP DUP2 JUMP JUMPDEST PUSH0 DUP1 REVERT JUMPDEST PUSH0 DUP2 SWAP1 POP SWAP2 SWAP1 POP JUMP JUMPDEST PUSH2 0x2B8 DUP2 PUSH2 0x2A6 JUMP JUMPDEST DUP2 EQ PUSH2 0x2C2 JUMPI PUSH0 DUP1 REVERT JUMPDEST POP JUMP JUMPDEST PUSH0 DUP2 CALLDATALOAD SWAP1 POP PUSH2 0x2D3 DUP2 PUSH2 0x2AF JUMP JUMPDEST SWAP3 SWAP2 POP POP JUMP JUMPDEST PUSH0 PUSH1 0x20 DUP3 DUP5 SUB SLT ISZERO PUSH2 0x2EE JUMPI PUSH2 0x2ED PUSH2 0x2A2 JUMP JUMPDEST JUMPDEST PUSH0 PUSH2 0x2FB DUP5 DUP3 DUP6 ADD PUSH2 0x2C5 JUMP JUMPDEST SWAP2 POP POP SWAP3 SWAP2 POP POP JUMP JUMPDEST PUSH0 PUSH32 0xFF00000000000000000000000000000000000000000000000000000000000000 DUP3 AND SWAP1 POP SWAP2 SWAP1 POP JUMP JUMPDEST PUSH2 0x338 DUP2 PUSH2 0x304 JUMP JUMPDEST DUP3 MSTORE POP POP JUMP JUMPDEST PUSH0 PUSH1 0x20 DUP3 ADD SWAP1 POP PUSH2 0x351 PUSH0 DUP4 ADD DUP5 PUSH2 0x32F JUMP JUMPDEST SWAP3 SWAP2 POP POP JUMP JUMPDEST PUSH0 DUP2 MLOAD SWAP1 POP SWAP2 SWAP1 POP JUMP JUMPDEST PUSH0 DUP3 DUP3 MSTORE PUSH1 0x20 DUP3 ADD SWAP1 POP SWAP3 SWAP2 POP POP JUMP JUMPDEST PUSH0 JUMPDEST DUP4 DUP2 LT ISZERO PUSH2 0x38E JUMPI DUP1 DUP3 ADD MLOAD DUP2 DUP5 ADD MSTORE PUSH1 0x20 DUP2 ADD SWAP1 POP PUSH2 0x373 JUMP JUMPDEST PUSH0 DUP5 DUP5 ADD MSTORE POP POP POP POP JUMP JUMPDEST PUSH0 PUSH1 0x1F NOT PUSH1 0x1F DUP4 ADD AND SWAP1 POP SWAP2 SWAP1 POP JUMP JUMPDEST PUSH0 PUSH2 0x3B3 DUP3 PUSH2 0x357 JUMP JUMPDEST PUSH2 0x3BD DUP2 DUP6 PUSH2 0x361 JUMP JUMPDEST SWAP4 POP PUSH2 0x3CD DUP2 DUP6 PUSH1 0x20 DUP7 ADD PUSH2 0x371 JUMP JUMPDEST PUSH2 0x3D6 DUP2 PUSH2 0x399 JUMP JUMPDEST DUP5 ADD SWAP2 POP POP SWAP3 SWAP2 POP POP JUMP JUMPDEST PUSH0 PUSH1 0x20 DUP3 ADD SWAP1 POP DUP2 DUP2 SUB PUSH0 DUP4 ADD MSTORE PUSH2 0x3F9 DUP2 DUP5 PUSH2 0x3A9 JUMP JUMPDEST SWAP1 POP SWAP3 SWAP2 POP POP JUMP JUMPDEST PUSH0 DUP2 MLOAD SWAP1 POP SWAP2 SWAP1 POP JUMP JUMPDEST PUSH32 0x4E487B7100000000000000000000000000000000000000000000000000000000 PUSH0 MSTORE PUSH1 0x41 PUSH1 0x4 MSTORE PUSH1 0x24 PUSH0 REVERT JUMPDEST PUSH32 0x4E487B7100000000000000000000000000000000000000000000000000000000 PUSH0 MSTORE PUSH1 0x22 PUSH1 0x4 MSTORE PUSH1 0x24 PUSH0 REVERT JUMPDEST PUSH0 PUSH1 0x2 DUP3 DIV SWAP1 POP PUSH1 0x1 DUP3 AND DUP1 PUSH2 0x47C JUMPI PUSH1 0x7F DUP3 AND SWAP2 POP JUMPDEST PUSH1 0x20 DUP3 LT DUP2 SUB PUSH2 0x48F JUMPI PUSH2 0x48E PUSH2 0x438 JUMP JUMPDEST JUMPDEST POP SWAP2 SWAP1 POP JUMP JUMPDEST PUSH0 DUP2 SWAP1 POP DUP2 PUSH0 MSTORE PUSH1 0x20 PUSH0 KECCAK256 SWAP1 POP SWAP2 SWAP1 POP JUMP JUMPDEST PUSH0 PUSH1 0x20 PUSH1 0x1F DUP4 ADD DIV SWAP1 POP SWAP2 SWAP1 POP JUMP JUMPDEST PUSH0 DUP3 DUP3 SHL SWAP1 POP SWAP3 SWAP2 POP POP JUMP JUMPDEST PUSH0 PUSH1 0x8 DUP4 MUL PUSH2 0x4F1 PUSH32 0xFFFFFFFFFFFFFFFFFFFFFFFFFFFFFFFFFFFFFFFFFFFFFFFFFFFFFFFFFFFFFFFF DUP3 PUSH2 0x4B6 JUMP JUMPDEST PUSH2 0x4FB DUP7 DUP4 PUSH2 0x4B6 JUMP JUMPDEST SWAP6 POP DUP1 NOT DUP5 AND SWAP4 POP DUP1 DUP7 AND DUP5 OR SWAP3 POP POP POP SWAP4 SWAP3 POP POP POP JUMP JUMPDEST PUSH0 DUP2 SWAP1 POP SWAP2 SWAP1 POP JUMP JUMPDEST PUSH0 PUSH2 0x536 PUSH2 0x531 PUSH2 0x52C DUP5 PUSH2 0x2A6 JUMP JUMPDEST PUSH2 0x513 JUMP JUMPDEST PUSH2 0x2A6 JUMP JUMPDEST SWAP1 POP SWAP2 SWAP1 POP JUMP JUMPDEST PUSH0 DUP2 SWAP1 POP SWAP2 SWAP1 POP JUMP JUMPDEST PUSH2 0x54F DUP4 PUSH2 0x51C JUMP JUMPDEST PUSH2 0x563 PUSH2 0x55B DUP3 PUSH2 0x53D JUMP JUMPDEST DUP5 DUP5 SLOAD PUSH2 0x4C2 JUMP JUMPDEST DUP3 SSTORE POP POP POP POP JUMP JUMPDEST PUSH0 SWAP1 JUMP JUMPDEST PUSH2 0x577 PUSH2 0x56B JUMP JUMPDEST PUSH2 0x582 DUP2 DUP5 DUP5 PUSH2 0x546 JUMP JUMPDEST POP POP POP JUMP JUMPDEST JUMPDEST DUP2 DUP2 LT ISZERO PUSH2 0x5A5 JUMPI PUSH2 0x59A PUSH0 DUP3 PUSH2 0x56F JUMP JUMPDEST PUSH1 0x1 DUP2 ADD SWAP1 POP PUSH2 0x588 JUMP JUMPDEST POP POP JUMP JUMPDEST PUSH1 0x1F DUP3 GT ISZERO PUSH2 0x5EA JUMPI PUSH2 0x5BB DUP2 PUSH2 0x495 JUMP JUMPDEST PUSH2 0x5C4 DUP5 PUSH2 0x4A7 JUMP JUMPDEST DUP2 ADD PUSH1 0x20 DUP6 LT ISZERO PUSH2 0x5D3 JUMPI DUP2 SWAP1 POP JUMPDEST PUSH2 0x5E7 PUSH2 0x5DF DUP6 PUSH2 0x4A7 JUMP JUMPDEST DUP4 ADD DUP3 PUSH2 0x587 JUMP JUMPDEST POP POP JUMPDEST POP POP POP JUMP JUMPDEST PUSH0 DUP3 DUP3 SHR SWAP1 POP SWAP3 SWAP2 POP POP JUMP JUMPDEST PUSH0 PUSH2 0x60A PUSH0 NOT DUP5 PUSH1 0x8 MUL PUSH2 0x5EF JUMP JUMPDEST NOT DUP1 DUP4 AND SWAP2 POP POP SWAP3 SWAP2 POP POP JUMP JUMPDEST PUSH0 PUSH2 0x622 DUP4 DUP4 PUSH2 0x5FB JUMP JUMPDEST SWAP2 POP DUP3 PUSH1 0x2 MUL DUP3 OR SWAP1 POP SWAP3 SWAP2 POP POP JUMP JUMPDEST PUSH2 0x63B DUP3 PUSH2 0x401 JUMP JUMPDEST PUSH8 0xFFFFFFFFFFFFFFFF DUP2 GT ISZERO PUSH2 0x654 JUMPI PUSH2 0x653 PUSH2 0x40B JUMP JUMPDEST JUMPDEST PUSH2 0x65E DUP3 SLOAD PUSH2 0x465 JUMP JUMPDEST PUSH2 0x669 DUP3 DUP3 DUP6 PUSH2 0x5A9 JUMP JUMPDEST PUSH0 PUSH1 0x20 SWAP1 POP PUSH1 0x1F DUP4 GT PUSH1 0x1 DUP2 EQ PUSH2 0x69A JUMPI PUSH0 DUP5 ISZERO PUSH2 0x688 JUMPI DUP3 DUP8 ADD MLOAD SWAP1 POP JUMPDEST PUSH2 0x692 DUP6 DUP3 PUSH2 0x617 JUMP JUMPDEST DUP7 SSTORE POP PUSH2 0x6F9 JUMP JUMPDEST PUSH1 0x1F NOT DUP5 AND PUSH2 0x6A8 DUP7 PUSH2 0x495 JUMP JUMPDEST PUSH0 JUMPDEST DUP3 DUP2 LT ISZERO PUSH2 0x6CF JUMPI DUP5 DUP10 ADD MLOAD DUP3 SSTORE PUSH1 0x1 DUP3 ADD SWAP2 POP PUSH1 0x20 DUP6 ADD SWAP5 POP PUSH1 0x20 DUP2 ADD SWAP1 POP PUSH2 0x6AA JUMP JUMPDEST DUP7 DUP4 LT ISZERO PUSH2 0x6EC JUMPI DUP5 DUP10 ADD MLOAD PUSH2 0x6E8 PUSH1 0x1F DUP10 AND DUP3 PUSH2 0x5FB JUMP JUMPDEST DUP4 SSTORE POP JUMPDEST PUSH1 0x1 PUSH1 0x2 DUP9 MUL ADD DUP9 SSTORE POP POP POP JUMPDEST POP POP POP POP POP POP JUMP JUMPDEST PUSH32 0x4E487B7100000000000000000000000000000000000000000000000000000000 PUSH0 MSTORE PUSH1 0x32 PUSH1 0x4 MSTORE PUSH1 0x24 PUSH0 REVERT INVALID LOG2 PUSH5 0x6970667358 0x22 SLT KECCAK256 0xBF SHL SWAP7 OR PUSH20 0x1A795CDC9C5D57B12198C1C873CB8579B2FE048E SWAP16 0xD1 SIGNEXTEND ADD PUSH22 0x821864736F6C63430008140033000000000000000000 "
				},
				"gasEstimates": {
					"creation": {
						"codeDepositCost": "378400",
						"executionCost": "infinite",
						"totalCost": "infinite"
					},
					"external": {
						"b1()": "infinite",
						"getele(uint256)": "7197",
						"pushele()": "74809",
						"setter()": "infinite"
					}
				},
				"methodIdentifiers": {
					"b1()": "ee495002",
					"getele(uint256)": "cca55d78",
					"pushele()": "af6406c3",
					"setter()": "3f3108f7"
				}
			},
			"storageLayout": {
				"storage": [
					{
						"astId": 4,
						"contract": "Basics of Solidity/BytesArrayDynami.sol:ByteArrays",
						"label": "b1",
						"offset": 0,
						"slot": "0",
						"type": "t_bytes_storage"
					}
				],
				"types": {
					"t_bytes_storage": {
						"encoding": "bytes",
						"label": "bytes",
						"numberOfBytes": "32"
					}
				}
			},
			"userdoc": {
				"kind": "user",
				"methods": {},
				"version": 1
			}
		}
	}
}